:100000000C94F0030C941A040C941A040C941A0423
:100010000C94482E0C941A040C941A040C941A0490
:100020000C941A040C94A62F0C941A040C941A0421
:100030000C941A040C94DE2C0C941A040C941A04DC
:100040000C941A040C941A040C94B62E0C941A04F2
:100050000C94FE2E0C94282F0C941A040C941A0461
:100060000C941A040C941A040C941D2D0C941A046C
:100070000C94522F0C947C2F0C941A040C941A0498
:100080000C941A040C941A040C941A0420756C6FC6
:100090007A656E004C6F672074797023004E455569
:1000A0004C4F5A454E4F003D3D3D204B6F6E6563B2
:1000B000207A617A6E616D75203D3D3D0A0056796A
:1000C000736C6564656B3A20204E45524F5A484F19
:1000D000444E4500526F7A64696C3A20202020001B
:1000E000566974657A3A20202020205052415641AA
:1000F00020445241484100526F7A64696C3A202092
:10010000202000566974657A3A20202020204C4532
:100110005641204452414841005072617679206333
:1001200061733A20004C657679206361733A202030
:10013000002D2D2D20536F7568726E207A61766FB9
:100140006475202D2D2D00202D200043485942415B
:1001500000494E464F0052455345540043415320F9
:10016000505241564120445241484100434153209E
:100170004C455641204452414841004D455A49435F
:100180004153005354415254000A3D3D3D205A61B1
:100190007A6E616D207A61766F6475203D3D3D0019
:1001A0001209120912091200091209120912090092
:1001B00000001209120000000000091209000000EE
:1001C000436879626120446973706C656A2032000B
:1001D000436879626120446973706C656A203100FC
:1001E0004E6173746176656E6920646973706C65C5
:1001F0006A7500525443206E6572656167756A6561
:10020000005A61706E75746920005A6D656E613AAE
:100210002075766F6C6E6974205265736574002D5D
:100220002D3E00507265706E757469206D6F647537
:100230006C75000200002000230026002900000049
:10024000000203000A0B000000000504090800007A
:10025000000000000000000000000000000000009E
:100260002200250028002B00000021002400270088
:100270002A0002020202020202020404040404042C
:100280000404030303030303030301010101010148
:10029000010101020408102040800102040810201E
:1002A0004080010204081020408001020408102050
:1002B00040801F1C1F1E1F1E1F1F1E1F1E537973F1
:1002C00074656D003E20002720616B7469766E694D
:1002D000004D6F64756C2027005A6D656E61206D4E
:1002E0006F64756C7500202068656C700020206953
:1002F0006E666F00202070657266203C307C313E57
:1003000000202072746320595959592D4D4D2D44A8
:10031000442048483A4D4D3A535300202064656CC0
:10032000203C6D3E203C6B3E002020736574203CD9
:100330006D3E203C6B3E2048205B2C482C482E2EE6
:100340002E5D002020736574203C6D3E203C6B3E8A
:10035000202274657874220020206C697374205BFD
:100360006D5D205B6B5D000A5072696B617A793A52
:1003700000202020204C6F67207A617A6E616D75B5
:100380003A200020202020506F636574206D6F6438
:10039000756C753A2000290031303A30393A3033E3
:1003A000004A756C2020362032303235002028007B
:1003B0002B7635302D323058342D307832302D6157
:1003C0006C6C00524D5320302E322D72633100463A
:1003D000573A200053616B756C2053746F706B79C2
:1003E0002076352E300048573A2000205A61646547
:1003F0006A202768656C70272E0043687962612E39
:10040000004E657A6E616D79207072696B617A2E2B
:10041000004361732076205254433A20004E656EAB
:10042000616C657A656E6F2E20005A617A6E616D1F
:1004300020736D617A616E2E0043687962612E20AF
:1004400028486F646E6F74792070726573207465CC
:1004500078743F290043687962612E2028546578BA
:1004600074207072657320686F646E6F74793F29B1
:10047000004F4B2E205465787420756C6F7A656E32
:100480002E00436879626E792076737475702E0041
:100490004E616C657A656E6F3A20002D2D2D2D2DE5
:1004A0002D2D2D2D2D2D2D2D2D2D0020200000202A
:1004B000002020000020002020000020002D2D2DF5
:1004C0002D2D2D2D2D2D2D2D2D2D2D2D004D6F64F0
:1004D000756C204B6C6963204461746100507269D3
:1004E0006A61746F2027004B6F6E6563002D2D3598
:1004F000352D2D20005465726D696E616C3A202790
:1005000068656C70270053657269616C2031313504
:100510003230302F382F31626974004E617374614C
:1005200076656E6900454550524F4D20706C6E6186
:1005300021003A007C20002E0044656D6F202000D1
:10054000557074696D650044656D6F002D2D3E20FA
:100550007465726D696E616C0044656D6F00446511
:100560006D6F207365206C6F756369004B6F6E65EE
:1005700063005A61646F7374206F207679706973B9
:10058000005A727573656E6F004D6572656E6920F5
:100590007A727573656E6F004D657A696361730079
:1005A000533E4D657A6963617320204C2F503E4B5A
:1005B0006F6E65630053746F706B792062657A6942
:1005C0000053746F706B79207370757374656E79F6
:1005D000005265736574203E205A7061746B790017
:1005E0005374617274203E205A6168616A69207A8E
:1005F00061766F640053544F504B590052657365D8
:10060000742B4C2F50203E204D6F64756C79005236
:1006100065736574203E2046756E6B6365005354A8
:100620004F504B5920532D4C50004B6F6E6563005B
:10063000556B6F6E63656E6F004C657661206472FA
:10064000616861004C65766100507261766120647A
:1006500072616861005072617661005A61766F6400
:1006600020736B6F6E63696C004F64706F636574A9
:1006700020736B6F6E63696C005A727573656E6977
:10068000206F64706F637475004F64706F6365747E
:100690002062657A69005A6168616A656E206F64DC
:1006A000706F636574005A61646F7374206F207695
:1006B00079706973005A61766F64207A7275736518
:1006C0006E004D6572656E69207A727573656E6F26
:1006D000004D657A69636173005A61766F642062C8
:1006E000657A69004B6F6E63616B79204F4B002018
:1006F0002D452D2000202D452D2000503A434859EE
:10070000424100202D452D2000202D452D20004C5C
:100710003A4348594241004348594241206B6F6E69
:1007200063616B75005A61766F64207A6168616AF3
:10073000656E005265736574203E205A7061746B5B
:1007400079005374617274203E205A6168616A694D
:10075000207A61766F64005A41564F4400526573A7
:1007600065743E204D6572656E69207A61766F64AE
:10077000750053746172743E205A6168616A692021
:100780006F64706F632E004F44504F4345540052C6
:10079000657365742B4C2F50203E204D6F64756C33
:1007A00079005265736574203E2046756E6B6365F3
:1007B0000053544F504B59204855004B6F6E6563A2
:1007C00000206D73002040200050756C7A20004C92
:1007D0006F672070726970726176656E00004036D6
:1007E00011241FBECFEFD0E4DEBFCDBF13E0A0E0E9
:1007F000B1E0EAE0F6E800E00BBF02C007900D921E
:10080000A435B107D9F727E0A4E5B3E001C01D92F4
:10081000A53BB207E1F713E0C0EFD3E004C0219796
:10082000FE010E945F37CF3ED107C9F70E94063014
:100830000C94E0420C940000CF93DF93FC01DB01A9
:100840005481369614968C9114978150990B40E000
:10085000541303C0DF91CF91089514962D913C91CC
:1008600015978217930770F42D913C9111972115DC
:10087000310541F0280F391FE901288121934F5F8D
:100880000197E6CF20E0FACF2FB7F8946091A60742
:100890007091A7078091A8079091A9072FBF08958D
:1008A0009093B0078093AF0781E08093710110921D
:1008B000AE070E9444046093AA077093AB0780932D
:1008C000AC079093AD0708958FB7F8941092A507E1
:1008D0001092A3071092A4071092A2071092A107EA
:1008E0008FBF08952FB7F8944091A6075091A7079E
:1008F0006091A8077091A90780918400909185006C
:100900002FBF4093830650938406609385067093AF
:100910008606880F991F880F991F909382068093EF
:10092000810681E08093800608952FB7F894409166
:10093000A6075091A7076091A8077091A907809119
:100940008400909185002FBF40937C0650937D06D4
:1009500060937E0670937F06880F991F880F991FFA
:1009600090937B0680937A0681E0809379060895C0
:100970002FB7F8944091A6075091A7076091A80758
:100980007091A90780918400909185002FBF4093BA
:100990007506509376066093770670937806880FF5
:1009A000991F880F991F909374068093730681E0B6
:1009B0008093720608952FB7F8944091A60750913E
:1009C000A7076091A8077091A90780918400909172
:1009D00085002FBF40936E0650936F06609370069C
:1009E00070937106880F991F880F991F90936D0659
:1009F00080936C0681E080936B06089508954F9272
:100A00005F926F927F92AF92BF92CF92DF92EF92FE
:100A1000FF920F931F93CF93DF93FB01C080D18090
:100A2000E280F380FC0180819181A281B381C81AA8
:100A3000D90AEA0AFB0AC701B60128EE33E040E012
:100A400050E00E941E378B01CDE9D5E07D836C8399
:100A50008CE3482E512C612C712CCA01B901A301E1
:100A600092010E941E37B62E6B83CA01B901A30101
:100A700092010E941E37A62E6A83C701B60120E8A4
:100A80003EEE46E350E00E941E37F9013983288389
:100A9000C90168EE73E00E940A376E8394E6E92E7E
:100AA000F12CCF01B7010E940A37CB012AE030E0D8
:100AB000B9010E940A378F83CF01B9010E940A371A
:100AC000482FCB01B9010E940A37888749874AE03D
:100AD0008A2D642F0E94FE368A879B878B2D0E9469
:100AE000FE368C879D87C801B7010E940A376E8742
:100AF000C801B9010E940A37482FCB01B9010E94F1
:100B00000A378F87488BDF91CF911F910F91FF900C
:100B1000EF90DF90CF90BF90AF907F906F905F90FD
:100B20004F900895FA0190E024E1629FB0011124F2
:100B30002191211519F08431910509F40895DC0102
:100B4000A60FB71FA95EB94F2C930196F1CFCF9393
:100B5000DF93DA0114962C91149794E1981B2917CE
:100B600008F4922FE82FF0E084E1689FE00DF11D7A
:100B70001124E95EF94F20E030E0291718F0DF91E9
:100B8000CF91089514964D915C91159724173507D0
:100B900070F44D915C9111974115510541F0420F50
:100BA000531FEA01888181932F5F3F4FE6CF80E09A
:100BB000FACF0F931F93CF93DF938C01C42F062E90
:100BC000000C770B4AE050E087E196E00E94CF3DB1
:100BD0006C2FCC0F770B4AE050E081E296E00E9448
:100BE000CF3DD80114968D919C91C4E1D0E0C81BF3
:100BF000D90BD695C795C43128F4A80160E08C2F95
:100C00000E94A705DD27FE01EA5EF94F80E280839E
:100C1000D8011496ED91FC91E95EF94FEC0FFD1FA0
:100C20008083DF91CF911F910F91089542E061E0A1
:100C30000C94D90544E063E00C94D905FC01918142
:100C40006081262F30E0428150E0E2EBF2E081E06B
:100C5000891700F1933030F0862F8370811102C024
:100C60004F5F5F4FC9010396969587959695879537
:100C7000EDE6F1E06E9F90016F9F300D11242B5F28
:100C80003F4F820F931F840F951F67E070E00E9413
:100C90000A3708957491470F511D8F5F3196D8CF51
:100CA00080E090E008958091B5049091B404891B90
:100CB000990B08959091B4048091B5042FEF3FEF04
:100CC000981748F4E92FF0E0EC56FB4F208130E014
:100CD0009F5F9093B404C9010895E091B40480919A
:100CE000B504E81730F4F0E0EC56FB4F808190E05B
:100CF00008958FEF9FEF0895089508950895209126
:100D00009304260F3327331F21323105ECF4209151
:100D10009204FC0180E090E0243069F082E00895C4
:100D2000A09193042191AC014E585B4FA40FB52FB5
:100D3000B11D2C930196861798F380919304680F48
:100D40006093930480E0089581E00895CF93DF934A
:100D50000F92CDB7DEB7FC0169838091D90481156C
:100D6000F1F08091D604803250F081E090E09383DE
:100D7000828380E090E00F90DF91CF910895809181
:100D8000D704E82FF0E0EA54FB4F998190838F5FFE
:100D90008093D7048093D60481E090E0ECCF61E0AB
:100DA000CE0101960E947F06F7CFCF92DF92EF929D
:100DB000FF920F931F93CF93DF937C01CB018A01A6
:100DC0002091D9042115D9F0EB016B01C40ED51E79
:100DD000CC15DD0551F4C801DF91CF911F910F9122
:100DE000FF90EF90DF90CF9008956991D701ED913A
:100DF000FC910190F081E02DC7010995E9CF642FA6
:100E00000E947F06E8CF85ED8093BC008091BC00F6
:100E100084FDFCCF109292040895089508950895DA
:100E2000DC01ED91FC910684F785E02D40E009940A
:100E3000DC01ED91FC910684F785E02D41E00995F8
:100E400081E090E008952F923F924F925F926F92CF
:100E50007F928F929F92AF92BF92CF92DF92EF924A
:100E6000FF920F931F93CF93DF93CDB7DEB72997F0
:100E70000FB6F894DEBF0FBECDBFC12CD12C00E061
:100E8000209178012987A090790170907A01609073
:100E90007B0150907C0140907D0130907E0120903C
:100EA0007F01760110E0F701E95EF94FB080C701DC
:100EB00089539A4F4C01FC0180818B1561F1F985B2
:100EC000FD83AE827F82688659824A823B822C8271
:100ED0002091B5058FEF820F021708F4802F90E064
:100EE0003091B6053031E9F52430D9F521E030E014
:100EF0002C0F3D1F820F931FFC016081610F606802
:100F00008EEA95E00E9410076B2D8EEA95E00E9414
:100F10001807F401B0821F5FFFEFEF1AFF0A1431C8
:100F200011F60F5F24E1C20ED11C043009F0B9CFD5
:100F300029960FB6F894DEBF0FBECDBFDF91CF91DB
:100F40001F910F91FF90EF90DF90CF90BF90AF90E7
:100F50009F908F907F906F905F904F903F902F90D9
:100F6000089525E030E0C4CFDC0181E001C0880FA6
:100F70006A95EAF71C968C931C971A965C934E938D
:100F80001997ED91FC9111970484F585E02D60E0AF
:100F9000CD0109941F93CF93DF93DC0152968D917D
:100FA0009C915397009751F421E030E013963C93C5
:100FB0002E931297DF91CF911F9108951D96ED9179
:100FC000FC911E971C962C911C97322F30957FB761
:100FD00054964C915497142F127041FD21C0F894EF
:100FE000408143234083EC012197F1F748E0508191
:100FF00060FF1BC0522B5083EC012197F1F76695DF
:101000004A95A9F78081111591F0832380837FBFD2
:1010100052968D919C910197F1F781E090E0CACFB3
:101020006095F8944081422BDDCF5323E4CF822B8F
:10103000EDCF8FEF9FEF089580E090E008953FB7E8
:10104000F8948091270490912804A0912904B091EC
:101050002A0426B5A89B05C02F3F19F00196A11DB3
:10106000B11D3FBFBA2FA92F982F8827BC01CD01F2
:10107000620F711D811D911D42E0660F771F881F51
:10108000991F4A95D1F708954F925F926F927F9280
:101090008F929F92AF92BF92CF92DF92EF92FF9288
:1010A0000F931F93CF93DF938B01D82FC92F0E94EB
:1010B0001F08262F822E972E5C016801ED2EFC2E34
:1010C00005C0C114D104E104F10409F10E941F0814
:1010D0002B013C01481859086A087B088601DE2D5F
:1010E000CF2D31E0C31AD108E108F108282D792D60
:1010F000C50138EE830E33E0931EA11CB11C38EEFF
:10110000431633E0530661047104D8F6D3CFDF9160
:10111000CF911F910F91FF90EF90DF90CF90BF90F4
:10112000AF909F908F907F906F905F904F900895B9
:101130009C01019741F0220F331F220F331FC90179
:1011400005970197F1F70895CF93DF93EC014230B3
:1011500018F08C8188608C834F836887211529F073
:10116000413019F48C8184608C8364E670E080E007
:1011700090E00E9444086C8164FD5BC0E881F981C5
:101180000684F785E02D42E063E0CE01099584E90D
:1011900091E10E949808E881F9810684F785E02DA5
:1011A00042E063E0CE01099586E990E00E9498084C
:1011B000E881F9810684F785E02D42E063E0CE0105
:1011C000099586E990E00E949808E881F9810684F3
:1011D000F785E02D42E062E0CE01099586E990E0D6
:1011E0000E9498086C816062CE010E9410078CE317
:1011F00090E00E94980884E08D836CE0CE010E940C
:10120000100761E0CE010E94100780ED97E00E9478
:10121000980882E08E8366E0CE010E941007E88184
:10122000F9810484F585E02D6FEFCE01DF91CF9138
:1012300009946062CE010E94100784E991E10E9446
:1012400098086C816062CE010E94100786E990E0E8
:101250000E9498086C816062CE010E941007BECF88
:10126000CF93DF9390E0FC01EE56FD4F24918E5812
:101270009D4FFC0184918115D1F090E0880F991F5A
:10128000FC01E859FD4FA591B591FC01E25AFD4FD3
:10129000C591D5919FB7623069F4F8943C91822F43
:1012A000809583238C938881822B88839FBFDF91D5
:1012B000CF910895F8948C91822B8C93F7CF825024
:1012C0008A3038F5E82FF0E0E851FD4B0C945F3799
:1012D000809180008F7780938000089580918000B6
:1012E0008F7DF9CF8091B0008F778093B000089503
:1012F0008091B0008F7DF9CF809190008F7780939F
:1013000090000895809190008F7DF9CF84B58F77FC
:1013100084BD089584B58F7DFBCF1F93CF93DF935A
:10132000162F282F30E0F901E25CFD4F8491F9017E
:10133000EE56FD4FD491F901EE58FD4FC491C11501
:10134000A1F081110E945F09EC2FF0E0EE0FFF1F6A
:10135000E25AFD4FA591B5919FB7F8948C91111168
:1013600008C0D095D823DC939FBFDF91CF911F9108
:1013700008958D2B8C93F8CFDF92EF92FF920F930D
:101380001F93CF93DF938C01D62ED0E0F801848198
:10139000D81740F0DF91CF911F910F91FF90EF9000
:1013A000DF9008957801ED0EF11CF701C681868962
:1013B0008C1302C0D114E9F19EE0C534C9F07CF46D
:1013C000C03219F024F4C11108C090E011C080EDC2
:1013D0008C0F91ED9C0F8A3058F09FE009C09CE083
:1013E000C03531F09DE0C53519F09BE0CC34A9F74C
:1013F000F801A081B18162818381680F6D0F9295A0
:10140000907F690FED91FC9111970190F081E02D93
:10141000CD010995D1110AC0F8018581811531F0FE
:1014200061E0C03209F460E00E948D09F701868115
:10143000868BDF5FABCF60E08FE00E948D0960E0BC
:1014400082E10C948D09CF93DF93282F30E0F901CE
:10145000E25CFD4F8491F901EE56FD4FD491F90104
:10146000EE58FD4FC491C11581F081110E945F09B2
:10147000EC2FF0E0EE0FFF1FEC5CFD4FA591B59156
:10148000EC91ED2381E0E11101C080E090E0DF917B
:10149000CF910895FC01A48DA80FB92FB11DA35AB7
:1014A000BF4F2C91848D90E001968F739927848F84
:1014B000A689B7892C93A089B1898C9183708064A7
:1014C0008C93938D848D981306C00288F389E02D48
:1014D00080818F7D80830895FC01818D228D90E035
:1014E000805C9F4F821B91098F739927089587E82D
:1014F00096E00E946C0A9C0181E0232B09F480E0B5
:1015000008958AE893E00E946C0A9C0181E0232BF5
:1015100009F480E0089580E090E0892B29F00E9492
:10152000770A81110E94000080E090E0892B29F069
:101530000E94810A81110C9400000895FC01918D94
:10154000828D981731F0828DE80FF11D858D90E026
:1015500008958FEF9FEF0895FC01918D828D98176C
:1015600061F0A28DAE0FBF2FB11D5D968C91928D53
:101570009F5F9F73928F90E008958FEF9FEF089584
:10158000FC01538D448D842F90E0252F30E0821B89
:10159000930B541710F0CF96089501970895CF93A9
:1015A000DF93EC01888D81110FC0DF91CF910895F9
:1015B0000FB607FC0DC08C9185FF0AC0808185FFA6
:1015C00007C0CE010E944A0AAA89BB89E889F98925
:1015D0008C9185FDEDCF808186FFEACFE6CFEF923B
:1015E000FF920F931F93CF93DF93EC01F62E81E0D0
:1015F000888F9B8D8C8D98131AC0E889F98980811A
:1016000085FF15C09FB7F894EE89FF896083E8894C
:10161000F98980818370806480839FBF81E090E03E
:10162000DF91CF911F910F91FF90EF9008950B8D57
:1016300010E00F5F1F4F0F731127E02E8C8D8E155A
:1016400079F0EB8DEC0FFD2FF11DE35AFF4FF08287
:101650009FB7F8940B8FEA89FB8980818062DCCF89
:101660000FB607FCEBCFE889F989808185FFE6CFCB
:10167000CE010E944A0AE2CFFC01A089B1898C9177
:10168000A689B78982FD0FC09C91818D8F5F8F7372
:10169000228D821749F0A18DAE0FBF2FB11D5D962F
:1016A0009C93818F08958C910895CF92DF92EF9251
:1016B000FF920F931F93CF93DF937C016A0100E0A9
:1016C00010E00C151D0551F4C801DF91CF911F9159
:1016D0000F91FF90EF90DF90CF900895EB01D7012D
:1016E000ED91FC910190F081E02D6991C701099580
:1016F000892B51F30F5F1F4FBE01E3CF9091000183
:10170000891310C0E3E3F2E0E4919FEF90930001AE
:10171000E23089F028F4E11108C010926E0002C096
:10172000E330D1F060E00C948D0990916F009D7FC3
:1017300090936F00F7CF909170009D7F9093700011
:1017400091E09093B0009091B100987F9460909355
:10175000B1001092B300E6CF909171009D7F9093FD
:101760007100E0CF8093A00770939F0760939E075E
:1017700050939D0740939C0730939B0720939A07B3
:101780000E9444046093960770939707809398078C
:1017900090939907109295078CE00C947E0B20E0B3
:1017A00030E040E550E064EC79E081E00C94B20B6D
:1017B0000F931F932FB7F89480912C0490912D04D0
:1017C000A0912E04B0912F042FBF80938F06909389
:1017D0009006A0939106B093920687E896E00E9447
:1017E000AC0A8F3F980721F52FB7F89440912C044D
:1017F00050912D0460912E0470912F042FBF009101
:101800008F06109190062091910630919206401B10
:10181000510B620B730B00918B0610918C0620917B
:101820008D0630918E064017510762077307A8F2A4
:101830001F910F91089520919D0530919E052115CE
:10184000310509F457C08091A305811509F44CC0F6
:10185000805D80934C018091A405811509F446C0F8
:10186000805D80934D018091A505811509F440C0EC
:10187000805D80934E018091A605805D9AE3809300
:101880004F01909350018091A705811102C0232B35
:10189000D1F1805D809351018091A805805D809396
:1018A00052018091AB0590E2853008F49AE3909361
:1018B00053019091A905905D909354019091AA05D0
:1018C000905D909355019EE290935601805D8093C8
:1018D00057018091AC05805D809358018091AD05E2
:1018E000805D80935901089580E2B3CF80E2B9CF43
:1018F00080E2BFCF80E280934C0180934D018093C2
:101900004E0190E2BCCF80E2C5CF40E550E060E2FE
:1019100070E087E196E00C94CF3D90916B0080954C
:10192000892380936B0080916B00811105C08091A9
:1019300068008E7F80936800089590B1909334047E
:10194000EBE6F0E09081982B9083E8E6F0E0808170
:101950008160808308950F931F93CF9382E794E073
:10196000909367018093660107E616E0F801C08155
:1019700088E00E949D0C85E994E090936501809336
:10198000640180E10E949D0C88EB94E090936301D8
:101990008093620180E20E949D0C8BED94E0909315
:1019A000610180936001C867F801C08380E4CF9132
:1019B0001F910F910C949D0CFC01AC01425F5F4F95
:1019C0008FEF9FEF2191922728E0BC01880F991F8C
:1019D00077FF04C031E2832730E193272A95A9F7E6
:1019E0004E175F0779F70895CF93DF93EC010E94BC
:1019F000DC0C9C0181E04E855F854217530709F09E
:101A000080E0DF91CF910895CF93DF939C010696FC
:101A1000F901C481C20FD32FD11D6F71A62F660F9C
:101A2000BB0BA55BBE4F2C173D0719F4DF91CF917F
:101A30000895EDA1EA3331F44C91FC014193CF01BB
:101A40002197F1CFEF710E2E000CFF0BE55BFE4FDF
:101A50004081F3CFCF93C82F0E941B0CC11519F002
:101A60008AE3809353014CE451E063E086E00E94F6
:101A70009205C0919C056C2F85EE94E00E94040DA8
:101A80006C2F8BE195E0CF910C94040DFC01448107
:101A900055816081718187E896E00C94550B682F21
:101AA00087E896E00C94EF0A0F931F93CF93DF9390
:101AB0008C01EB01FE0164912196611521F0C801B2
:101AC0000E94EF0AF7CFDF91CF911F910F910895F8
:101AD0000C94EF0A2F923F924F925F926F927F92F7
:101AE0008F929F92AF92BF92CF92DF92EF92FF922E
:101AF0000F931F93CF93DF936C012B017A0100E0CA
:101B000010E03324339484E9682E84E0782E95EC39
:101B1000292ED60114968D919C91E701C01BD10B03
:101B20008C179D0708F4EC0121E0C7018C1B9D0B6D
:101B30000817190708F420E0F60190818C2FC132B4
:101B400008F080E2309192043111FCCF309292047F
:101B500020936C04FFEFF0936A0470926E0460921D
:101B60006D04109270042FEF280F20936F043092B1
:101B7000710420917104990F922B909371049091AC
:101B80006B049130F1F510926B0490917104909375
:101B9000BB009091BC0093FDF8CF2092BC009091C7
:101BA00092049130E1F390917004981710F48091B1
:101BB00070041092B4048093B5048C171D0671F460
:101BC0004201800E911EA12CB12CCA15DB05E9F44F
:101BD0000C0F1D1F0E151F0508F49BCFDF91CF9131
:101BE0001F910F91FF90EF90DF90CF90BF90AF903B
:101BF0009F908F907F906F905F904F903F902F902D
:101C0000089525EE2093BC00CACFD60111968D9180
:101C10009C91DC01ED91FC910284F385E02D099506
:101C2000F40181934F01FFEFAF1ABF0ACECF282FE7
:101C30003091D60481E0313208F042C080919204A4
:101C40008111FCCF9091D80442E0409392042093FC
:101C50006C042FEF20936A0446EB54E050936E041B
:101C600040936D041092700430936F0410927104CD
:101C700020917104990F922B9093710490916B04B1
:101C8000913029F510926B04909171049093BB00F0
:101C90009091BC0093FDF8CF95EC9093BC0090918F
:101CA00092049230E1F390916A049F3F49F0809151
:101CB0006A04803271F080916A04803361F483E0B9
:101CC0001092D7041092D6041092D904089595EE7C
:101CD000E4CF82E0F5CF84E0F3CFFC01838181156E
:101CE000A1F08181682B6083828191E09093D90477
:101CF0008093D8041092D7041092D60488E394E01D
:101D00000E94A60681E00C94170E0895FC01862F10
:101D10006485611599F0218532852115310521F4FD
:101D2000811107C060E005C021303105D9F781116C
:101D3000F9CF6587CF010E960C946D0E0895EF9242
:101D4000FF921F93CF93DF93EC01FC019C012C5F6A
:101D50003F4F80E060FF02C09589892B66953196E0
:101D6000E217F307B9F7413009F44C899D85892BB7
:101D7000142F182B7E018EE0E80EF11C6A89612B6E
:101D8000C7010E946D0E6A8960956123C701DF91CA
:101D9000CF911F91FF90EF900C946D0E0F931F93B6
:101DA000CF93DF93D82FC92F142F062F0F7040E049
:101DB000123031F062956F70412F0E949F0E412FBB
:101DC000602F8D2F9C2FDF91CF911F910F910C943D
:101DD0009F0E1092B4041092B5041092D704109282
:101DE000D6041092920481E080936C0410926B04EC
:101DF00061E081E10E948D0961E080E10E948D092E
:101E0000E9EBF0E080818E7F808380818D7F80830D
:101E100088E48093B80085E48093BC008EE796E068
:101E200090934504809344048DE796E09093480492
:101E3000809347040895CF93DF93EC018B81811544
:101E4000A1F0888191E09093D9048093D8041092F6
:101E5000D7041092D60481E00E94170E982F81E0DB
:101E6000911180E0DF91CF9108950E94E90E81E009
:101E70008B83CE010E941B0F8111E3CFF3CFEF9232
:101E8000FF920F931F93CF93DF93EC01162F042F34
:101E9000F22E8B85888B0E94E90E8889EE24E394CC
:101EA000E092D9048093D8041092D7041092D604FB
:101EB00081E00E94170E811111C0E98A88E394E045
:101EC0000E945A068E878989811549F01F861C82D7
:101ED00060E0CE010E960E946D0E01C0198A2F2D72
:101EE000402F612FCE01DF91CF911F910F91FF9075
:101EF000EF900C94A408EF92FF920F931F93CF934F
:101F0000DF9390E1899F80011124EB01CB01409682
:101F10007C01C8010E948E4189930F5F1F4FCE152F
:101F2000DF05B9F7DF91CF911F910F91FF90EF90EF
:101F30000895DF92EF92FF920F931F93CF93DF9359
:101F4000CDB7DEB760970FB6F894DEBF0FBECDBF3A
:101F5000082FF62EE42ED52E11E0BE016F5F7F4FC5
:101F60008FEF810F0E947B0FCE0101960E94F40C2F
:101F70008115F1F0998190131BC09A819F77F91216
:101F800017C09CE0FE013396AE2DBD2D01900D9241
:101F90009A95E1F760960FB6F894DEBF0FBECDBFFD
:101FA000DF91CF911F910F91FF90EF90DF900895F7
:101FB0001F5F103491F680E0EDCF1F93CF93DF9336
:101FC000FC01EA01122F848195818417950710F492
:101FD00080E01DC0808191E09093D9048093D80463
:101FE0001092D7041092D60481819281DC01ED9188
:101FF000FC910280F381E02D0995C817D90741F7BC
:10200000812F0E94170E982F81E09111E1CFDF916F
:10201000CF911F910895EF92FF920F931F93CF934B
:10202000DF9300D000D000D00F92CDB7DEB78C0187
:102030001982E090DE04F090DF0420E041E050E0FF
:10204000BE016F5F7F4FC7010E94DD0F811541F018
:1020500047E050E0BE016F5F7F4FC7010E946A0DED
:1020600099819F773A814B815D812E812F776F8196
:10207000862F82958F70782F770F770F871B880FA9
:10208000860FF8018083822F82958F70682F660FEC
:10209000660F861B880F820F8183852F82958F7034
:1020A000282F220F220F821B880F850F8283842FF7
:1020B00082958F70282F220F220F821B880F840F8A
:1020C0008383832F82958F70282F220F220F821BEC
:1020D000880F830F8483892F82958F70282F220F7A
:1020E000220F821B880F890F8583C80127960FB6A0
:1020F000F894DEBF0FBECDBFDF91CF911F910F913E
:10210000FF90EF900895CF92DF92FF920F931F936D
:10211000CF93DF9390E1899F80011124EB01CB01E4
:1021200040966C01F990C8010E948E41F81621F08A
:102130006F2DC8010E9496410F5F1F4FCC15DD0522
:1021400089F7DF91CF911F910F91FF90DF90CF9092
:102150000895CF93DF93EC0188819981009711F066
:102160000E945B3C198218821D821C821B821A828B
:10217000DF91CF910895009711F00C945B3C089586
:102180000F931F93CF93DF93EC018B01888199818B
:10219000009729F02A813B812617370790F4B80170
:1021A0006F5F7F4F0E94EC3CFC0180E0309751F064
:1021B000F983E8831B830A838C819D81892B09F431
:1021C000108281E0DF91CF911F910F910895DC0182
:1021D000FB014481558114968D919C91159784172C
:1021E000950778F08D919C91009759F060817181ED
:1021F0006115710531F00E94F13D9C0181E0232BB6
:1022000009F080E00895AF92BF92CF92DF92EF92F3
:10221000FF920F931F93CF93DF938C01DC01ED901E
:10222000FC901197E114F104B9F11496CD91DC9171
:10223000209791F157016501F50181915F01082E09
:10224000000C990B0E94F139892BA9F72197CE0D2B
:10225000DF1D8881082E000C990B0E94F139892B13
:1022600031F5AE014F5F5F4F4C195D09D8011596EE
:102270005C934E931497EC14FD0420F4B601C7014F
:102280000E94C63DD801ED91FC91119714968D9155
:102290009C91E80FF91F1082DF91CF911F910F9150
:1022A000FF90EF90DF90CF90BF90AF900895CC1546
:1022B000DD05B8F22197CDCFEF92FF920F931F93D8
:1022C000CF93DF93EC017B01FB0101900020E9F744
:1022D00031978F01061B170BB8010E94C0108111A6
:1022E00009C0CE01DF91CF911F910F91FF90EF9028
:1022F0000C94A9101D830C83B70188819981DF910B
:10230000CF911F910F91FF90EF900C94EA3DFB014C
:10231000EF2B51F0DB010D900020E9F71197AD0193
:10232000461B570B0C94550B08956F927F928F921A
:102330009F92AF92BF92CF92DF92EF92FF920F9354
:102340001F93CF93DF93CDB7DEB7A1970FB6F89465
:10235000DEBF0FBECDBF3C01142F052F962E872E5A
:1023600019A2223008F42AE05E0181E2A80EB11C15
:10237000C22ED12CE12CF12C612F702F892D982D9C
:10238000A70196010E941E37812F902FA92DB82DED
:10239000122F032F942E852E6A3014F5605DF501FF
:1023A00062935F018C159D05AE05BF0528F7BF013F
:1023B000C3010E948711A1960FB6F894DEBF0FBE2D
:1023C000CDBFDF91CF911F910F91FF90EF90DF90E4
:1023D000CF90BF90AF909F908F907F906F90089517
:1023E000695CDDCF482F50E060E070E02AE087E8CC
:1023F00096E00C94951166E372E00C9487111F939C
:10240000CF93DF93D62FC72F142F0E94460D64EC75
:1024100072E087E896E00E94540D8D2F9C2F1115D5
:1024200049F00E94460D87E896E0DF91CF911F9119
:102430000C94FB11DF91CF911F910C94460DCF921C
:10244000DF92FF920F931F93CF93DF9300D000D0C2
:1024500000D0CDB7DEB78C01F62E2091DA0480E1F2
:10246000289FB001112460527E4F1C821B821E8265
:102470001D821A821982CE0101960E945C11C980C8
:10248000DA804F2DB801CE0101960E94FF11C601DE
:102490000F900F900F900F900F900F90DF91CF91B2
:1024A0001F910F91FF90DF90CF900C94BB10CF93B2
:1024B000DF93D82FC92F0E9487118D2F9C2FDF917A
:1024C000CF910C94FB11CF93DF93D82FC92F0E948B
:1024D000540D8D2F9C2FDF91CF910C94FB110C94F8
:1024E00087112F923F924F925F926F927F928F92BD
:1024F0009F92AF92BF92CF92DF92EF92FF920F9393
:102500001F93CF93DF93CDB7DEB760970FB6F894E4
:10251000DEBF0FBECDBF262EC72ED82EE92E342EFD
:10252000F22E28EE33E040E050E00E941E37562E97
:10253000472E8CE3882E912CA12CB12CCA01B90115
:10254000A50194010E941E37762E672ECA01B9019B
:10255000A50194010E941E37962E872EF11431F0AA
:1025600069E372E087E896E00E946F128E010F5FC8
:102570001F4F311409F445C04F925F926F927F92C2
:102580008F929F92622D7C2D8D2D9E2D20E83EEE08
:1025900046E350E00E941E373F932F938CE392E076
:1025A0009F938F931F930F930E940E3E0FB6F89444
:1025B000DEBF0FBECDBFB80187E896E00E946F1264
:1025C000F11431F060E572E087E896E00E946F1246
:1025D00060960FB6F894DEBF0FBECDBFDF91CF91EE
:1025E0001F910F91FF90EF90DF90CF90BF90AF9031
:1025F0009F908F907F906F905F904F903F902F9023
:1026000008954F925F926F927F928F929F9281E492
:1026100092E09F938F931F930F930E940E3EC6CF1D
:10262000EF92FF920F931F93CF93DF93EC018B01F7
:102630006115710569F0FB0101900020E9F7319700
:102640007F01E61AF70AB7010E94C010811109C084
:10265000CE01DF91CF911F910F91FF90EF900C94DD
:10266000A910FD82EC82B80188819981DF91CF9118
:102670001F910F91FF90EF900C94EA3DFC01448173
:1026800050E060E270E006960C94CF3DCF93DF936C
:10269000C0919205D09193052097D1F46DE875E033
:1026A00089E895E00E94FF040E941B0C81E595E0FB
:1026B0000E943E13C0919C056C2F8BE195E00E9417
:1026C000040D6C2F85EE94E0DF91CF910C94040DF6
:1026D00068E975E084E995E00E94FF040E941B0C04
:1026E000219721F74CE451E063E08AE00E949205D3
:1026F000DDCF8F929F92AF92BF92CF92DF92EF92F7
:10270000FF920F931F93CF93DF936B017C01A7017F
:102710009601C701B6010E94DB4262E572E08111B9
:1027200014C0C701B6010E94D14266E572E0892B50
:1027300061F42FEF3FEF4FE75FE4C701B6010E945E
:10274000CC42181694F46AE572E087E896E0DF91CF
:10275000CF911F910F91FF90EF90DF90CF90BF909E
:10276000AF909F908F900C9487112FEF3FEF4FE722
:102770005FECC701B6010E949E3A87FDE4CF20E0DE
:1027800030E0A901C701B6010E949E3A87FF09C047
:102790006DE287E896E00E94680DF7FAF094F7F88A
:1027A000F0942EE632E143E05AE3C701B6010E94FD
:1027B000BF416B017C010E949D428B01D82FC92F24
:1027C0000E94A33A9B01AC01B601C7010E94BE4121
:1027D0006B017C012AE0A8016D2F7C2F87E896E031
:1027E0000E9495116EE287E896E00E94680DC3E0B2
:1027F00020E030E040E251E4B601C7010E94043B12
:10280000F62E072F182FD92F0E949D424B01A12C85
:10281000B12C2AE0B501A40187E896E00E94951149
:10282000C501B4010E94A33A9B01AC016F2D702F2A
:10283000812F9D2F0E94BE416B017C01CA95C1F67C
:10284000DF91CF911F910F91FF90EF90DF90CF908C
:10285000BF90AF909F908F9008952F923F924F928C
:102860005F926F927F928F929F92AF92BF92CF9220
:10287000DF92EF92FF920F931F93CF93DF9300D0DD
:1028800000D00F92CDB7DEB769E871E087E896E037
:102890000E9463122091240785E297E09B838A833C
:1028A000FC0180E0812C912C5401C12CD12C7601AB
:1028B00044244A94542C32018213C1C09FEF49161C
:1028C000590669067906C1F0D701C601C814D904B2
:1028D000EA04FB0410F4D501C4010097A105B10579
:1028E00059F084199509A609B709E1E0E9838F3702
:1028F0009E4EA643B10508F41982212C312C8091FB
:1029000024072816310408F4B2C09FEF491659066F
:102910006906790609F476C0C114D104E104F10412
:1029200009F470C081149104A104B10409F46AC0CF
:10293000D701C60184199509A609B7098A839B8323
:10294000AC83BD83D501C40184199509A609B709D3
:102950002C013D0187E896E00E94FB1161E371E0E4
:1029600087E896E00E94631265E271E087E896E0EE
:102970000E94540D20E049816A817B818C819D8178
:102980000E94711287E896E00E94FB1169E171E0F4
:1029900087E896E00E94540D20E04981C301B2010E
:1029A0000E94711287E896E00E94FB118A819B8148
:1029B000AC81BD8184159505A605B70508F0AEC0AC
:1029C00063E071E087E896E00E94631267EF70E0D1
:1029D00087E896E00E94540DC501B4016C197D0989
:1029E0008E099F090E94A33A20E030E04AE754E4B0
:1029F0000E942B420E9479136EE572E087E896E010
:102A00000E94571267EA70E087E896E00F900F90F7
:102A10000F900F900F90DF91CF911F910F91FF902A
:102A2000EF90DF90CF90BF90AF909F908F907F906E
:102A30006F905F904F903F902F900C946312948111
:102A4000913039F440805180628073808F5F379677
:102A500033CF933029F4C080D180E280F380F6CF69
:102A60009430A1F780809180A280B380EFCFAA81BB
:102A7000BB816D917D918D919C9164197509860939
:102A8000970921E049810E9471126BEA72E087E8A0
:102A900096E00E946F12AA81BB811496EC91E150DE
:102AA000E73058F4F0E0EE50FD4B0C945F3763E8EC
:102AB00071E087E896E00E94540DEA81FB81058170
:102AC00016810115110559F067E471E087E896E079
:102AD0000E94540DB80187E896E00E946F1287E8C3
:102AE00096E00E94FB11FFEF2F1A3F0A8A819B811B
:102AF00007969B838A8303CF6BE771E0DACF6CE69E
:102B000071E0D7CF6CE571E0D4CF66E571E0D1CF4D
:102B100061E571E0CECF6BE471E0CBCF8A819B8120
:102B2000AC81BD81481659066A067B0698F460EEB2
:102B300070E087E896E00E94631264ED70E087E839
:102B400096E00E94540DC701B601681979098A09F7
:102B50009B0948CF6EEB70E087E896E00E94631215
:102B600051CFEF92FF920F931F93CF93DF93EC011E
:102B70008B01CB010E94BD377C01BC01CE010E94BC
:102B8000C010811109C0CE01DF91CF911F910F912B
:102B9000FF90EF900C94A910EC82FD82B80188811F
:102BA0009981DF91CF911F910F91FF90EF900C943D
:102BB000B6370F931F93CF93DF9300D000D000D090
:102BC000CDB7DEB7E2E9F5E082E090E09183808363
:102BD0008BE6828768E975E084E995E00E94FF044E
:102BE00081E00E942A0D1C821B821E821D821A8295
:102BF000198260E376E0CE0101960E94B115098149
:102C00001A81CE0101960E941A06C8010E94BB10CB
:102C100084E090E00F900F900F900F900F900F9026
:102C2000DF91CF911F910F910C9450046F927F927E
:102C30008F929F92AF92BF92CF92DF92EF92FF92CC
:102C40000F931F93CF93DF93CDB7DEB7E1970FB606
:102C5000F894DEBF0FBECDBF8091AF079091B00753
:102C60008930910509F449C08A309105C1F0892B5A
:102C700009F450C0E1960FB6F894DEBF0FBECDBF89
:102C8000DF91CF911F910F91FF90EF90DF90CF9048
:102C9000BF90AF909F908F907F906F9008951C820F
:102CA0001B821E821D821A8219826CE675E0CE019B
:102CB00001960E94B11509811A8161E0CE01019649
:102CC0000E941F12C8010E94BB108BE090E0E196A9
:102CD0000FB6F894DEBF0FBECDBFDF91CF911F912D
:102CE0000F91FF90EF90DF90CF90BF90AF909F90AB
:102CF0008F907F906F900C9450040E94850C81E51A
:102D000095E00E943E138BE195E00E943E1380E027
:102D100090E0DDCF8091E404811509F4ABCF85E12B
:102D2000E0E8F1E0DE01119601900D928A95E1F75D
:102D3000CE018C960E940B10D9A8A8A8BFA41F9200
:102D4000DF921F92AF921F92BF9281E692E09F9313
:102D50008F938E010A5E1F4F1F930F930E940E3EAA
:102D6000A80161E086E00E949205ECA4F12C20E32A
:102D7000E21A28EFF20A9DA4CEA4CE018C960E94FE
:102D80001E06FF92EF921F929F921F92CF9290E0A9
:102D90009C01220F331F820F931FFE0131968E0F6D
:102DA0009F1F9F938F938FE692E09F938F931F9324
:102DB0000F930E940E3EA80162E083E00E949205FC
:102DC0001F92DF921F92AF921F92BF9280E892E013
:102DD0009F938F931F930F930E940E3E6E01FDE110
:102DE000CF0ED11C7E0125E2E20EF11C0FB6F89445
:102DF000DEBF0FBECDBFD701F601702E612E470199
:102E000082918D930E171F07D9F74091E90450E086
:102E1000B4018BEE94E00E94C63D1F92AF921F92C8
:102E2000BF928DE892E09F938F936F927F920E9462
:102E30000E3E0FB6F894DEBF0FBECDBFF6018291F5
:102E40006F01F70181937F010C151D05B9F74091C2
:102E5000550550E0B40187E595E00E94C63D0ACFD4
:102E6000CF92DF92EF92FF920F931F93CF93DF9356
:102E7000CDB7DEB72A970FB6F894DEBF0FBECDBF31
:102E80008091AF079091B00789309105E9F18A30C0
:102E9000910591F0892B09F493C02A960FB6F89406
:102EA000DEBF0FBECDBFDF91CF911F910F91FF907D
:102EB000EF90DF90CF9008951C821B821E821D82AE
:102EC0001A8219826EE575E0CE0101960E94B11555
:102ED00009811A8161E0CE0101960E941F12C8018A
:102EE0000E94BB108BE090E02A960FB6F894DEBFEC
:102EF0000FBECDBFDF91CF911F910F91FF90EF904B
:102F0000DF90CF900C9450040E94850C1C821B8291
:102F10001E821D821A82198269E575E0CE01019632
:102F20000E94B11509811A81CE0101960E941606F0
:102F3000C8010E94BB101C821B821E821D821A8245
:102F400019826CE475E0CE0101960E94B1150981E9
:102F50001A81AE014F5F5F4F63E084E00E94A705D6
:102F6000C8010E94BB104091E90450E06FE272E09A
:102F70008BE095E00E94C63D4091550550E06BE224
:102F800071E087E795E00E94C63D40911F0550E043
:102F90006BE171E081E495E00E94C63D10928905E5
:102FA00010928A0510928B0510928C05109288055C
:102FB000109287058BE68093910580E090E094CF96
:102FC00080913B01811581F110923B0181E090E0FD
:102FD000909388058093870588E68093910588EE15
:102FE000C82E83E0D82EE12CF12C0E944404A701C6
:102FF00096010E941E37672B682B692BB1F70E9440
:1030000044046093890570938A0580938B0590939F
:103010008C050E94640428E933E040E550E06CED43
:1030200075E083E00E94B20B809168018115F9F090
:10303000109268018091E20491E089278093E20474
:103040001C821B821E821D821A82198267E475E02F
:10305000CE0101960E94B11509811A81CE01019617
:103060000E941606C8010E94BB100E94CF0B8091DF
:103070000901811531F0109209011092E1040E94BA
:10308000CF0B80911201811571F01092120181E035
:103090008093E10424E630E040E550E060ED77E025
:1030A00083E00E94B20B8091E304811105C08091FE
:1030B000E104811509F450C00E9444046F837887AD
:1030C00089879A87BE01695F7F4F89E895E00E94F2
:1030D000FF040E941B0C4CE451E061E086E00E947A
:1030E000920580918705909188051C821B821E8223
:1030F0001D821A82198260E475E0892B11F069E360
:1031000075E0CE0101960E94B11509811A81AE01C8
:103110004F5F5F4F61E080E00E94A705C8010E94F9
:10312000BB1010919105612F81E595E00E94040D7F
:10313000612F8BE195E00E94040D612F85EE94E0F4
:103140000E94040D8091E304811531F067E375E07E
:1031500087E896E00E94540D8091E404811509F1FE
:1031600064E375E087E896E00E94540D0E944404F1
:10317000AB01BC012AE087E896E00E94951187E840
:1031800096E02A960FB6F894DEBF0FBECDBFDF9152
:10319000CF911F910F91FF90EF90DF90CF900C9403
:1031A000FB118091E004811509F477CE62E375E0AC
:1031B00087E896E02A960FB6F894DEBF0FBECDBF23
:1031C000DF91CF911F910F91FF90EF90DF90CF9003
:1031D0000C94540D0F931F93CF93DF9300D000D026
:1031E00000D0CDB7DEB70E94850C1C821B821E82E8
:1031F0001D821A8219826BE175E0CE0101960E9450
:10320000B11509811A81CE0101960E941606C801E6
:103210000E94BB101C821B821E821D821A82198290
:1032200066E075E0CE0101960E94B11509811A8110
:10323000AE014F5F5F4F62E080E00E94A705C801CA
:103240000E94BB101C821B821E821D821A82198260
:1032500065EF74E0CE0101960E94B11509811A81D3
:10326000AE014F5F5F4F63E082E00E94A705C80197
:103270000E94BB101C821B821E821D821A82198230
:103280006DEE74E0CE0101960E94B11509811A819C
:10329000BE016F5F7F4F85EE94E00E941C04C80161
:1032A0000E94BB1081E595E00E943E138BE195E002
:1032B0000F900F900F900F900F900F90DF91CF9184
:1032C0001F910F910C943E13CF92DF92FF920F93B8
:1032D0001F93CF93DF9300D000D000D0CDB7DEB7DF
:1032E0008C01F62E1C821B821E821D821A8219827C
:1032F0006DEB72E0CE0101960E94B115C980DA80B3
:103300004F2DB801CE0101960E94FF11C6010F900A
:103310000F900F900F900F900F90DF91CF911F9112
:103320000F91FF90DF90CF900C94BB100F931F93E1
:10333000CF93DF9300D000D000D0CDB7DEB7E5E269
:10334000F7E08FEF9FEFDC0180839183A283B3834B
:10335000148216821582379627E0E539F207A1F725
:10336000109224071C821B821E821D821A821982DF
:103370006FEC77E0CE0101960E94B11509811A81A8
:1033800061E0CE0101960E946419C8010F900F9070
:103390000F900F900F900F90DF91CF911F910F9191
:1033A0000C94BB108F929F92AF92BF92CF92DF92FC
:1033B000EF92FF920F931F93CF93DF9300D000D033
:1033C00000D0CDB7DEB78C01DB01FA018FB7F894DE
:1033D0008D909D90AD90BC90E080F1808FBFF80102
:1033E00081819281A381B481A5019401281B390BAD
:1033F0004A0B5B0BDA01C901278182179105A105F0
:10340000B10508F47EC081829282A382B482F682E2
:10341000E58281E080831C821B821E821D821A82CB
:10342000198269EC77E0CE0101960E94B115C9803E
:10343000DA8060E0CE0101960E946419C6010E9404
:10344000BB10F801608587E896E00E94680D085679
:10345000114051F48091AF079091B007892B21F46E
:103460008BE290E00E944F0D65EC77E087E896E0F4
:103470000E94540D2AE0B501A40187E896E00E945D
:1034800095118EE290E00E944F0DC70164E670E056
:103490000E940A37605D7F4F87E896E00E94EF0A3E
:1034A0002AE030E0C701B9010E940A378C01CB0144
:1034B000B9010E940A37BC01605D7F4F87E896E042
:1034C0000E94EF0AB801605D7F4F87E896E00E9496
:1034D000EF0A61EC77E087E896E00F900F900F908D
:1034E0000F900F900F90DF91CF911F910F91FF9050
:1034F000EF90DF90CF90BF90AF909F908F900C9403
:1035000063120F900F900F900F900F900F90DF911C
:10351000CF911F910F91FF90EF90DF90CF90BF90D0
:10352000AF909F908F9008957F928F929F92AF92CD
:10353000BF92CF92DF92EF92FF920F931F93CF93A0
:10354000DF93CDB7DEB766970FB6F894DEBF0FBE38
:10355000CDBF982EB62E742E852EA12C8E010F5F16
:103560001F4FC982DA82B8018A2D0E947B0FC98061
:10357000DA80C8010E94F40C7801811579F19C1061
:103580002DC08D2D8F77B81229C0BD1083C08CE05F
:10359000E72DF82DDE01139601900D928A95E1F743
:1035A000C8010E94DC0C988B8F87B8018A2D0E947D
:1035B000831081E066960FB6F894DEBF0FBECDBFD4
:1035C000DF91CF911F910F91FF90EF90DF90CF90FF
:1035D000BF90AF909F908F907F900895A39480E4C8
:1035E000A812BFCF10E0C982DA82B701812F0E94F2
:1035F0007B0FC980DA80C7010E94F40C8115B9F0F5
:103600001F5F103481F700E0C982DA82B701802F92
:103610000E947B0FC980DA80C7010E94F40C8115DB
:1036200011F0C7FC1AC00F5F003471F71FEF0FEFE6
:103630008CE0E72DF82DDE01139601900D928A950E
:10364000E1F79982BA82C7010E94DC0C988B8F87C0
:103650001F3F29F0B701812FAACF1FEFE9CFB70194
:10366000802F0F3F09F0A3CF1C8A1B8A1E8A1D8A58
:103670001A8A198A65E275E0CE0141960E94B11559
:1036800009891A8961E0CE0141960E946419C80136
:103690000E94BB1080E08ECF2F923F924F925F929C
:1036A0006F927F928F929F92AF92BF92CF92DF9252
:1036B000EF92FF920F931F93CF93DF93CDB7DEB7B7
:1036C000C254D1090FB6F894DEBF0FBECDBF8091B2
:1036D000AF079091B0078B30910519F18A309105B1
:1036E000D1F51C821B821E821D821A82198267EE0E
:1036F00074E0CE0101960E94B11509811A8161E042
:10370000CE0101960E941F12C8010E94BB1085EED7
:1037100094E00E943E138BE090E09093B00780937A
:10372000AF07CE5BDF4F0FB6F894DEBF0FBECDBF45
:10373000DF91CF911F910F91FF90EF90DF90CF908D
:10374000BF90AF909F908F907F906F905F904F90C1
:103750003F902F900895099791F40E94EA1887E806
:1037600096E00E946C0A892B29F41092B0071092FF
:10377000AF07D7CF87E896E00E94AC0AF0CF87E882
:1037800096E00E946C0A892B61F21AA619A618A667
:103790001FA21CA61BA66E0127E2C20ED11C68E365
:1037A00072E0C6010E945C11EFA0F8A40BA51CA555
:1037B0000E94D80B9C01CCAEDDAE2F3F320721F02A
:1037C0002A30310509F0ABC1F8A6EFA21CA70BA760
:1037D0008CAD9DAD0E9403112FA038A4EBA4FCA4D6
:1037E0001C821B821E821D821A8219826DED74E07A
:1037F0008E010F5F1F4FC8010E94B115C980DA808A
:1038000060E0C8010E941F12C6010E94BB108CAD6F
:103810009DAD0E94460D68E972E087E896E00E943F
:1038200057121C821B821E821D821A8219826AE92B
:1038300072E0C8010E945C11C980DA80B8018CADC9
:103840009DAD0E94E710982EC6010E94BB109114F6
:1038500009F4B1C18FEF9FEF9E8B8D8B9AA389A343
:10386000CE0181969F938F930C979F938F938FE9AF
:1038700092E09F938F933F922F920E943E3E6DEC79
:1038800074E087E896E00E9463126DEB74E087E8CD
:1038900096E00E9463120FB6F894DEBF0FBECDBF54
:1038A000712C912C4EEA54E02FEA34E08BEA94E03C
:1038B0004EAF5FAF21962FAF219722963FAF229751
:1038C000682E23969FAF23975E01BFE0AB0EB11C1D
:1038D000B801872D0E947B0FC8010E94F40C81154E
:1038E00009F471C0D980D7FC6EC08D899E8997FD7F
:1038F00004C0D816190609F066C04A80C42CE894A2
:10390000C7F889A19AA197FD04C0C816190609F045
:103910005AC06AEA72E087E896E00E946F12E4E615
:103920006AEB74E0DE1638F4FAE067EB74E0DF1659
:1039300010F06BEB74E087E896E00E94540D8D2D3B
:103940000E94F2116AEA72E087E896E00E946F1224
:1039500024E6A4EBB4E0BD01C21648F43AE081EBE2
:1039600094E0BC01C31618F0E5EBF4E0BF0187E872
:1039700096E00E94540D8C2D0E94F21180E290E09E
:103980000E944F0D47FEEDC062E287E896E00E947C
:10399000680D9E012D5F3F4F6901D6016D916D014C
:1039A000611539F087E896E00E94680DAC14BD04FB
:1039B000A1F762E287E896E00E94680D87E896E04A
:1039C0000E94FB119394739420E4721281CF91149E
:1039D00031F06BE974E087E896E00E94631260E9D9
:1039E00074E087E896E00E94540D892D0E94F21140
:1039F00087E896E00E94FB11992493941C821B8215
:103A00001E821D821A8219826DEA72E0C8010E942C
:103A10005C11C980DA80B8018CAD9DAD0E94E710C1
:103A2000782EC6010E94BB10711409F42CC1188EA7
:103A30001F8A1A8E198E1E8A1D8A6E0135E1C30EE9
:103A4000D11C68E372E0C6010E945C1162E874E078
:103A5000C6010E94B115ED88FE88CE018D969F9318
:103A60008F930C979F938F9382EB92E09F938F930A
:103A70003F922F920E943E3E0FB6F894DEBF0FBEDB
:103A8000CDBF3601029709F0B8C060E270E0C10115
:103A90000E94D63D009709F4B0C060E270E0019644
:103AA0000E94D63D009709F4A8C060E270E001963C
:103AB0000E94D63DDC01892B09F49FC0FD018D9148
:103AC0008032E1F3823209F078C06D0162E270E089
:103AD000CD010E94D63DAC01892B09F48EC08CE04B
:103AE000F80111928A95E9F74C195D094D3051059D
:103AF00014F04CE050E0B601C8010E94FF3D6DA5F6
:103B00006068A80189A10E94941A61E774E081119C
:103B100002C065E574E0C3010E94B1156CC0298341
:103B20001A8268013FEFC31AD30AF8A6EFA21CA7B6
:103B30000BA7B6018CAD9DAD0E94C010EFA0F8A4FC
:103B40000BA51CA5811549F0BE016F5F7F4FC70112
:103B5000800F911F0E94EA3D86010E94D80B9C01B4
:103B60002CCEFE0133962F01D12CD201CD902D0108
:103B7000B4E66EAD7FADCB1668F4EAE0662D239611
:103B80007FAD2397CE1630F021966FAD2197229608
:103B90007FAD229787E896E00E94540D8C2D0E94FD
:103BA000F211D394FCE0DF1609F408CF8CE290E028
:103BB0000E944F0DDACF912C21CF8CE0D8011D92BD
:103BC0008A95E9F768014E01BDE08B0E911C80815A
:103BD000811519F08C149D04C1F56DA56F77A801AE
:103BE00089A10E94941A811509F44AC06CEB72E015
:103BF000C3010E941013ED88FE88FE8AED8AC3017E
:103C00000E94460D87E896E00E94FB11C7010E94C2
:103C1000BB10C101CE5BDF4F0FB6F894DEBF0FBE05
:103C2000CDBFDF91CF911F910F91FF90EF90DF906B
:103C3000CF90BF90AF909F908F907F906F905F904C
:103C40004F903F902F900C94BB105F013196D5019F
:103C50008C918032D1F3C5010E9468378115B1E0A3
:103C60009B0758F6F60181936F016CE270E0C50185
:103C70000E94D63DFC01892B09F4AFCF3196A7CF26
:103C800069E374E048CF1C821B821E821D821A8267
:103C9000198261ED72E0C8010E945C11C980DA806E
:103CA000B8018CAD9DAD0E94E710682EC6010E9440
:103CB000BB10611409F44AC0CE018D969F938F9377
:103CC0000C979F938F9386ED92E09F938F933F92F3
:103CD0002F920E943E3E0FB6F894DEBF0FBECDBFBE
:103CE0000297A1F5CDA4D9A08982B801872D0E94A1
:103CF0007B0F8980C8010E94F40C982E811541F138
:103D0000D81026C08A818F77C81222C08CE0FE01AD
:103D10007596DF01282F1D922A95E9F7DE0113968B
:103D200001900D928A95E1F78D2D80688983C801F5
:103D30000E94DC0C988B8F87B801872D0E9483101E
:103D40006AE274E087E896E00E946312712C0EC06C
:103D5000739430E47312C8CF6DE174E087E896E0A5
:103D60000E94540D77247394992493941C821B828F
:103D70001E821D821A82198260EE72E0C8010E94C2
:103D80005C11C980DA80B8018CAD9DAD0E94E7104E
:103D9000882EC6010E94BB10811409F425C1BE2CD7
:103DA0004F2C44E0842E912C84E0E816F10420F49A
:103DB000470134E0B32E412C1CA21BA21EA21DA25F
:103DC0001AA219A26E0191E2C90ED11C68E372E039
:103DD000C6010E945C115C2C6D2C89A19AA18E14E5
:103DE0009F04B0F4CB2CD42CEC14FD0408F4670130
:103DF000C20CD31CD6014C901C92B101680D791DE8
:103E0000852D962D0E94101389A19AA1F60140825A
:103E10009AA389A3852D962D0E94031159A06AA00B
:103E2000CE01C9969F938F9302979F938F9302978A
:103E30009F938F9302979F938F9302979F938F9354
:103E400002979F938F9385EE92E09F938F936F924B
:103E50005F920E943E3E0FB6F894DEBF0FBECDBF0C
:103E6000069709F014C159AD4FA92DA98BA899A89F
:103E70008FA598A9803D37E0930710F0805D9740AB
:103E8000482E8D8B9E8A8F8A19823AE0852F632F68
:103E90000E94FE36982F990F980F990F950F9A83CD
:103EA000842F0E94FE36982F990F980F990F940F28
:103EB0009B83822F0E94FE36982F990F980F990F9F
:103EC000920F9C836E0185E1C80ED11CC6010E9431
:103ED0001E06811101C087E08D832AE0882D622FA4
:103EE0000E94FE36982F990F980F990F980D9E8378
:103EF000892D0E94FE36982F990F980F990F990DD2
:103F00009F83842D0E94FE36982F990F980F990F4A
:103F1000940D988721E048E050E0B8018091DE04DC
:103F20009091DF040E94DD0F2FE0922E9BAE21E0E6
:103F300041E050E0BE01655C7F4F8091DE049091CE
:103F4000DF040E94DD0F41E050E0BE01635D7F4F62
:103F50008091DE049091DF040E946A0D8DA59DA6DC
:103F60008F778EA721E042E050E0BE01635D7F4F76
:103F70008091DE049091DF040E94DD0F61E174E026
:103F800087E896E00E94540DC6010E940B108A8DAE
:103F90001F928F93898D1F928F93888D1F928F937D
:103FA0008F891F928F938E891F928F938D8990E0B6
:103FB0008053984F9F938F9387EF92E09F938F93B7
:103FC0001F930F930E940E3EB80187E896E00E946F
:103FD00057120FB6F894DEBF0FBECDBF852D962DBC
:103FE0000E94BB10992493941C821B821E821D8206
:103FF0001A82198265E173E0C8010E945C11C980D0
:10400000DA80B8018CAD9DAD0E94E710B82EC601D4
:104010000E94BB10B11409F45CC0470195E0A92EC1
:10402000B12CB5E0EB16F10420F4570185E0882EA1
:10403000912C1C821B821E821D821A82198268E3C7
:1040400072E0C8010E945C11AE14BF0418F109812E
:104050001A810115110531F0C8010E948637CB0184
:10406000892B69F51092E2040E94EA18C8010E94A7
:10407000BB1099249394EF2879F5711409F4ECC0DE
:104080006AEF73E087E896E00E94540DD2C077246F
:104090007394A4CF6401E814F90408F46701C20C16
:1040A000D31CF60190801082B1016A0D7B1DC801FE
:1040B0000E94101309811A81D6019C92CACF6130E7
:1040C000710521F481E08093E204D0CF77247394CA
:1040D000CDCFEF2809F4A3C06BE173E0C1010E94CA
:1040E000E13D892BC1F567E673E087E896E00E9421
:1040F000631268E573E087E896E00E94631263E468
:1041000073E087E896E00E94631269E273E087E853
:1041100096E00E9463126BE173E087E896E00E94EC
:10412000631261E073E087E896E00E94631264EF37
:1041300072E087E896E00E9463126DEE72E087E815
:1041400096E00E94631266EE72E087E896E00E94B5
:1041500063129924939460E273E0C1010E94E13DEF
:10416000892B09F05CC066EE73E087E896E00E9458
:10417000540D64ED73E087E896E00E9463126FECE3
:1041800073E087E896E00E94540D63EC73E087E8E3
:1041900096E00E94540D60EB73E087E896E00E9481
:1041A000540D6DEA73E087E896E00E94540D61EAD1
:1041B00073E087E896E00E94540D80E290E00E9450
:1041C0004F0D68E973E087E896E00E94540D66E9B8
:1041D00073E087E896E00E94631263E873E087E883
:1041E00096E00E94540D8091DD040E94F21187E850
:1041F00096E00E94FB1161E773E087E896E00E9479
:10420000540D2AE040E150E060E070E087E896E07D
:104210000E94951187E896E00E94FB112ECF911025
:104220002CCF61E074E087E896E00E94540D711095
:1042300027CF6BEE73E087E896E00E94631224E6D6
:1042400030E040E550E060ED77E083E00E94B20BA3
:10425000C1010E94BB1065CA87E896E00E94FB116D
:104260000E94CF0BF5CFBF92CF92DF92EF92FF92D9
:104270000F931F93CF93DF9300D000D000D0CDB722
:10428000DEB7182F10923B011092680110921201B4
:10429000109209011C821B821E821D821A821982C1
:1042A00069ED72E0CE0101967C010E94B115C980D2
:1042B000DA8061E0C7010E946419C6010E94BB1048
:1042C0008091DB049091DC04BE2C0F2D892B09F129
:1042D0008AE090E09093B0078093AF070E94440477
:1042E0006E5C7F4F8F4F9F4F6B017C010E94440497
:1042F0006C157D058E059F0560F48091AF07909148
:10430000B0070B9731F0E091DB04F091DC040995E4
:10431000EDCF0E94AB0C89E090E09093B0078093C2
:10432000AF071093DA0480E1189FF0011124E152E5
:10433000FE4F868597859093DC048093DB041C8276
:104340001B821E821D821A82198261ED72E08B2D02
:10435000902F0E94B115E980FA8060E08B2D902F9C
:104360000E946419C7010E94BB106091DA0490E1B9
:10437000699FB001112460527E4F87E896E00E9449
:104380006F1267EC72E087E896E00F900F900F9045
:104390000F900F900F90DF91CF911F910F91FF9091
:1043A000EF90DF90CF90BF900C946312EF92FF924A
:1043B0001F93CF93DF9300D000D000D0CDB7DEB7EE
:1043C000182FE0912407813039F18DEF810F823071
:1043D00018F1ED3008F11C821B821E821D821A82A8
:1043E00019826DE970E0CE0101960E94B115E98055
:1043F000FA8061E0CE0101960E946419C7010F9016
:104400000F900F900F900F900F90DF91CF911F9111
:10441000FF90EF900C94BB1087E0E89FF00111240F
:10442000EB5DF84F4083518362837383148316825C
:1044300015821C821B821E821D821A82198264E9E7
:1044400070E0CE0101960E94B115E980FA8060E02B
:10445000CE0101960E946419C7010E94BB10812FF2
:104460000E94F2116CE870E087E896E00E94631207
:10447000809124078F5F809324070F900F900F90F7
:104480000F900F900F90DF91CF911F91FF90EF90C1
:104490000895CF92DF92EF92FF92CF93DF93CDB743
:1044A000DEB72C970FB6F894DEBF0FBECDBFE091FC
:1044B000AF07F091B007EC30F10508F0C0C2E7504B
:1044C000FD4B0C945F371C821B821E821D821A8258
:1044D00019826BEB77E0CE0101960E94B115E9805D
:1044E000FA8061E0CE0101960E941F12C7010E946E
:1044F000BB108BE090E00E9450042C960FB6F8940D
:10450000DEBF0FBECDBFDF91CF91FF90EF90DF9068
:10451000CF900C941B0A85EE94E00E943E1381E537
:1045200095E00E943E138BE195E00E943E130E94AD
:104530001B0AAE014F5F5F4F60E081E00E94990F60
:104540008115E9F1298130E0A0E1BEE00E94AF4190
:104550006B017C012A8130E0ACE3B0E00E94AF4106
:10456000C60ED71EE81EF91E8B81A7019601280FE3
:10457000311D411D511DA8EEB3E00E94A44160937E
:1045800048017093490180934A0190934B012C811B
:1045900030E00E94AF416B017C012D8130E0A4E648
:1045A000B0E00E94AF41C60ED71EE81EF91EC092B1
:1045B0004401D0924501E0924601F092470124E087
:1045C00030E030938805209387058FE6809391052E
:1045D000309393052093920580939C0580E090E0B2
:1045E00057C080917101811509F449C01092710181
:1045F0000E94850C1C821B821E821D821A821982D7
:1046000061EB77E0CE0101960E94B115E980FA8056
:10461000CE0101960E941606C7010E94BB101C82A3
:104620001B821E821D821A82198262EA77E0CE0105
:1046300001960E94B115E980FA80AE014F5F5F4F8D
:1046400062E083E00E94A705C7010E94BB101C82A4
:104650001B821E821D821A8219826FE877E0CE01CA
:1046600001960E94B115E980FA80AE014F5F5F4F5D
:1046700063E081E00E94A705C7010E94BB10809102
:104680006801811509F4DBC11092680185E090E0B2
:104690002C960FB6F894DEBF0FBECDBFDF91CF9141
:1046A000FF90EF90DF90CF900C94500480917101B7
:1046B000811509F48CC01092710181E08093AE07DE
:1046C0000E94850C1C821B821E821D821A82198206
:1046D00067E877E0CE0101960E94B115E980FA8083
:1046E000CE0101960E941A06C7010E94BB101C82CF
:1046F0001B821E821D821A82198262E777E0CE0138
:1047000001960E94B115E980FA80AE014F5F5F4FBC
:1047100062E080E00E94A705C7010E94BB101C82D6
:104720001B821E821D821A8219826DE577E0CE01FE
:1047300001960E94B115E980FA80AE014F5F5F4F8C
:1047400063E080E00E94A705C7010E94BB101092A1
:104750008805109287058BE6809391051092890554
:1047600010928A0510928B0510928C054091480199
:104770005091490160914A0170914B0140938D0520
:1047800050938E0560938F0570939005109293055A
:104790001092920580939C0587E0EDE2F3E0DE0144
:1047A000119601900D928A95E1F787E0FE0131960E
:1047B000A1E4B5E001900D928A95E1F787E0FE0152
:1047C0003196ABE0B5E001900D928A95E1F78091CA
:1047D000AE07811509F10E944404AB01BC01809130
:1047E000440190914501A0914601B0914701C090CC
:1047F000AA07D090AB07E090AC07F090AD078C0D06
:104800009D1DAE1DBF1D84179507A607B70720F491
:104810001092AE070E94461380913B01811531F042
:1048200010923B0186E090E00E9450048091680164
:10483000811509F404C11092680181E090E028CF4D
:1048400080917101811509F4A1C01092710181E07C
:104850008093AE070E94850C1C821B821E821D82E3
:104860001A82198267E577E0CE0101960E94B115A0
:10487000E980FA80CE0101960E941A06C7010E94C3
:10488000BB101C821B821E821D821A82198262E466
:1048900077E0CE0101960E94B115E980FA80AE0161
:1048A0004F5F5F4F62E080E00E94A705C7010E9452
:1048B000BB101C821B821E821D821A82198263E336
:1048C00077E0CE0101960E94B115E980FA80AE0131
:1048D0004F5F5F4F63E083E00E94A705C7010E941E
:1048E000BB1080913B01811110923B011092890510
:1048F00010928A0510928B0510928C0510928D05EE
:1049000010928E0510928F051092900510929405CA
:1049100010929505109296051092970510929805A1
:104920001092990510929A0510929B051092880595
:10493000109287058BE68093910510929305109253
:10494000920580939C056DE875E089E895E00E94EA
:10495000FF040E941B0C4091E90450E06FE272E0FA
:104960008BE095E00E94C63D4091550550E06BE21A
:1049700071E087E795E00E94C63D40911F0550E039
:104980006BE171E081E495E00E94C63D8091AE0745
:10499000811581F10E944404AB01BC018091440166
:1049A00090914501A0914601B0914701C090AA079E
:1049B000D090AB07E090AC07F090AD078C0D9D1D3B
:1049C000AE1DBF1D84179507A607B70798F4109270
:1049D000AE07F09091056F2D85EE94E00E94040DD6
:1049E0006F2D81E595E00E94040D6F2D8BE195E020
:1049F0000E94040D80916801811519F010926801E0
:104A0000EDCD80911201811529F01092120188E0FC
:104A100090E03ECE80910901811519F010920901B4
:104A2000F6CF8DE10E94230A892B89F38EE10E9443
:104A3000230A892B61F380913B0181110DC02C96D3
:104A40000FB6F894DEBF0FBECDBFDF91CF91FF90C0
:104A5000EF90DF90CF90089510923B010E94640484
:104A60001C821B821E821D821A82198265E277E0F7
:104A7000CE0101960E94B115E980FA8061E0CE0175
:104A800001960E941F12C7010E94BB100E94961936
:104A900040913C0150913D0160913E0170913F0178
:104AA00081E00E94D62180913C0190913D01A0912E
:104AB0003E01B0913F018093890590938A05A093B0
:104AC0008B05B0938C058093940590939505A093E6
:104AD0009605B093970521E030E030938805209348
:104AE000870588E68093910530939305209392057E
:104AF00080939C0582E090E0CBCD8091710181157F
:104B0000C1F0109271011C821B821E821D821A82CA
:104B1000198267E177E0CE0101960E94B115E98024
:104B2000FA8061E0CE0101960E941F12C7010E9427
:104B3000BB1080916801811161CF8DE10E94230A31
:104B4000892B09F40EC120E030E08BE63093880514
:104B500020938705809391058EE10E94230A892B7B
:104B600009F403C180E090E02BE6909393058093D5
:104B7000920520939C05209187053091880525306A
:104B8000310519F0059709F0F4C08091E40481150E
:104B900049F024E630E040E550E060ED77E083E066
:104BA0000E94B20B44E150E060E270E08FE396E0D7
:104BB0000E94CF3D8091870590918805059709F067
:104BC000D8C01C821B821E821D821A8219826FE04D
:104BD00077E0CE0101960E94B115E980FA80AE011E
:104BE0004F5F5F4F62E080E00E94A705C7010E940F
:104BF000BB101C821B821E821D821A82198269E0F0
:104C000077E0CE0101960E94B115E980FA80BE01DD
:104C10006F5F7F4F81E595E00E941C04C7010E94F1
:104C2000BB101C821B821E821D821A82198263E0C5
:104C300077E0CE0101960E94B115E980FA80BE01AD
:104C40006F5F7F4F85EE94E00E941C04C7010E94B5
:104C5000BB108091920590919305059709F08EC045
:104C60001C821B821E821D821A8219826BEF76E0E3
:104C7000CE0101960E94B115E980FA80AE014F5F26
:104C80005F4F62E08DE00E94A705C7010E94BB1044
:104C90001C821B821E821D821A82198265EF76E0B9
:104CA000CE0101960E94B115E980FA80BE016F5FC6
:104CB0007F4F8BE195E00E941C04C7010E94BB104E
:104CC0001C821B821E821D821A8219826FEE76E080
:104CD000CE0101960E94B115E980FA80BE016F5F96
:104CE0007F4F85EE94E00E941C04C7010E94BB1018
:104CF00080918705909188052091920530919305C8
:104D0000822B932B892B09F09ACE1C821B821E8248
:104D10001D821A82198264EE76E0CE0101960E940D
:104D2000B115E980FA8061E0CE0101960E941F1260
:104D3000C7010E94BB1085EE94E00E943E13809153
:104D400012018111109212018091090181111092BA
:104D5000090180913B01811509F46FCD10923B014F
:104D60006CCD25E030E08FE6F1CE85E090E02FE6D7
:104D7000FCCE81E595E00E943E136BCF8BE195E080
:104D80000E943E13B5CF809171018115C9F0109238
:104D900071010E94850C1C821B821E821D821A8258
:104DA000198269ED76E0CE0101960E94B115E98085
:104DB000FA80CE0101960E941A06C7010E94BB101C
:104DC0008091870590918805019709F072C08091C4
:104DD0001201811509F46DC0109212014091130166
:104DE00050911401609115017091160140938D0549
:104DF00050938E0560938F057093900582E090E04C
:104E000090938805809387058BE68093910583E0D6
:104E10000E94D62161E08FE00E948D096DE875E067
:104E200089E895E00E94FF040E941B0C60919105A7
:104E300081E595E00E94040D8AE3809353014CE4E0
:104E400051E062E086E00E9492051C821B821E8275
:104E50001D821A82198264E476E0CE0101960E94D6
:104E6000B115E980FA80AE014F5F5F4F62E080E0EC
:104E70000E94A705C7010E94BB101C821B821E82D4
:104E80001D821A82198269E376E0CE0101960E94A2
:104E9000B115E980FA8060E0CE0101960E941F12F0
:104EA000C7010E94BB106CE471E087E896E00E94A5
:104EB00057128091920590919305019709F072C065
:104EC00080910901811509F46DC01092090140918A
:104ED0000A0150910B0160910C0170910D014093FA
:104EE00098055093990560939A0570939B0582E00D
:104EF00090E090939305809392058BE680939C05B8
:104F000084E00E94D62161E082E10E948D0968E977
:104F100075E084E995E00E94FF040E941B0C6091FB
:104F20009C058BE195E00E94040D8AE38093530178
:104F30004CE451E063E086E00E9492051C821B82F3
:104F40001E821D821A82198265E576E0CE010196E5
:104F50000E94B115E980FA80AE014F5F5F4F63E0B8
:104F600080E00E94A705C7010E94BB101C821B8223
:104F70001E821D821A82198269E476E0CE010196B2
:104F80000E94B115E980FA8060E0CE0101960E948E
:104F90001F12C7010E94BB106CE471E087E896E025
:104FA0000E9457128091870590918805029709F019
:104FB00047C08091920590919305029709F040C0F7
:104FC0001C821B821E821D821A8219826BE576E08A
:104FD000CE0101960E94B115E980FA80CE010196BA
:104FE0000E941A06C7010E94BB10809198059091FB
:104FF0009905A0919A05B0919B0540918D0550911E
:105000008E0560918F0570919005481759076A07C2
:105010007B0788F468E975E084E995E00E94FF0465
:105020000E941B0C6091910585EE94E00E94040D96
:1050300084E090E02DCB6DE875E089E895E0EECF57
:10504000F090E304F11409F442C00E94440469831F
:105050007A838B839C83BE016F5F7F4F84E995E0E9
:105060000E94FF040E941B0C809192059091930571
:10507000019799F4F0909C056F2D8BE195E00E94CB
:10508000040D6F2D85EE94E00E94040D4CE451E078
:1050900063E086E00E949205F12C80918705909153
:1050A00088050197A1F4E09091056E2D81E595E0CA
:1050B0000E94040DF11459F06E2D85EE94E00E94CB
:1050C000040D4CE451E062E086E00E94920580917C
:1050D0003B018115D1F110923B011C821B821E8283
:1050E0001D821A82198261ED76E0CE0101960E943E
:1050F000B115E980FA8061E0CE0101960E941F128D
:10510000C7010E94BB1040913C0150913D0160914C
:105110003E0170913F0182E00E94D6216CE371E074
:1051200084E995E00E94FF040E941B0C8AE38093AF
:1051300053014CE451E061E086E00E94920545E2B3
:1051400053E061E080E00E94920580916801811542
:1051500009F475CC109268011C821B821E821D828C
:105160001A82198262EC76E0CE0101960E94B11596
:10517000E980FA8061E0CE0101960E941F12C7010A
:105180000E94BB104091690150916A0160916B01CE
:1051900070916C0185E00E94D6211C821B821E82C8
:1051A0001D821A82198265EB76E0CE0101960E947B
:1051B000B115E980FA80CE0101960E941A06C70156
:1051C0000E94BB1022E030E03093880520938705D1
:1051D0008BE68093910530939305209392058093FD
:1051E0009C0526CF809171018115D1F0109271013B
:1051F0001C821B821E821D821A82198266EA76E058
:10520000CE0101960E94B115E980FA8061E0CE01DD
:1052100001960E941F12C7010E94BB100E942D140C
:1052200080916801811509F40ACC109268010E94EE
:105230001B0AD4C980917101811509F45BC00E94D9
:105240006404109271011C821B821E821D821A82CC
:10525000198266E976E0CE0101960E94B115E980D7
:10526000FA8061E0CE0101960E941F12C7010E94E0
:10527000BB100E94850C1C821B821E821D821A821A
:10528000198269E876E0CE0101960E94B115E980A5
:10529000FA80CE0101960E941A06C7010E94BB1037
:1052A00081E090E0909393058093920588E6809347
:1052B0009C050E944404462F572FBC01409394053F
:1052C00050939505609396057093970580918D0591
:1052D00090918E05A0918F05B0919005840F951F38
:1052E000A61FB71F8093980590939905A0939A05E0
:1052F000B0939B05809168018115D9F010926801E7
:105300001C821B821E821D821A82198269E776E046
:10531000CE0101960E94B115E980FA8061E0CE01CC
:1053200001960E941F12C7010E94BB100E94CF0B62
:1053300084CA8091E304811509F481CB0E9444045E
:10534000462F572FBC0140939405509395056093C9
:105350009605709397058091980590919905A09175
:105360009A05B0919B0584179507A607B70770F0BB
:105370002C960FB6F894DEBF0FBECDBFDF91CF9154
:10538000FF90EF90DF90CF900C9446131C821B820D
:105390001E821D821A82198269E676E0CE0101968C
:1053A0000E94B115E980FA8061E0CE0101960E9469
:1053B0001F12C7010E94BB1081E090E00E945004C0
:1053C00020E030E040ED57E068EC70E081E02C96A2
:1053D0000FB6F894DEBF0FBECDBFDF91CF91FF9027
:1053E000EF90DF90CF900C94B20B0F931F93CF935D
:1053F000DF9300D000D000D0CDB7DEB78091AF07EB
:105400009091B0078430910509F4B5C2B0F48130B1
:10541000910509F4C5C08230910509F496C1892B24
:1054200009F466C00F900F900F900F900F900F909F
:10543000DF91CF911F910F9108958930910531F13E
:105440000A9781F71C821B821E821D821A82198292
:105450006AE276E0CE0101960E94B11509811A81B7
:1054600061E0CE0101960E941F12C8010E94BB108C
:105470008BE090E00F900F900F900F900F900F9097
:10548000DF91CF911F910F910C94500485EE94E021
:105490000E943E1381E595E00E943E138BE195E06A
:1054A0000E943E130E941B0A4091E90450E06FE203
:1054B00072E08BE095E00E94C63D40911F0550E0F0
:1054C0006BE171E081E495E00E94C63D24E030E0AC
:1054D00030938805209387058FE68093910530935C
:1054E00093052093920580939C0580E090E0C2CFC5
:1054F00080917101811509F449C0109271010E94D7
:10550000850C1C821B821E821D821A8219826EE10A
:1055100076E0CE0101960E94B11509811A81CE0173
:1055200001960E941606C8010E94BB101C821B82B5
:105530001E821D821A8219826FE076E0CE010196EA
:105540000E94B11509811A81AE014F5F5F4F62E081
:1055500083E00E94A705C8010E94BB101C821B8229
:105560001E821D821A8219826CEF75E0CE010196AF
:105570000E94B11509811A81AE014F5F5F4F63E050
:1055800081E00E94A705C8010E94BB1080916801BC
:10559000811509F447CF1092680181E090E06ACF4D
:1055A00080917101811509F477C0109271010E94F8
:1055B000850C1C821B821E821D821A82198265EF55
:1055C00075E0CE0101960E94B11509811A81CE01C4
:1055D00001960E941A06C8010E94BB101C821B8201
:1055E0001E821D821A82198260EE75E0CE0101963C
:1055F0000E94B11509811A81AE014F5F5F4F62E0D1
:1056000080E00E94A705C8010E94BB101C821B827B
:105610001E821D821A82198261ED75E0CE0101960B
:105620000E94B11509811A81AE014F5F5F4F63E09F
:1056300083E00E94A705C8010E94BB101092940548
:105640001092950510929605109297051092980564
:105650001092990510929A0510929B0580913B013A
:10566000811110923B0110929305109292058BE6E6
:1056700080939C0568E975E084E995E00E94FF0449
:105680000E941B0C6BE685EE94E00E94040D6BE615
:105690008BE195E00E94040D80916801811519F05D
:1056A0001092680122CF8091120181111092120193
:1056B0008091090181111092090180913B018115AE
:1056C00009F4B0CE10923B010E9464041C821B823C
:1056D0001E821D821A82198261EC75E0CE0101964C
:1056E0000E94B11509811A8161E0CE0101960E94E4
:1056F0001F12C8010E94BB100E94961940913C01E4
:1057000050913D0160913E0170913F0181E00E9406
:10571000D62180913C0190913D01A0913E01B09134
:105720003F018093940590939505A0939605B093BF
:10573000970581E090E0909393058093920588E629
:1057400080939C0582E090E095CE80917101811557
:1057500089F1109271010E94850C1C821B821E82AD
:105760001D821A82198265EB75E0CE0101960E94B6
:10577000B11509811A81CE0101960E941A06C8014D
:105780000E94BB101C821B821E821D821A821982FB
:1057900060EA75E0CE0101960E94B11509811A8177
:1057A000AE014F5F5F4F61E080E00E94A705C80136
:1057B0000E94BB1080911201811509F11092120113
:1057C00040911301509114016091150170911601DF
:1057D000409398055093990560939A0570939B05A3
:1057E00083E00E94D6210F900F900F900F900F90A2
:1057F0000F90DF91CF911F910F910C94D91580914B
:1058000009018115A1F01092090140910A015091FE
:105810000B0160910C0170910D014093980550931C
:10582000990560939A0570939B0584E0DACF809187
:105830003B018115D1F110923B011C821B821E821B
:105840001D821A82198268E975E0CE0101960E94D4
:10585000B11509811A8161E0CE0101960E941F12E3
:10586000C8010E94BB1040913C0150913D016091E4
:105870003E0170913F0182E00E94D6216CE371E00D
:1058800084E995E00E94FF040E941B0C8AE3809348
:1058900053014CE451E062E086E00E94920545E24B
:1058A00053E062E080E00E9492058091E30481155C
:1058B00081F00E94440469837A838B839C83BE01B8
:1058C0006F5F7F4F84E995E00E94FF0480E00E94B3
:1058D0002A0D80916801811509F4A4CD1092680108
:1058E0001C821B821E821D821A82198269E875E061
:1058F000CE0101960E94B11509811A8161E0CE01A5
:1059000001960E941F12C8010E94BB1040916901BC
:1059100050916A0160916B0170916C0185E00E9469
:10592000D62169E671E084E995E00E94FF0481E0F8
:105930000E942A0D1C821B821E821D821A821982DD
:1059400061E875E0CE0101960E94B11509811A81C6
:10595000CE0101960E941A06C8010E94BB1082E087
:1059600090E090939305809392058BE680939C053D
:1059700084E090E07FCD809171018115D1F010928B
:1059800071011C821B821E821D821A82198262E7AB
:1059900075E0CE0101960E94B11509811A8161E07E
:1059A000CE0101960E941F12C8010E94BB100E94E6
:1059B0002D1480916801811173CE34CD1F921FB6D2
:1059C0001F9211248F939F93AF93BF938091A6074B
:1059D0009091A707A091A807B091A9070196A11DD2
:1059E000B11D8093A6079093A707A093A807B09333
:1059F000A9078091A5078F5F8093A507853228F0BE
:105A000081E08093A4071092A5078091A3078F5F80
:105A10008093A3078A3F28F081E08093A207109229
:105A2000A3071092850010928400BF91AF919F91BF
:105A30008F911F901FBE1F9018951F920F920FB647
:105A40000F9211240BB60F922F933F934F935F93B6
:105A50006F937F938F939F93AF93BF93EF93FF9336
:105A60009091B900892F887F803509F4C9C008F06A
:105A700047C0803309F4BFC0C0F5883111F1E0F4AC
:105A8000883009F4B0C0803109F4ADC0811509F443
:105A9000FCC0FF91EF91BF91AF919F918F917F914A
:105AA0006F915F914F913F912F910F900BBE0F908F
:105AB0000FBE0F901F901895803209F49CC0883259
:105AC00041F79091700480916F049817B0F5E091C0
:105AD0006D04F0916E048091700491E0980F9093A2
