:100000000C94EE030C9416040C9416040C94160431
:100010000C94342E0C9416040C9416040C941604B0
:100020000C9416040C947E2F0C9416040C94160455
:100030000C9416040C94CE2C0C9416040C941604F8
:100040000C9416040C9416040C949E2E0C94160416
:100050000C94E62E0C940C2F0C9416040C9416049D
:100060000C9416040C9416040C940D2D0C94160488
:100070000C94322F0C94582F0C9416046364696E00
:100080006F70737578585B0020756C6F7A656E00C1
:100090004C6F672074797023004E45554C4F5A457C
:1000A0004E4F003D3D3D204B6F6E6563207A617A77
:1000B0006E616D75203D3D3D0A005679736C656437
:1000C000656B3A20204E45524F5A484F444E4500EA
:1000D000526F7A64696C3A2020202000566974655A
:1000E0007A3A20202020205052415641204452414B
:1000F000484100526F7A64696C3A202020200056F3
:100100006974657A3A20202020204C4556412044CD
:1001100052414841005072617679206361733A2000
:10012000004C657679206361733A2020002D2D2DD7
:1001300020536F7568726E207A61766F6475202D1A
:100140002D2D00202D2000434859424100494E46A4
:100150004F0052455345540043415320505241569D
:100160004120445241484100434153204C455641AF
:10017000204452414841004D455A494341530053A0
:1001800054415254000A3D3D3D205A617A6E616DE2
:10019000207A61766F6475203D3D3D001209120999
:1001A00012091200091209120912090000001209AD
:1001B0001200000000000912090000004368796283
:1001C0006120446973706C656A203200436879620B
:1001D0006120446973706C656A2031004E617374EC
:1001E0006176656E6920646973706C656A7500522A
:1001F0005443206E6572656167756A65005A617067
:100200006E75746920005A6D656E613A2075766F5F
:100210006C6E6974205265736574002D2D3E00501C
:100220007265706E757469206D6F64756C7500020F
:100230000000200023002600290000000002030027
:100240000000000000000504090800000000000094
:100250000000000000000000000000002200250057
:1002600028002B0000002100240027002A000202A1
:10027000020202020202040404040404040403034C
:100280000303030303030101010101010101010251
:100290000408102040800102040810204080010260
:1002A00004081020408001020408102040801F1C18
:1002B0001F1E1F1E1F1F1E1F1E53797374656D00A6
:1002C0003E20002720616B7469766E69004D6F6473
:1002D000756C2027005A6D656E61206D6F64756CBA
:1002E0007500202068656C70002020696E666F00C4
:1002F000202070657266203C307C313E00202072E8
:10030000746320595959592D4D4D2D444420484866
:100310003A4D4D3A535300202064656C203C6D3EAD
:10032000203C6B3E002020736574203C6D3E203CD9
:100330006B3E2048205B2C482C482E2E2E5D002042
:1003400020736574203C6D3E203C6B3E202274651A
:100350007874220020206C697374205B6D5D205BD3
:100360006B5D000A5072696B617A793A0020202037
:10037000204C6F67207A617A6E616D753A2000209B
:10038000202020506F636574206D6F64756C753A22
:100390002000290031303A30393A3232004A756C47
:1003A0002020362032303235002028002B763530A0
:1003B0002D323058342D307833462D616C6C00521C
:1003C0004D5320302E322D7263310046573A2000B3
:1003D00053616B756C2053746F706B792076352E7A
:1003E000300048573A2000205A6164656A20276827
:1003F000656C70272E0043687962612E004E657A25
:100400006E616D79207072696B617A2E0043617341
:100410002076205254433A20004E656E616C657A16
:10042000656E6F2E20005A617A6E616D20736D616A
:100430007A616E2E0043687962612E2028486F64CD
:100440006E6F7479207072657320746578743F29BB
:100450000043687962612E20285465787420707298
:10046000657320686F646E6F74793F29004F4B2E5F
:10047000205465787420756C6F7A656E2E00436821
:1004800079626E792076737475702E004E616C659A
:100490007A656E6F3A20002D2D2D2D2D2D2D2D2DB1
:1004A0002D2D2D2D2D2D002020000020002020009E
:1004B0000020002020000020002D2D2D2D2D2D2D81
:1004C0002D2D2D2D2D2D2D2D004D6F64756C204B58
:1004D0006C69632044617461005072696A61746F71
:1004E0002027004B6F6E6563002D2D35352D2D2097
:1004F000005465726D696E616C3A202768656C7096
:10050000270053657269616C203131353230302FEC
:10051000382F31626974004E6173746176656E695B
:1005200000454550524F4D20706C6E6121003A00DD
:100530007C20002E0044656D6F202000557074698A
:100540006D650044656D6F002D2D3E207465726DE4
:10055000696E616C0044656D6F0044656D6F20735A
:1005600065206C6F756369004B6F6E6563005A613F
:10057000646F7374206F207679706973005A727596
:1005800073656E6F004D6572656E69207A72757362
:10059000656E6F004D657A6963617300533E4D650A
:1005A0007A6963617320204C2F503E4B6F6E6563F8
:1005B0000053746F706B792062657A690053746FB1
:1005C000706B79207370757374656E790052657302
:1005D0006574203E205A7061746B790053746172A7
:1005E00074203E205A6168616A69207A61766F647E
:1005F0000053544F504B590052657365742B4C2F68
:1006000050203E204D6F64756C790052657365749F
:10061000203E2046756E6B63650053544F504B5916
:1006200020532D4C50004B6F6E656300556B6F6E01
:1006300063656E6F004C657661206472616861006D
:100640004C65766100507261766120647261686108
:10065000005072617661005A61766F6420736B6F2F
:100660006E63696C004F64706F63657420736B6FA9
:100670006E63696C005A727573656E69206F647081
:100680006F637475004F64706F6365742062657A80
:1006900069005A6168616A656E206F64706F636596
:1006A00074005A61646F7374206F20767970697377
:1006B000005A61766F64207A727573656E004D65BD
:1006C00072656E69207A727573656E6F004D657A1A
:1006D00069636173005A61766F642062657A6900AC
:1006E0004B6F6E63616B79204F4B00202D452D20A1
:1006F00000202D452D2000503A434859424100200A
:100700002D452D2000202D452D20004C3A434859E1
:100710004241004348594241206B6F6E63616B75E3
:10072000005A61766F64207A6168616A656E005272
:1007300065736574203E205A7061746B7900537440
:10074000617274203E205A6168616A69207A61761C
:100750006F64005A41564F440052657365743E20E1
:100760004D6572656E69207A61766F6475005374A9
:100770006172743E205A6168616A69206F64706FAB
:10078000632E004F44504F434554005265736574C7
:100790002B4C2F50203E204D6F64756C79005265B4
:1007A000736574203E2046756E6B63650053544F2D
:1007B000504B59204855004B6F6E656300206D7398
:1007C000002040200050756C7A20004C6F6720702C
:1007D000726970726176656E0000DF3511241FBE8C
:1007E000CFEFD0E1DEBFCDBF13E0A0E0B1E0E8E4A1
:1007F000F4E802C005900D92A435B107D9F727E0BF
:10080000A4E5B3E001C01D92A03BB207E1F713E0FD
:10081000CEEED3E004C02197FE010E94FF36CD3E0C
:10082000D107C9F70E94DA2F0C940F420C940000F4
:10083000CF93DF93FC01DB015481369614968C91A3
:1008400014978150990B40E0541303C0DF91CF916E
:10085000089514962D913C9115978217930770F483
:100860002D913C9111972115310541F0280F391F29
:10087000E901288121934F5F0197E6CF20E0FACF6D
:100880002FB7F8946091A1077091A2078091A307F8
:100890009091A4072FBF08959093AB078093AA0768
:1008A00081E0809371011092A9070E944004609337
:1008B000A5077093A6078093A7079093A8070895AC
:1008C0008FB7F8941092A00710929E0710929F077E
:1008D00010929D0710929C078FBF08952FB7F89430
:1008E0004091A1075091A2076091A3077091A407BE
:1008F00080918400909185002FBF40937E06509395
:100900007F066093800670938106880F991F880F79
:10091000991F90937D0680937C0681E080937B06EF
:1009200008952FB7F8944091A1075091A2076091C4
:10093000A3077091A40780918400909185002FBF38
:1009400040937706509378066093790670937A0601
:10095000880F991F880F991F9093760680937506CC
:1009600081E08093740608952FB7F8944091A10711
:100970005091A2076091A3077091A4078091840011
:10098000909185002FBF409370065093710660933D
:10099000720670937306880F991F880F991F9093A2
:1009A0006F0680936E0681E080936D0608952FB7E1
:1009B000F8944091A1075091A2076091A30770910C
:1009C000A40780918400909185002FBF4093690611
:1009D00050936A0660936B0670936C06880F991F9C
:1009E000880F991F909368068093670681E0809333
:1009F0006606089508954F925F926F927F92AF922C
:100A0000BF92CF92DF92EF92FF920F931F93CF93FB
:100A1000DF93FB01C080D180E280F380FC01808104
:100A20009181A281B381C81AD90AEA0AFB0AC701D7
:100A3000B60128EE33E040E050E00E94BE368B0164
:100A4000C8E9D5E07D836C838CE3482E512C612C62
:100A5000712CCA01B901A30192010E94BE36B62EC3
:100A60006B83CA01B901A30192010E94BE36A62E72
:100A70006A83C701B60120E83EEE46E350E00E94DB
:100A8000BE36F90139832883C90168EE73E00E94FC
:100A9000AA366E8394E6E92EF12CCF01B7010E94AD
:100AA000AA36CB012AE030E0B9010E94AA368F8332
:100AB000CF01B9010E94AA36482FCB01B9010E948B
:100AC000AA36888749874AE08A2D642F0E949E367D
:100AD0008A879B878B2D0E949E368C879D87C801B5
:100AE000B7010E94AA366E87C801B9010E94AA36D2
:100AF000482FCB01B9010E94AA368F87488BDF911E
:100B0000CF911F910F91FF90EF90DF90CF90BF900A
:100B1000AF907F906F905F904F900895FA0190E0B2
:100B200024E1629FB00111242191211519F0843133
:100B3000910509F40895DC01A60FB71FAE5EB94F09
:100B40002C930196F1CFCF93DF93DA0114962C9179
:100B5000149794E1981B291708F4922FE82FF0E0DE
:100B600084E1689FE00DF11D1124EE5EF94F20E055
:100B700030E0291718F0DF91CF91089514964D9128
:100B80005C9115972417350770F44D915C9111977E
:100B90004115510541F0420F531FEA0188818193AD
:100BA0002F5F3F4FE6CF80E0FACF0F931F93CF9395
:100BB000DF938C01C42F062E000C770B4AE050E027
:100BC00082E196E00E94253D6C2FCC0F770B4AE026
:100BD00050E08CE196E00E94253DD80114968D915D
:100BE0009C91C4E1D0E0C81BD90BD695C795C43100
:100BF00028F4A80160E08C2F0E94A305DD27FE01E8
:100C0000EF5EF94F80E28083D8011496ED91FC915C
:100C1000EE5EF94FEC0FFD1F8083DF91CF911F91A6
:100C20000F91089542E061E00C94D50544E063E043
:100C30000C94D505FC0191816081262F30E0428122
:100C400050E0EEEAF2E081E0891700F1933030F0F5
:100C5000862F8370811102C04F5F5F4FC9010396D9
:100C60009695879596958795EDE6F1E06E9F9001B4
:100C70006F9F300D11242B5F3F4F820F931F840F06
:100C8000951F67E070E00E94AA3608957491470F9F
:100C9000511D8F5F3196D8CF80E090E0089580910C
:100CA000B0049091AF04891B990B08959091AF0403
:100CB0008091B0042FEF3FEF981748F4E92FF0E050
:100CC000E157FB4F208130E09F5F9093AF04C90153
:100CD0000895E091AF048091B004E81730F4F0E09B
:100CE000E157FB4F808190E008958FEF9FEF0895CB
:100CF00008950895089520918E04260F3327331FF9
:100D000021323105ECF420918D04FC0180E090E06B
:100D1000243069F082E00895A0918E042191AC0105
:100D200043595B4FA40FB52FB11D2C930196861725
:100D300098F380918E04680F60938E0480E008958C
:100D400081E00895CF93DF930F92CDB7DEB7FC011A
:100D500069838091D4048115F1F08091D1048032AF
:100D600050F081E090E09383828380E090E00F90E8
:100D7000DF91CF9108958091D204E82FF0E0EF54F5
:100D8000FB4F998190838F5F8093D2048093D1042D
:100D900081E090E0ECCF61E0CE0101960E947B06FD
:100DA000F7CFCF92DF92EF92FF920F931F93CF93E3
:100DB000DF937C01CB018A012091D4042115D9F065
:100DC000EB016B01C40ED51ECC15DD0551F4C80135
:100DD000DF91CF911F910F91FF90EF90DF90CF9017
:100DE00008956991D701ED91FC910190F081E02D7A
:100DF000C7010995E9CF642F0E947B06E8CF85EDF6
:100E00008093BC008091BC0084FDFCCF10928D04C7
:100E10000895089508950895DC01ED91FC910684EC
:100E2000F785E02D40E00994DC01ED91FC9106840A
:100E3000F785E02D41E0099581E090E008952F923B
:100E40003F924F925F926F927F928F929F92AF925A
:100E5000BF92CF92DF92EF92FF920F931F93CF93A7
:100E6000DF93CDB7DEB729970FB6F894DEBF0FBE7C
:100E7000CDBFC12CD12C00E0209178012987A09012
:100E8000790170907A0160907B0150907C014090D4
:100E90007D0130907E0120907F01760110E0F70106
:100EA000EE5EF94FB080C7018E539A4F4C01FC01A2
:100EB00080818B1561F1F985FD83AE827F82688622
:100EC00059824A823B822C822091B0058FEF820F9B
:100ED000021708F4802F90E03091B1053031E9F528
:100EE0002430D9F521E030E02C0F3D1F820F931FF5
:100EF000FC016081610F606889EA95E00E940C073F
:100F00006B2D89EA95E00E941407F401B0821F5FFF
:100F1000FFEFEF1AFF0A143111F60F5F24E1C20E42
:100F2000D11C043009F0B9CF29960FB6F894DEBF72
:100F30000FBECDBFDF91CF911F910F91FF90EF902A
:100F4000DF90CF90BF90AF909F908F907F906F90E9
:100F50005F904F903F902F90089525E030E0C4CFF0
:100F6000DC0181E001C0880F6A95EAF71C968C933A
:100F70001C971A965C934E931997ED91FC911197DB
:100F80000484F585E02D60E0CD0109941F93CF9393
:100F9000DF93DC0152968D919C915397009751F409
:100FA00021E030E013963C932E931297DF91CF917E
:100FB0001F9108951D96ED91FC911E971C962C9102
:100FC0001C97322F30957FB754964C915497142F1D
:100FD000127041FD21C0F894408143234083EC010D
:100FE0002197F1F748E0508160FF1BC0522B5083DE
:100FF000EC012197F1F766954A95A9F780811115C3
:1010000091F0832380837FBF52968D919C910197AD
:10101000F1F781E090E0CACF6095F8944081422BCF
:10102000DDCF5323E4CF822BEDCF8FEF9FEF0895D9
:1010300080E090E008953FB7F89480912204909169
:101040002304A0912404B091250426B5A89B05C0D3
:101050002F3F19F00196A11DB11D3FBFBA2FA92F37
:10106000982F8827BC01CD01620F711D811D911D34
:1010700042E0660F771F881F991F4A95D1F70895A0
:101080004F925F926F927F928F929F92AF92BF9298
:10109000CF92DF92EF92FF920F931F93CF93DF9344
:1010A0008B01D82FC92F0E941B08262F822E972E26
:1010B0005C016801ED2EFC2E05C0C114D104E104D1
:1010C000F10409F10E941B082B013C014818590842
:1010D0006A087B088601DE2DCF2D31E0C31AD108C6
:1010E000E108F108282D792DC50138EE830E33E093
:1010F000931EA11CB11C38EE431633E05306610465
:101100007104D8F6D3CFDF91CF911F910F91FF904B
:10111000EF90DF90CF90BF90AF909F908F907F9097
:101120006F905F904F9008959C01019741F0220FBE
:10113000331F220F331FC90105970197F1F7089557
:10114000CF93DF93EC01423018F08C8188608C8360
:101150004F836887211529F0413019F48C81846010
:101160008C8364E670E080E090E00E9440086C812F
:1011700064FD5BC0E881F9810684F785E02D42E0DB
:1011800063E0CE01099584E991E10E949408E88129
:10119000F9810684F785E02D42E063E0CE010995F0
:1011A00086E990E00E949408E881F9810684F78539
:1011B000E02D42E063E0CE01099586E990E00E94CF
:1011C0009408E881F9810684F785E02D42E062E029
:1011D000CE01099586E990E00E9494086C816062D6
:1011E000CE010E940C078CE390E00E94940884E0FA
:1011F0008D836CE0CE010E940C0761E0CE010E945D
:101200000C0780ED97E00E94940882E08E8366E0F0
:10121000CE010E940C07E881F9810484F585E02D58
:101220006FEFCE01DF91CF9109946062CE010E94F1
:101230000C0784E991E10E9494086C816062CE0100
:101240000E940C0786E990E00E9494086C8160621D
:10125000CE010E940C07BECFCF93DF9390E0FC013C
:10126000E257FD4F249182599D4FFC0184918115D5
:10127000D1F090E0880F991FFC01EC59FD4FA5912A
:10128000B591FC01E65AFD4FC591D5919FB76230EB
:1012900069F4F8943C91822F809583238C93888104
:1012A000822B88839FBFDF91CF910895F8948C9112
:1012B000822B8C93F7CF853099F038F4833011F17D
:1012C000843041F08230D1F00895883069F089305F
:1012D00089F00895809180008F7780938000089531
:1012E000809180008F7DF9CF8091B0008F778093BF
:1012F000B00008958091B0008F7DF9CF84B58F77CD
:1013000084BD089584B58F7DFBCF1F93CF93DF936A
:10131000162F282F30E0F901E65CFD4F8491F9018A
:10132000E257FD4FD491F901E259FD4FC491C11527
:10133000A1F081110E945B09EC2FF0E0EE0FFF1F7E
:10134000E65AFD4FA591B5919FB7F8948C91111174
:1013500008C0D095D823DC939FBFDF91CF911F9118
:1013600008958D2B8C93F8CFDF92EF92FF920F931D
:101370001F93CF93DF938C01D62ED0E0F8018481A8
:10138000D81740F0DF91CF911F910F91FF90EF9010
:10139000DF9008957801ED0EF11CF701C681868972
:1013A0008C1302C0D114E9F19EE0C534C9F07CF47D
:1013B000C03219F024F4C11108C090E011C080EDD2
:1013C0008C0F91ED9C0F8A3058F09FE009C09CE093
:1013D000C03531F09DE0C53519F09BE0CC34A9F75C
:1013E000F801A081B18162818381680F6D0F9295B0
:1013F000907F690FED91FC9111970190F081E02DA4
:10140000CD010995D1110AC0F8018581811531F00E
:1014100061E0C03209F460E00E948509F70186812D
:10142000868BDF5FABCF60E08FE00E94850960E0D4
:1014300082E10C948509CF93DF93282F30E0F901E6
:10144000E65CFD4F8491F901E257FD4FD491F9011B
:10145000E259FD4FC491C11581F081110E945B09D1
:10146000EC2FF0E0EE0FFF1FE05DFD4FA591B59171
:10147000EC91ED2381E0E11101C080E090E0DF918B
:10148000CF910895FC01A48DA80FB92FB11DA35AC7
:10149000BF4F2C91848D90E001968F739927848F94
:1014A000A689B7892C93A089B1898C9183708064B7
:1014B0008C93938D848D981306C00288F389E02D58
:1014C00080818F7D80830895FC01818D228D90E045
:1014D000805C9F4F821B91098F739927089582E842
:1014E00096E00E94640A9C0181E0232B09F480E0CD
:1014F000089585E893E00E94640A9C0181E0232B13
:1015000009F480E0089580E090E0892B29F00E94A2
:101510006F0A81110E94000080E090E0892B29F081
:101520000E94790A81110C9400000895FC01918DAC
:10153000828D981731F0828DE80FF11D858D90E036
:1015400008958FEF9FEF0895FC01918D828D98177C
:1015500061F0A28DAE0FBF2FB11D5D968C91928D63
:101560009F5F9F73928F90E008958FEF9FEF089594
:10157000FC01538D448D842F90E0252F30E0821B99
:10158000930B541710F0CF96089501970895CF93B9
:10159000DF93EC01888D81110FC0DF91CF91089509
:1015A0000FB607FC0DC08C9185FF0AC0808185FFB6
:1015B00007C0CE010E94420AAA89BB89E889F9893D
:1015C0008C9185FDEDCF808186FFEACFE6CFEF924B
:1015D000FF920F931F93CF93DF93EC01F62E81E0E0
:1015E000888F9B8D8C8D98131AC0E889F98980812A
:1015F00085FF15C09FB7F894EE89FF896083E8895D
:10160000F98980818370806480839FBF81E090E04E
:10161000DF91CF911F910F91FF90EF9008950B8D67
:1016200010E00F5F1F4F0F731127E02E8C8D8E156A
:1016300079F0EB8DEC0FFD2FF11DE35AFF4FF08297
:101640009FB7F8940B8FEA89FB8980818062DCCF99
:101650000FB607FCEBCFE889F989808185FFE6CFDB
:10166000CE010E94420AE2CFFC01A089B1898C918F
:10167000A689B78982FD0FC09C91818D8F5F8F7382
:10168000228D821749F0A18DAE0FBF2FB11D5D963F
:101690009C93818F08958C910895CF92DF92EF9261
:1016A000FF920F931F93CF93DF937C016A0100E0B9
:1016B00010E00C151D0551F4C801DF91CF911F9169
:1016C0000F91FF90EF90DF90CF900895EB01D7013D
:1016D000ED91FC910190F081E02D6991C701099590
:1016E000892B51F30F5F1F4FBE01E3CF9091000193
:1016F00089130EC0EFE2F2E0E4919FEF90930001B6
:10170000E13049F0E23069F0E11102C010926E0060
:1017100060E00C94850990916F009D7F90936F001D
:10172000F7CF909170009D7F9093700091E090931F
:10173000B0009091B100987F94609093B1001092A6
:10174000B300E6CF80939B0770939A076093990745
:1017500050939807409397073093960720939507E7
:101760000E944004609391077093920780939307BF
:1017700090939407109290078CE00C94760B20E0E5
:1017800030E040E550E064EC79E081E00C94A20B9D
:101790000F931F932FB7F8948091270490912804FA
:1017A000A0912904B0912A042FBF80938A069093B8
:1017B0008B06A0938C06B0938D0682E896E00E947B
:1017C000A40A8F3F980721F52FB7F894409127047A
:1017D000509128046091290470912A042FBF009130
:1017E0008A0610918B0620918C0630918D06401B45
:1017F000510B620B730B00918606109187062091A6
:101800008806309189064017510762077307A8F2CE
:101810001F910F91089520919805309199052115F8
:10182000310509F457C080919E05811509F44CC01B
:10183000805D80934C0180919F05811509F446C01D
:10184000805D80934D018091A005811509F440C011
:10185000805D80934E018091A105805D9AE3809325
:101860004F01909350018091A205811102C0232B5A
:10187000D1F1805D809351018091A305805D8093BB
:1018800052018091A60590E2853008F49AE3909386
:1018900053019091A405905D909354019091A505FA
:1018A000905D909355019EE290935601805D8093E8
:1018B00057018091A705805D809358018091A8050C
:1018C000805D80935901089580E2B3CF80E2B9CF63
:1018D00080E2BFCF80E280934C0180934D018093E2
:1018E0004E0190E2BCCF80E2C5CF40E550E060E21F
:1018F00070E082E196E00C94253D90916B0080951C
:10190000892380936B0080916B00811105C08091C9
:1019100068008E7F80936800089590B190932F04A3
:10192000EBE6F0E09081982B9083E8E6F0E0808190
:101930008160808308950F931F93CF938EE694E088
:10194000909367018093660102E616E0F801C0817A
:1019500088E00E948D0C81E994E09093650180936A
:10196000640180E10E948D0C84EB94E0909363010C
:101970008093620180E20E948D0C87ED94E0909349
:10198000610180936001C867F801C08380E4CF9152
:101990001F910F910C948D0CFC01AC01425F5F4FC5
:1019A0008FEF9FEF2191922728E0BC01880F991FAC
:1019B00077FF04C031E2832730E193272A95A9F706
:1019C0004E175F0779F70895CF93DF93EC010E94DC
:1019D000CC0C9C0181E04E855F854217530709F0CE
:1019E00080E0DF91CF910895CF93DF939C0106961D
:1019F000F901C481C20FD32FD11D6F71A62F660FBD
:101A0000BB0BA55BBE4F2C173D0719F4DF91CF919F
:101A10000895EDA1EA3331F44C91FC014193CF01DB
:101A20002197F1CFEF710E2E000CFF0BE55BFE4FFF
:101A30004081F3CFCF93C82F0E940B0CC11519F032
:101A40008AE3809353014CE451E063E086E00E9416
:101A50008E05C09197056C2F80EE94E00E94F40CE7
:101A60006C2F86E195E0CF910C94F40CFC0144813D
:101A700055816081718182E896E00C944D0B682F4E
:101A800082E896E00C94E70A0F931F93CF93DF93BD
:101A90008C01EB01FE0164912196611521F0C801D2
:101AA0000E94E70AF7CFDF91CF911F910F91089520
:101AB0000C94E70A2F923F924F925F926F927F921F
:101AC0008F929F92AF92BF92CF92DF92EF92FF924E
:101AD0000F931F93CF93DF936C012B017A0100E0EA
:101AE00010E0332433948FE8682E84E0782E95EC50
:101AF000292ED60114968D919C91E701C01BD10B24
:101B00008C179D0708F4EC0121E0C7018C1B9D0B8D
:101B10000817190708F420E0F60190818C2FC132D4
:101B200008F080E230918D043111FCCF30928D04A9
:101B300020936704FFEFF09365047092690460924C
:101B4000680410926B042FEF280F20936A043092E0
:101B50006C0420916C04990F922B90936C049091DB
:101B600066049130F1F51092660490916C049093A4
:101B7000BB009091BC0093FDF8CF2092BC009091E7
:101B80008D049130E1F390916B04981710F48091DB
:101B90006B041092AF048093B0048C171D0671F48F
:101BA0004201800E911EA12CB12CCA15DB05E9F46F
:101BB0000C0F1D1F0E151F0508F49BCFDF91CF9151
:101BC0001F910F91FF90EF90DF90CF90BF90AF905B
:101BD0009F908F907F906F905F904F903F902F904D
:101BE000089525EE2093BC00CACFD60111968D91A1
:101BF0009C91DC01ED91FC910284F385E02D099527
:101C0000F40181934F01FFEFAF1ABF0ACECF282F07
:101C10003091D10481E0313208F042C080918D04CE
:101C20008111FCCF9091D30442E040938D04209326
:101C300067042FEF2093650441EB54E0509369044F
:101C40004093680410926B0430936A0410926C0401
:101C500020916C04990F922B90936C0490916604E0
:101C6000913029F51092660490916C049093BB001A
:101C70009091BC0093FDF8CF95EC9093BC009091AF
:101C80008D049230E1F3909165049F3F49F080917B
:101C90006504803271F080916504803361F483E0E3
:101CA0001092D2041092D1041092D404089595EEAB
:101CB000E4CF82E0F5CF84E0F3CFFC01838181158E
:101CC000A1F08181682B6083828191E09093D4049C
:101CD0008093D3041092D2041092D10483E394E051
:101CE0000E94A20681E00C94070E0895FC01862F45
:101CF0006485611599F0218532852115310521F41E
:101D0000811107C060E005C021303105D9F781118C
:101D1000F9CF6587CF010E960C945D0E0895EF9272
:101D2000FF921F93CF93DF93EC01FC019C012C5F8A
:101D30003F4F80E060FF02C09589892B6695319600
:101D4000E217F307B9F7413009F44C899D85892BD7
:101D5000142F182B7E018EE0E80EF11C6A89612B8E
:101D6000C7010E945D0E6A8960956123C701DF91FA
:101D7000CF911F91FF90EF900C945D0E0F931F93E6
:101D8000CF93DF93D82FC92F142F062F0F7040E069
:101D9000123031F062956F70412F0E948F0E412FEB
:101DA000602F8D2F9C2FDF91CF911F910F910C945D
:101DB0008F0E1092AF041092B0041092D2041092C1
:101DC000D10410928D0481E0809367041092660420
:101DD00061E081E10E94850961E080E10E9485095E
:101DE000E9EBF0E080818E7F808380818D7F80832E
:101DF00088E48093B80085E48093BC008AE796E08D
:101E00009093400480933F0489E796E090934304C5
:101E1000809342040895CF93DF93EC018B81811569
:101E2000A1F0888191E09093D4048093D304109220
:101E3000D2041092D10481E00E94070E982F81E015
:101E4000911180E0DF91CF9108950E94D90E81E039
:101E50008B83CE010E940B0F8111E3CFF3CFEF9262
:101E6000FF920F931F93CF93DF93EC01162F042F54
:101E7000F22E8B85888B0E94D90E8889EE24E394FC
:101E8000E092D4048093D3041092D2041092D1042F
:101E900081E00E94070E811111C0E98A83E394E07A
:101EA0000E9456068E878989811549F01F861C82FB
:101EB00060E0CE010E960E945D0E01C0198A2F2DA2
:101EC000402F612FCE01DF91CF911F910F91FF9095
:101ED000EF900C94A008EF92FF920F931F93CF9373
:101EE000DF9390E1899F80011124EB01CB014096A3
:101EF0007C01C8010E94864089930F5F1F4FCE1559
:101F0000DF05B9F7DF91CF911F910F91FF90EF900F
:101F10000895DF92EF92FF920F931F93CF93DF9379
:101F2000CDB7DEB760970FB6F894DEBF0FBECDBF5A
:101F3000082FF62EE42ED52E11E0BE016F5F7F4FE5
:101F40008FEF810F0E946B0FCE0101960E94E40C6F
:101F50008115F1F0998190131BC09A819F77F91236
:101F600017C09CE0FE013396AE2DBD2D01900D9261
:101F70009A95E1F760960FB6F894DEBF0FBECDBF1D
:101F8000DF91CF911F910F91FF90EF90DF90089517
:101F90001F5F103491F680E0EDCF1F93CF93DF9356
:101FA000FC01EA01122F848195818417950710F4B2
:101FB00080E01DC0808191E09093D4048093D3048D
:101FC0001092D2041092D10481819281DC01ED91B2
:101FD000FC910280F381E02D0995C817D90741F7DC
:101FE000812F0E94070E982F81E09111E1CFDF91A0
:101FF000CF911F910895EF92FF920F931F93CF936C
:10200000DF9300D000D000D00F92CDB7DEB78C01A7
:102010001982E090D904F090DA0420E041E050E029
:10202000BE016F5F7F4FC7010E94CD0F811541F048
:1020300047E050E0BE016F5F7F4FC7010E945A0D1D
:1020400099819F773A814B815D812E812F776F81B6
:10205000862F82958F70782F770F770F871B880FC9
:10206000860FF8018083822F82958F70682F660F0C
:10207000660F861B880F820F8183852F82958F7054
:10208000282F220F220F821B880F850F8283842F17
:1020900082958F70282F220F220F821B880F840FAA
:1020A0008383832F82958F70282F220F220F821B0C
:1020B000880F830F8483892F82958F70282F220F9A
:1020C000220F821B880F890F8583C80127960FB6C0
:1020D000F894DEBF0FBECDBFDF91CF911F910F915E
:1020E000FF90EF900895CF92DF92FF920F931F938E
:1020F000CF93DF9390E1899F80011124EB01CB0105
:1021000040966C01F990C8010E948640F81621F0B3
:102110006F2DC8010E948E400F5F1F4FCC15DD054B
:1021200089F7DF91CF911F910F91FF90DF90CF90B2
:102130000895CF93DF93EC0188819981009711F086
:102140000E94D53B198218821D821C821B821A8232
:10215000DF91CF910895009711F00C94D53B08952D
:102160000F931F93CF93DF93EC018B0188819981AB
:10217000009729F02A813B812617370790F4B80190
:102180006F5F7F4F0E94663CFC0180E0309751F00A
:10219000F983E8831B830A838C819D81892B09F451
:1021A000108281E0DF91CF911F910F910895DC01A2
:1021B000FB014481558114968D919C91159784174C
:1021C000950778F08D919C91009759F0608171810D
:1021D0006115710531F00E94473D9C0181E0232B80
:1021E00009F080E00895AF92BF92CF92DF92EF9214
:1021F000FF920F931F93CF93DF938C01DC01ED903F
:10220000FC901197E114F104B9F11496CD91DC9191
:10221000209791F157016501F50181915F01082E29
:10222000000C990B0E946B39892BA9F72197CE0DD1
:10223000DF1D8881082E000C990B0E946B39892BB9
:1022400031F5AE014F5F5F4F4C195D09D80115960E
:102250005C934E931497EC14FD0420F4B601C7016F
:102260000E941C3DD801ED91FC91119714968D911F
:102270009C91E80FF91F1082DF91CF911F910F9170
:10228000FF90EF90DF90CF90BF90AF900895CC1566
:10229000DD05B8F22197CDCFEF92FF920F931F93F8
:1022A000CF93DF93EC017B01FB0101900020E9F764
:1022B00031978F01061B170BB8010E94B0108111D6
:1022C00009C0CE01DF91CF911F910F91FF90EF9048
:1022D0000C9499101D830C83B70188819981DF913B
:1022E000CF911F910F91FF90EF900C94403DFB0117
:1022F000EF2B51F0DB010D900020E9F71197AD01B4
:10230000461B570B0C944D0B08956F927F928F9242
:102310009F92AF92BF92CF92DF92EF92FF920F9374
:102320001F93CF93DF93CDB7DEB7A1970FB6F89485
:10233000DEBF0FBECDBF3C01142F052F962E872E7A
:1023400019A2223008F42AE05E0181E2A80EB11C35
:10235000C22ED12CE12CF12C612F702F892D982DBC
:10236000A70196010E94BE36812F902FA92DB82D6E
:10237000122F032F942E852E6A3014F5605DF5011F
:1023800062935F018C159D05AE05BF0528F7BF015F
:10239000C3010E947711A1960FB6F894DEBF0FBE5D
:1023A000CDBFDF91CF911F910F91FF90EF90DF9004
:1023B000CF90BF90AF909F908F907F906F90089537
:1023C000695CDDCF482F50E060E070E02AE082E8F1
:1023D00096E00C94851166E372E00C9477111F93DC
:1023E000CF93DF93D62FC72F142F0E94360D60ECAA
:1023F00072E082E896E00E94440D8D2F9C2F11150B
:1024000049F00E94360D82E896E0DF91CF911F914E
:102410000C94EB11DF91CF911F910C94360DCF925C
:10242000DF92FF920F931F93CF93DF9300D000D0E2
:1024300000D0CDB7DEB78C01F62E2091D50480E117
:10244000289FB001112460527E4F1C821B821E8285
:102450001D821A821982CE0101960E944C11C980F8
:10246000DA804F2DB801CE0101960E94EF11C6010E
:102470000F900F900F900F900F900F90DF91CF91D2
:102480001F910F91FF90DF90CF900C94AB10CF93E2
:10249000DF93D82FC92F0E9477118D2F9C2FDF91AA
:1024A000CF910C94EB11CF93DF93D82FC92F0E94BB
:1024B000440D8D2F9C2FDF91CF910C94EB110C9438
:1024C00077112F923F924F925F926F927F928F92ED
:1024D0009F92AF92BF92CF92DF92EF92FF920F93B3
:1024E0001F93CF93DF93CDB7DEB760970FB6F89405
:1024F000DEBF0FBECDBF262EC72ED82EE92E342E1E
:10250000F22E28EE33E040E050E00E94BE36562E18
:10251000472E8CE3882E912CA12CB12CCA01B90135
:10252000A50194010E94BE36762E672ECA01B9011C
:10253000A50194010E94BE36962E872EF11431F02B
:1025400069E372E082E896E00E945F128E010F5FFD
:102550001F4F311409F445C04F925F926F927F92E2
:102560008F929F92622D7C2D8D2D9E2D20E83EEE28
:1025700046E350E00E94BE363F932F938CE392E0F7
:102580009F938F931F930F930E94643D0FB6F8940F
:10259000DEBF0FBECDBFB80182E896E00E945F1299
:1025A000F11431F060E572E082E896E00E945F127B
:1025B00060960FB6F894DEBF0FBECDBFDF91CF910E
:1025C0001F910F91FF90EF90DF90CF90BF90AF9051
:1025D0009F908F907F906F905F904F903F902F9043
:1025E00008954F925F926F927F928F929F9281E4B3
:1025F00092E09F938F931F930F930E94643DC6CFE9
:10260000EF92FF920F931F93CF93DF93EC018B0117
:102610006115710569F0FB0101900020E9F7319720
:102620007F01E61AF70AB7010E94B010811109C0B4
:10263000CE01DF91CF911F910F91FF90EF900C94FD
:102640009910FD82EC82B80188819981DF91CF9148
:102650001F910F91FF90EF900C94403DFC0144813D
:1026600050E060E270E006960C94253DCF93DF9336
:10267000C0918D05D0918E052097D1F468E875E062
:1026800084E895E00E94FB040E940B0C8CE495E02A
:102690000E942E13C09197056C2F86E195E00E9451
:1026A000F40C6C2F80EE94E0DF91CF910C94F40C3D
:1026B00063E975E08FE895E00E94FB040E940B0C33
:1026C000219721F74CE451E063E08AE00E948E05F7
:1026D000DDCF8F929F92AF92BF92CF92DF92EF9217
:1026E000FF920F931F93CF93DF936B017C01A701A0
:1026F0009601C701B6010E940A4262E572E08111AB
:1027000014C0C701B6010E94004266E572E0892B41
:1027100061F42FEF3FEF4FE75FE4C701B6010E947E
:10272000FB41181694F46AE572E082E896E0DF91C6
:10273000CF911F910F91FF90EF90DF90CF90BF90BE
:10274000AF909F908F900C9477112FEF3FEF4FE752
:102750005FECC701B6010E94183A87FDE4CF20E084
:1027600030E0A901C701B6010E94183A87FF09C0ED
:102770006DE282E896E00E94580DF7FAF094F7F8BF
:10278000F0942EE632E143E05AE3C701B6010E941D
:10279000EE406B017C010E94CC418B01D82FC92FE8
:1027A0000E941D3A9B01AC01B601C7010E94ED4099
:1027B0006B017C012AE0A8016D2F7C2F82E896E056
:1027C0000E9485116EE282E896E00E94580DC3E0F7
:1027D00020E030E040E251E4B601C7010E947E3AB9
:1027E000F62E072F182FD92F0E94CC414B01A12C78
:1027F000B12C2AE0B501A40182E896E00E9485117F
:10280000C501B4010E941D3A9B01AC016F2D702FD0
:10281000812F9D2F0E94ED406B017C01CA95C1F66E
:10282000DF91CF911F910F91FF90EF90DF90CF90AC
:10283000BF90AF909F908F9008952F923F924F92AC
:102840005F926F927F928F929F92AF92BF92CF9240
:10285000DF92EF92FF920F931F93CF93DF9300D0FD
:1028600000D00F92CDB7DEB765E871E082E896E060
:102870000E94531220911F0780E297E09B838A8376
:10288000FC0180E0812C912C5401C12CD12C7601CB
:1028900044244A94542C32018213C1C09FEF49163C
:1028A000590669067906C1F0D701C601C814D904D2
:1028B000EA04FB0410F4D501C4010097A105B10599
:1028C00059F084199509A609B709E1E0E9838F3722
:1028D0009E4EA643B10508F41982212C312C80911B
:1028E0001F072816310408F4B2C09FEF4916590695
:1028F0006906790609F476C0C114D104E104F10433
:1029000009F470C081149104A104B10409F46AC0EF
:10291000D701C60184199509A609B7098A839B8343
:10292000AC83BD83D501C40184199509A609B709F3
:102930002C013D0182E896E00E94EB116DE271E00E
:1029400082E896E00E94531261E271E082E896E02C
:102950000E94440D20E049816A817B818C819D81A8
:102960000E94611282E896E00E94EB1165E171E03D
:1029700082E896E00E94440D20E04981C301B20143
:102980000E94611282E896E00E94EB118A819B818D
:10299000AC81BD8184159505A605B70508F0AEC0CC
:1029A0006FEF70E082E896E00E94531263EF70E0F0
:1029B00082E896E00E94440DC501B4016C197D09BE
:1029C0008E099F090E941D3A20E030E04AE754E456
:1029D0000E945A410E9469136EE572E082E896E017
:1029E0000E94471263EA70E082E896E00F900F9031
:1029F0000F900F900F90DF91CF911F910F91FF904B
:102A0000EF90DF90CF90BF90AF909F908F907F908E
:102A10006F905F904F903F902F900C945312948141
:102A2000913039F440805180628073808F5F379697
:102A300033CF933029F4C080D180E280F380F6CF89
:102A40009430A1F780809180A280B380EFCFAA81DB
:102A5000BB816D917D918D919C9164197509860959
:102A6000970921E049810E9461126BEA72E082E8D5
:102A700096E00E945F12AA81BB811496EC91E1500E
:102A8000E73058F4F0E0EF5EFD4B0C94FF366FE753
:102A900071E082E896E00E94440DEA81FB810581A5
:102AA00016810115110559F063E471E082E896E0A2
:102AB0000E94440DB80182E896E00E945F1282E80D
:102AC00096E00E94EB11FFEF2F1A3F0A8A819B814B
:102AD00007969B838A8303CF67E771E0DACF68E6C6
:102AE00071E0D7CF68E571E0D4CF62E571E0D1CF76
:102AF0006DE471E0CECF67E471E0CBCF8A819B813A
:102B0000AC81BD81481659066A067B0698F46CEDC7
:102B100070E082E896E00E94531260ED70E082E877
:102B200096E00E94440DC701B601681979098A0927
:102B30009B0948CF6AEB70E082E896E00E9453124E
:102B400051CFEF92FF920F931F93CF93DF93EC013E
:102B50008B01CB010E945A377C01BC01CE010E943F
:102B6000B010811109C0CE01DF91CF911F910F915B
:102B7000FF90EF900C949910EC82FD82B80188814F
:102B80009981DF91CF911F910F91FF90EF900C945D
:102B900053370F931F93CF93DF9300D000D000D013
:102BA000CDB7DEB7EDE8F5E082E090E09183808379
:102BB0008BE6828763E975E08FE895E00E94FB046D
:102BC00081E00E941A0D1C821B821E821D821A82C5
:102BD00019826CE276E0CE0101960E94A11509816E
:102BE0001A81CE0101960E941606C8010E94AB1000
:102BF00084E090E00F900F900F900F900F900F9047
:102C0000DF91CF911F910F910C944C046F927F92A2
:102C10008F929F92AF92BF92CF92DF92EF92FF92EC
:102C20000F931F93CF93DF93CDB7DEB7E1970FB626
:102C3000F894DEBF0FBECDBF8091AA079091AB077D
:102C40008930910509F449C08A309105C1F0892B7A
:102C500009F450C0E1960FB6F894DEBF0FBECDBFA9
:102C6000DF91CF911F910F91FF90EF90DF90CF9068
:102C7000BF90AF909F908F907F906F9008951C822F
:102C80001B821E821D821A82198268E675E0CE01BF
:102C900001960E94A11509811A8161E0CE01019679
:102CA0000E940F12C8010E94AB108BE090E0E196E9
:102CB0000FB6F894DEBF0FBECDBFDF91CF911F914D
:102CC0000F91FF90EF90DF90CF90BF90AF909F90CB
:102CD0008F907F906F900C944C040E94750C8CE444
:102CE00095E00E942E1386E195E00E942E1380E06D
:102CF00090E0DDCF8091DF04811509F4ABCF85E151
:102D0000E0E8F1E0DE01119601900D928A95E1F77D
:102D1000CE018C960E94FB0FD9A8A8A8BFA41F9231
:102D2000DF921F92AF921F92BF9281E692E09F9333
:102D30008F938E010A5E1F4F1F930F930E94643D75
:102D4000A80161E086E00E948E05ECA4F12C20E34E
:102D5000E21A28EFF20A9DA4CEA4CE018C960E941E
:102D60001A06FF92EF921F929F921F92CF9290E0CD
:102D70009C01220F331F820F931FFE0131968E0F8D
:102D80009F1F9F938F938FE692E09F938F931F9344
:102D90000F930E94643DA80162E083E00E948E05CB
:102DA0001F92DF921F92AF921F92BF9280E892E033
:102DB0009F938F931F930F930E94643D6E01FDE1DB
:102DC000CF0ED11C7E0125E2E20EF11C0FB6F89465
:102DD000DEBF0FBECDBFD701F601702E612E4701B9
:102DE00082918D930E171F07D9F74091E40450E0AC
:102DF000B40186EE94E00E941C3D1F92AF921F9298
:102E0000BF928DE892E09F938F936F927F920E9482
:102E1000643D0FB6F894DEBF0FBECDBFF6018291C0
:102E20006F01F70181937F010C151D05B9F74091E2
:102E3000500550E0B40182E595E00E941C3D0ACFA8
:102E4000CF92DF92EF92FF920F931F93CF93DF9376
:102E5000CDB7DEB72A970FB6F894DEBF0FBECDBF51
:102E60008091AA079091AB0789309105E9F18A30EA
:102E7000910591F0892B09F493C02A960FB6F89426
:102E8000DEBF0FBECDBFDF91CF911F910F91FF909D
:102E9000EF90DF90CF9008951C821B821E821D82CE
:102EA0001A8219826AE575E0CE0101960E94A11589
:102EB00009811A8161E0CE0101960E940F12C801BA
:102EC0000E94AB108BE090E02A960FB6F894DEBF1C
:102ED0000FBECDBFDF91CF911F910F91FF90EF906B
:102EE000DF90CF900C944C040E94750C1C821B82C6
:102EF0001E821D821A82198265E575E0CE01019657
:102F00000E94A11509811A81CE0101960E94120624
:102F1000C8010E94AB101C821B821E821D821A8275
:102F2000198268E475E0CE0101960E94A11509811D
:102F30001A81AE014F5F5F4F63E084E00E94A305FA
:102F4000C8010E94AB104091E40450E06FE272E0CF
:102F500086E095E00E941C3D4091500550E06BE2F8
:102F600071E082E795E00E941C3D40911A0550E017
:102F70006BE171E08CE395E00E941C3D10928405AA
:102F80001092850510928605109287051092830590
:102F9000109282058BE680938C0580E090E094CFC0
:102FA00080913B01811581F110923B0181E090E01D
:102FB000909383058093820588E680938C0588EE44
:102FC000C82E83E0D82EE12CF12C0E944004A701EA
:102FD00096010E94BE36672B682B692BB1F70E94C1
:102FE00040046093840570938505809386059093D3
:102FF00087050E94600428E933E040E550E06CED6D
:1030000075E083E00E94A20B809168018115F9F0C0
:10301000109268018091DD0491E089278093DD049E
:103020001C821B821E821D821A82198263E475E053
:10303000CE0101960E94A11509811A81CE01019647
:103040000E941206C8010E94AB100E94BF0B809123
:103050000901811531F0109209011092DC040E94DF
:10306000BF0B80911201811571F01092120181E065
:103070008093DC0424E630E040E550E060ED77E04A
:1030800083E00E94A20B8091DE04811105C0809133
:10309000DC04811509F450C00E9440046F837887D6
:1030A00089879A87BE01695F7F4F84E895E00E9417
:1030B000FB040E940B0C4CE451E061E086E00E94AE
:1030C0008E0580918205909183051C821B821E8251
:1030D0001D821A8219826CE375E0892B11F065E379
:1030E00075E0CE0101960E94A11509811A81AE01F9
:1030F0004F5F5F4F61E080E00E94A305C8010E941E
:10310000AB1010918C05612F8CE495E00E94F40CBB
:10311000612F86E195E00E94F40C612F80EE94E02F
:103120000E94F40C8091DE04811531F063E375E0B8
:1031300082E896E00E94440D8091DF04811509F138
:1031400060E375E082E896E00E94440D0E9440042E
:10315000AB01BC012AE082E896E00E94851182E87A
:1031600096E02A960FB6F894DEBF0FBECDBFDF9172
:10317000CF911F910F91FF90EF90DF90CF900C9423
:10318000EB118091DB04811509F477CE6EE275E0D6
:1031900082E896E02A960FB6F894DEBF0FBECDBF48
:1031A000DF91CF911F910F91FF90EF90DF90CF9023
:1031B0000C94440D0F931F93CF93DF9300D000D056
:1031C00000D0CDB7DEB70E94750C1C821B821E8218
:1031D0001D821A82198267E175E0CE0101960E9474
:1031E000A11509811A81CE0101960E941206C8011B
:1031F0000E94AB101C821B821E821D821A821982C1
:1032000062E075E0CE0101960E94A11509811A8144
:10321000AE014F5F5F4F62E080E00E94A305C801EE
:103220000E94AB101C821B821E821D821A82198290
:1032300061EF74E0CE0101960E94A11509811A8107
:10324000AE014F5F5F4F63E082E00E94A305C801BB
:103250000E94AB101C821B821E821D821A82198260
:1032600069EE74E0CE0101960E94A11509811A81D0
:10327000BE016F5F7F4F80EE94E00E941804C8018A
:103280000E94AB108CE495E00E942E1386E195E03D
:103290000F900F900F900F900F900F90DF91CF91A4
:1032A0001F910F910C942E13CF92DF92FF920F93E8
:1032B0001F93CF93DF9300D000D000D0CDB7DEB7FF
:1032C0008C01F62E1C821B821E821D821A8219829C
:1032D00069EB72E0CE0101960E94A115C980DA80E7
:1032E0004F2DB801CE0101960E94EF11C6010F903B
:1032F0000F900F900F900F900F90DF91CF911F9133
:103300000F91FF90DF90CF900C94AB100F931F9311
:10331000CF93DF9300D000D000D0CDB7DEB7E0E28E
:10332000F7E08FEF9FEFDC0180839183A283B3836B
:10333000148216821582379627E0E039F207A1F74A
:1033400010921F071C821B821E821D821A82198204
:103350006BEC77E0CE0101960E94A11509811A81DC
:1033600061E0CE0101960E945419C8010F900F90A0
:103370000F900F900F900F90DF91CF911F910F91B1
:103380000C94AB108F929F92AF92BF92CF92DF922C
:10339000EF92FF920F931F93CF93DF9300D000D053
:1033A00000D0CDB7DEB78C01DB01FA018FB7F894FE
:1033B0008D909D90AD90BC90E080F1808FBFF80122
:1033C00081819281A381B481A5019401281B390BCD
:1033D0004A0B5B0BDA01C901278182179105A10510
:1033E000B10508F47EC081829282A382B482F68203
:1033F000E58281E080831C821B821E821D821A82EC
:10340000198265EC77E0CE0101960E94A115C98072
:10341000DA8060E0CE0101960E945419C6010E9434
:10342000AB10F801608582E896E00E94580D0856BE
:10343000114051F48091AA079091AB07892B21F498
:103440008BE290E00E943F0D61EC77E082E896E02D
:103450000E94440D2AE0B501A40182E896E00E9492
:1034600085118EE290E00E943F0DC70164E670E096
:103470000E94AA36605D7F4F82E896E00E94E70ACC
:103480002AE030E0C701B9010E94AA368C01CB01C5
:10349000B9010E94AA36BC01605D7F4F82E896E0C8
:1034A0000E94E70AB801605D7F4F82E896E00E94C3
:1034B000E70A6DEB77E082E896E00F900F900F90AF
:1034C0000F900F900F90DF91CF911F910F91FF9070
:1034D000EF90DF90CF90BF90AF909F908F900C9423
:1034E00053120F900F900F900F900F900F90DF914D
:1034F000CF911F910F91FF90EF90DF90CF90BF90F1
:10350000AF909F908F9008957F928F929F92AF92ED
:10351000BF92CF92DF92EF92FF920F931F93CF93C0
:10352000DF93CDB7DEB766970FB6F894DEBF0FBE58
:10353000CDBF982EB62E742E852EA12C8E010F5F36
:103540001F4FC982DA82B8018A2D0E946B0FC98091
:10355000DA80C8010E94E40C7801811579F19C1091
:103560002DC08D2D8F77B81229C0BD1083C08CE07F
:10357000E72DF82DDE01139601900D928A95E1F763
:10358000C8010E94CC0C988B8F87B8018A2D0E94AD
:10359000731081E066960FB6F894DEBF0FBECDBF04
:1035A000DF91CF911F910F91FF90EF90DF90CF901F
:1035B000BF90AF909F908F907F900895A39480E4E8
:1035C000A812BFCF10E0C982DA82B701812F0E9412
:1035D0006B0FC980DA80C7010E94E40C8115B9F035
:1035E0001F5F103481F700E0C982DA82B701802FB3
:1035F0000E946B0FC980DA80C7010E94E40C81151C
:1036000011F0C7FC1AC00F5F003471F71FEF0FEF06
:103610008CE0E72DF82DDE01139601900D928A952E
:10362000E1F79982BA82C7010E94CC0C988B8F87F0
:103630001F3F29F0B701812FAACF1FEFE9CFB701B4
:10364000802F0F3F09F0A3CF1C8A1B8A1E8A1D8A78
:103650001A8A198A61E275E0CE0141960E94A1158D
:1036600009891A8961E0CE0141960E945419C80166
:103670000E94AB1080E08ECF2F923F924F925F92CC
:103680006F927F928F929F92AF92BF92CF92DF9272
:10369000EF92FF920F931F93CF93DF93CDB7DEB7D7
:1036A000C254D1090FB6F894DEBF0FBECDBF8091D2
:1036B000AA079091AB078B30910519F18A309105DB
:1036C000D1F51C821B821E821D821A82198263EE32
:1036D00074E0CE0101960E94A11509811A8161E072
:1036E000CE0101960E940F12C8010E94AB1080EE1D
:1036F00094E00E942E138BE090E09093AB078093B0
:10370000AA07CE5BDF4F0FB6F894DEBF0FBECDBF6A
:10371000DF91CF911F910F91FF90EF90DF90CF90AD
:10372000BF90AF909F908F907F906F905F904F90E1
:103730003F902F900895099791F40E94DA1882E83B
:1037400096E00E94640A892B29F41092AB0710922C
:10375000AA07D7CF82E896E00E94A40AF0CF82E8B9
:1037600096E00E94640A892B61F21AA619A618A68F
:103770001FA21CA61BA66E0127E2C20ED11C68E385
:1037800072E0C6010E944C11EFA0F8A40BA51CA585
:103790000E94C80B9C01CCAEDDAE2F3F320721F05A
:1037A0002A30310509F0ABC1F8A6EFA21CA70BA780
:1037B0008CAD9DAD0E94F3102FA038A4EBA4FCA407
:1037C0001C821B821E821D821A82198269ED74E09E
:1037D0008E010F5F1F4FC8010E94A115C980DA80BA
:1037E00060E0C8010E940F12C6010E94AB108CADB0
:1037F0009DAD0E94360D68E972E082E896E00E9475
:1038000047121C821B821E821D821A8219826AE95B
:1038100072E0C8010E944C11C980DA80B8018CADF9
:103820009DAD0E94D710982EC6010E94AB10911436
:1038300009F4B1C18FEF9FEF9E8B8D8B9AA389A363
:10384000CE0181969F938F930C979F938F938FE9CF
:1038500092E09F938F933F922F920E94873D69EC55
:1038600074E082E896E00E94531269EB74E082E80B
:1038700096E00E9453120FB6F894DEBF0FBECDBF84
:10388000712C912C4AEA54E02BEA34E087EA94E068
:103890004EAF5FAF21962FAF219722963FAF229771
:1038A000682E23969FAF23975E01BFE0AB0EB11C3D
:1038B000B801872D0E946B0FC8010E94E40C81158E
:1038C00009F471C0D980D7FC6EC08D899E8997FD9F
:1038D00004C0D816190609F066C04A80C42CE894C2
:1038E000C7F889A19AA197FD04C0C816190609F066
:1038F0005AC06AEA72E082E896E00E945F12E4E64B
:1039000066EB74E0DE1638F4FAE063EB74E0DF1681
:1039100010F067EB74E082E896E00E94440D8D2D74
:103920000E94E2116AEA72E082E896E00E945F1269
:1039300024E6A0EBB4E0BD01C21648F43AE08DEAFB
:1039400094E0BC01C31618F0E1EBF4E0BF0182E89B
:1039500096E00E94440D8C2D0E94E21180E290E0DE
:103960000E943F0D47FEEDC062E282E896E00E94B1
:10397000580D9E012D5F3F4F6901D6016D916D017C
:10398000611539F082E896E00E94580DAC14BD0430
:10399000A1F762E282E896E00E94580D82E896E084
:1039A0000E94EB119394739420E4721281CF9114CE
:1039B00031F067E974E082E896E00E9453126CE807
:1039C00074E082E896E00E94440D892D0E94E21185
:1039D00082E896E00E94EB11992493941C821B824A
:1039E0001E821D821A8219826DEA72E0C8010E944D
:1039F0004C11C980DA80B8018CAD9DAD0E94D71002
:103A0000782EC6010E94AB10711409F42CC1188ED7
:103A10001F8A1A8E198E1E8A1D8A6E0135E1C30E09
:103A2000D11C68E372E0C6010E944C116EE774E09D
:103A3000C6010E94A115ED88FE88CE018D969F9348
:103A40008F930C979F938F9382EB92E09F938F932A
:103A50003F922F920E94873D0FB6F894DEBF0FBEB3
:103A6000CDBF3601029709F0B8C060E270E0C10135
:103A70000E942C3D009709F4B0C060E270E001960E
:103A80000E942C3D009709F4A8C060E270E0019606
:103A90000E942C3DDC01892B09F49FC0FD018D9112
:103AA0008032E1F3823209F078C06D0162E270E0A9
:103AB000CD010E942C3DAC01892B09F48EC08CE015
:103AC000F80111928A95E9F74C195D094D305105BD
:103AD00014F04CE050E0B601C8010E94553D6DA5C0
:103AE0006068A80189A10E94841A6DE674E08111C2
:103AF00002C061E574E0C3010E94A1156CC0298376
:103B00001A8268013FEFC31AD30AF8A6EFA21CA7D6
:103B10000BA7B6018CAD9DAD0E94B010EFA0F8A42C
:103B20000BA51CA5811549F0BE016F5F7F4FC70132
:103B3000800F911F0E94403D86010E94C80B9C018E
:103B40002CCEFE0133962F01D12CD201CD902D0128
:103B5000B4E66EAD7FADCB1668F4EAE0662D239631
:103B60007FAD2397CE1630F021966FAD2197229628
:103B70007FAD229782E896E00E94440D8C2D0E9432
:103B8000E211D394FCE0DF1609F408CF8CE290E058
:103B90000E943F0DDACF912C21CF8CE0D8011D92ED
:103BA0008A95E9F768014E01BDE08B0E911C80817A
:103BB000811519F08C149D04C1F56DA56F77A801CE
:103BC00089A10E94841A811509F44AC06CEB72E045
:103BD000C3010E940013ED88FE88FE8AED8AC301AE
:103BE0000E94360D82E896E00E94EB11C7010E9408
:103BF000AB10C101CE5BDF4F0FB6F894DEBF0FBE36
:103C0000CDBFDF91CF911F910F91FF90EF90DF908B
:103C1000CF90BF90AF909F908F907F906F905F906C
:103C20004F903F902F900C94AB105F013196D501CF
:103C30008C918032D1F3C5010E9405378115B1E026
:103C40009B0758F6F60181936F016CE270E0C501A5
:103C50000E942C3DFC01892B09F4AFCF3196A7CFF0
:103C600065E374E048CF1C821B821E821D821A828B
:103C7000198261ED72E0C8010E944C11C980DA809E
:103C8000B8018CAD9DAD0E94D710682EC6010E9470
:103C9000AB10611409F44AC0CE018D969F938F93A7
:103CA0000C979F938F9386ED92E09F938F933F9213
:103CB0002F920E94873D0FB6F894DEBF0FBECDBF96
:103CC0000297A1F5CDA4D9A08982B801872D0E94C1
:103CD0006B0F8980C8010E94E40C982E811541F178
:103CE000D81026C08A818F77C81222C08CE0FE01CE
:103CF0007596DF01282F1D922A95E9F7DE011396AC
:103D000001900D928A95E1F78D2D80688983C80115
:103D10000E94CC0C988B8F87B801872D0E9473105E
:103D200066E274E082E896E00E945312712C0EC0A5
:103D3000739430E47312C8CF69E174E082E896E0CE
:103D40000E94440D77247394992493941C821B82BF
:103D50001E821D821A82198260EE72E0C8010E94E2
:103D60004C11C980DA80B8018CAD9DAD0E94D7108E
:103D7000882EC6010E94AB10811409F425C1BE2C07
:103D80004F2C44E0842E912C84E0E816F10420F4BA
:103D9000470134E0B32E412C1CA21BA21EA21DA27F
:103DA0001AA219A26E0191E2C90ED11C68E372E059
:103DB000C6010E944C115C2C6D2C89A19AA18E1415
:103DC0009F04B0F4CB2CD42CEC14FD0408F4670150
:103DD000C20CD31CD6014C901C92B101680D791D08
:103DE000852D962D0E94001389A19AA1F60140828B
:103DF0009AA389A3852D962D0E94F31059A06AA03D
:103E0000CE01C9969F938F9302979F938F930297AA
:103E10009F938F9302979F938F9302979F938F9374
:103E200002979F938F9385EE92E09F938F936F926B
:103E30005F920E94873D0FB6F894DEBF0FBECDBFE4
:103E4000069709F014C159AD4FA92DA98BA899A8BF
:103E50008FA598A9803D37E0930710F0805D9740CB
:103E6000482E8D8B9E8A8F8A19823AE0852F632F88
:103E70000E949E36982F990F980F990F950F9A834D
:103E8000842F0E949E36982F990F980F990F940FA8
:103E90009B83822F0E949E36982F990F980F990F1F
:103EA000920F9C836E0185E1C80ED11CC6010E9451
:103EB0001A06811101C087E08D832AE0882D622FC8
:103EC0000E949E36982F990F980F990F980D9E83F8
:103ED000892D0E949E36982F990F980F990F990D52
:103EE0009F83842D0E949E36982F990F980F990FCB
:103EF000940D988721E048E050E0B8018091D90402
:103F00009091DA040E94CD0F2FE0922E9BAE21E01B
:103F100041E050E0BE01655C7F4F8091D9049091F3
:103F2000DA040E94CD0F41E050E0BE01635D7F4F97
:103F30008091D9049091DA040E945A0D8DA59DA616
:103F40008F778EA721E042E050E0BE01635D7F4F96
:103F50008091D9049091DA040E94CD0F6DE074E055
:103F600082E896E00E94440DC6010E94FB0F8A8DF4
:103F70001F928F93898D1F928F93888D1F928F939D
:103F80008F891F928F938E891F928F938D8990E0D6
:103F90008053984F9F938F9387EF92E09F938F93D7
:103FA0001F930F930E94643DB80182E896E00E943F
:103FB00047120FB6F894DEBF0FBECDBF852D962DEC
:103FC0000E94AB10992493941C821B821E821D8236
:103FD0001A82198265E173E0C8010E944C11C98000
:103FE000DA80B8018CAD9DAD0E94D710B82EC60105
:103FF0000E94AB10B11409F45CC0470195E0A92EF2
:10400000B12CB5E0EB16F10420F4570185E0882EC1
:10401000912C1C821B821E821D821A82198268E3E7
:1040200072E0C8010E944C11AE14BF0418F109815E
:104030001A810115110531F0C8010E942337CB0107
:10404000892B69F51092DD040E94DA18C8010E94DC
:10405000AB1099249394EF2879F5711409F4ECC00E
:1040600066EF73E082E896E00E94440DD2C07724A8
:104070007394A4CF6401E814F90408F46701C20C36
:10408000D31CF60190801082B1016A0D7B1DC8011E
:104090000E94001309811A81D6019C92CACF613017
:1040A000710521F481E08093DD04D0CF77247394EF
:1040B000CDCFEF2809F4A3C06BE173E0C1010E94EA
:1040C000373D892BC1F563E673E082E896E00E94F4
:1040D000531264E573E082E896E00E9453126FE3A6
:1040E00073E082E896E00E94531265E273E082E892
:1040F00096E00E94531267E173E082E896E00E9426
:1041000053126DEF72E082E896E00E94531260EF66
:1041100072E082E896E00E94531269EE72E082E853
:1041200096E00E94531262EE72E082E896E00E94EE
:1041300053129924939460E273E0C1010E94373DC9
:10414000892B09F05CC062EE73E082E896E00E9481
:10415000440D60ED73E082E896E00E9453126BEC30
:1041600073E082E896E00E94440D6FEB73E082E812
:1041700096E00E94440D6CEA73E082E896E00E94AB
:10418000440D69EA73E082E896E00E94440D6DE90F
:1041900073E082E896E00E94440D80E290E00E9485
:1041A0003F0D64E973E082E896E00E94440D62E905
:1041B00073E082E896E00E9453126FE773E082E8B2
:1041C00096E00E94440D8091D8040E94E21182E89A
:1041D00096E00E94EB116DE673E082E896E00E94A3
:1041E000440D2AE040E150E060E070E082E896E0B3
:1041F0000E94851182E896E00E94EB112ECF91106B
:104200002CCF6DEF73E082E896E00E94440D7110B0
:1042100027CF67EE73E082E896E00E94531224E60F
:1042200030E040E550E060ED77E083E00E94A20BD3
:10423000C1010E94AB1065CA82E896E00E94EB11B2
:104240000E94BF0BF5CFBF92CF92DF92EF92FF9209
:104250000F931F93CF93DF9300D000D000D0CDB742
:10426000DEB7182F10923B011092680110921201D4
:10427000109209011C821B821E821D821A821982E1
:1042800065ED72E0CE0101967C010E94A115C98006
:10429000DA8061E0C7010E945419C6010E94AB1088
:1042A0008091D6049091D704BE2C0F2D892B09F153
:1042B0008AE090E09093AB078093AA070E944004A5
:1042C0006E5C7F4F8F4F9F4F6B017C010E944004BB
:1042D0006C157D058E059F0560F48091AA0790916D
:1042E000AB070B9731F0E091D604F091D704099514
:1042F000EDCF0E949B0C89E090E09093AB078093F8
:10430000AA071093D50480E1189FF0011124E1520F
:10431000FE4F868597859093D7048093D6041C82A0
:104320001B821E821D821A8219826DEC72E08B2D17
:10433000902F0E94A115E980FA8060E08B2D902FCC
:104340000E945419C7010E94AB106091D50490E1FE
:10435000699FB001112460527E4F82E896E00E946E
:104360005F1263EC72E082E896E00F900F900F907E
:104370000F900F900F90DF91CF911F910F91FF90B1
:10438000EF90DF90CF90BF900C945312EF92FF927A
:104390001F93CF93DF9300D000D000D0CDB7DEB70E
:1043A000182FE0911F07813039F18DEF810F823096
:1043B00018F1ED3008F11C821B821E821D821A82C8
:1043C000198269E970E0CE0101960E94A115E98089
:1043D000FA8061E0CE0101960E945419C7010F9046
:1043E0000F900F900F900F900F90DF91CF911F9132
:1043F000FF90EF900C94AB1087E0E89FF001112440
:10440000E05EF84F40835183628373831483168286
:1044100015821C821B821E821D821A82198260E90B
:1044200070E0CE0101960E94A115E980FA8060E05B
:10443000CE0101960E945419C7010E94AB10812F32
:104440000E94E21168E870E082E896E00E94531250
:1044500080911F078F5F80931F070F900F900F9021
:104460000F900F900F90DF91CF911F91FF90EF90E1
:104470000895CF92DF92EF92FF92CF93DF93CDB763
:10448000DEB72C970FB6F894DEBF0FBECDBFE0911C
:10449000AA07F091AB07EC30F10508F0C0C2E85E66
:1044A000FD4B0C94FF361C821B821E821D821A82D9
:1044B000198267EB77E0CE0101960E94A115E98091
:1044C000FA8061E0CE0101960E940F12C7010E949E
:1044D000AB108BE090E00E944C042C960FB6F89441
:1044E000DEBF0FBECDBFDF91CF91FF90EF90DF9089
:1044F000CF900C94130A80EE94E00E942E138CE46B
:1045000095E00E942E1386E195E00E942E130E94F2
:10451000130AAE014F5F5F4F60E081E00E94890F98
:104520008115E9F1298130E0A0E1BEE00E94DE4082
:104530006B017C012A8130E0ACE3B0E00E94DE40F8
:10454000C60ED71EE81EF91E8B81A7019601280F03
:10455000311D411D511DA8EEB3E00E949C406093A7
:1045600048017093490180934A0190934B012C813B
:1045700030E00E94DE406B017C012D8130E0A4E63A
:10458000B0E00E94DE40C60ED71EE81EF91EC092A3
:104590004401D0924501E0924601F092470124E0A7
:1045A00030E030938305209382058FE680938C055D
:1045B00030938E0520938D058093970580E090E0E1
:1045C00057C080917101811509F449C010927101A1
:1045D0000E94750C1C821B821E821D821A82198207
:1045E0006DEA77E0CE0101960E94A115E980FA807C
:1045F000CE0101960E941206C7010E94AB101C82D8
:104600001B821E821D821A8219826EE977E0CE011A
:1046100001960E94A115E980FA80AE014F5F5F4FBD
:1046200062E083E00E94A305C7010E94AB101C82D8
:104630001B821E821D821A8219826BE877E0CE01EE
:1046400001960E94A115E980FA80AE014F5F5F4F8D
:1046500063E081E00E94A305C7010E94AB10809136
:104660006801811509F4DBC11092680185E090E0D2
:104670002C960FB6F894DEBF0FBECDBFDF91CF9161
:10468000FF90EF90DF90CF900C944C0480917101DB
:10469000811509F48CC01092710181E08093A90703
:1046A0000E94750C1C821B821E821D821A82198236
:1046B00063E877E0CE0101960E94A115E980FA80B7
:1046C000CE0101960E941606C7010E94AB101C8203
:1046D0001B821E821D821A8219826EE677E0CE014D
:1046E00001960E94A115E980FA80AE014F5F5F4FED
:1046F00062E080E00E94A305C7010E94AB101C820B
:104700001B821E821D821A82198269E577E0CE0122
:1047100001960E94A115E980FA80AE014F5F5F4FBC
:1047200063E080E00E94A305C7010E94AB101092D5
:104730008305109282058BE680938C051092840588
:1047400010928505109286051092870540914801C8
:104750005091490160914A0170914B014093880545
:104760005093890560938A0570938B0510928E058E
:1047700010928D058093970587E0EDE2F3E0DE016E
:10478000119601900D928A95E1F787E0FE0131962E
:10479000ACE3B5E001900D928A95E1F787E0FE0168
:1047A0003196A6E0B5E001900D928A95E1F78091EF
:1047B000A907811509F10E944004AB01BC01809159
:1047C000440190914501A0914601B0914701C090EC
:1047D000A507D090A607E090A707F090A8078C0D3A
:1047E0009D1DAE1DBF1D84179507A607B70720F4B2
:1047F0001092A9070E94361380913B01811531F078
:1048000010923B0186E090E00E944C048091680188
:10481000811509F404C11092680181E090E028CF6D
:1048200080917101811509F4A1C01092710181E09C
:104830008093A9070E94750C1C821B821E821D8218
:104840001A82198263E577E0CE0101960E94A115D4
:10485000E980FA80CE0101960E941606C7010E94E7
:10486000AB101C821B821E821D821A8219826EE38B
:1048700077E0CE0101960E94A115E980FA80AE0191
:104880004F5F5F4F62E080E00E94A305C7010E9476
:10489000AB101C821B821E821D821A8219826FE25B
:1048A00077E0CE0101960E94A115E980FA80AE0161
:1048B0004F5F5F4F63E083E00E94A305C7010E9442
:1048C000AB1080913B01811110923B011092840545
:1048D0001092850510928605109287051092880522
:1048E0001092890510928A0510928B0510928F05FF
:1048F00010929005109291051092920510929305D6
:1049000010929405109295051092960510928305C9
:10491000109282058BE680938C0510928E05109282
:104920008D058093970568E875E084E895E00E941E
:10493000FB040E940B0C4091E40450E06FE272E033
:1049400086E095E00E941C3D4091500550E06BE2EE
:1049500071E082E795E00E941C3D40911A0550E00D
:104960006BE171E08CE395E00E941C3D8091A9070A
:10497000811581F10E944004AB01BC01809144018A
:1049800090914501A0914601B0914701C090A507C3
:10499000D090A607E090A707F090A8078C0D9D1D6A
:1049A000AE1DBF1D84179507A607B70798F4109290
:1049B000A907F0908C056F2D80EE94E00E94F40C16
:1049C0006F2D8CE495E00E94F40C6F2D86E195E04C
:1049D0000E94F40C80916801811519F01092680111
:1049E000EDCD80911201811529F01092120188E01D
:1049F00090E03ECE80910901811519F010920901D5
:104A0000F6CF8DE10E941B0A892B89F38EE10E946B
:104A10001B0A892B61F380913B0181110DC02C96FB
:104A20000FB6F894DEBF0FBECDBFDF91CF91FF90E0
:104A3000EF90DF90CF90089510923B010E946004A8
:104A40001C821B821E821D821A82198261E277E01B
:104A5000CE0101960E94A115E980FA8061E0CE01A5
:104A600001960E940F12C7010E94AB100E94861986
:104A700040913C0150913D0160913E0170913F0198
:104A800081E00E94C62180913C0190913D01A0915E
:104A90003E01B0913F018093840590938505A093DA
:104AA0008605B093870580938F0590939005A0931A
:104AB0009105B093920521E030E030938305209377
:104AC000820588E680938C0530938E0520938D05B2
:104AD0008093970582E090E0CBCD809171018115A4
:104AE000C1F0109271011C821B821E821D821A82EB
:104AF000198263E177E0CE0101960E94A115E98059
:104B0000FA8061E0CE0101960E940F12C7010E9457
:104B1000AB1080916801811161CF8DE10E941B0A69
:104B2000892B09F40EC120E030E08BE63093830539
:104B30002093820580938C058EE10E941B0A892BAD
:104B400009F403C180E090E02BE690938E058093FA
:104B50008D0520939705209182053091830525309E
:104B6000310519F0059709F0F4C08091DF04811533
:104B700049F024E630E040E550E060ED77E083E086
:104B80000E94A20B44E150E060E270E08AE396E00C
:104B90000E94253D8091820590918305059709F03B
:104BA000D8C01C821B821E821D821A8219826BE071
:104BB00077E0CE0101960E94A115E980FA80AE014E
:104BC0004F5F5F4F62E080E00E94A305C7010E9433
:104BD000AB101C821B821E821D821A82198265E024
:104BE00077E0CE0101960E94A115E980FA80BE010E
:104BF0006F5F7F4F8CE495E00E941804C7010E940C
:104C0000AB101C821B821E821D821A8219826FEFDA
:104C100076E0CE0101960E94A115E980FA80BE01DE
:104C20006F5F7F4F80EE94E00E941804C7010E94DE
:104C3000AB1080918D0590918E05059709F08EC07F
:104C40001C821B821E821D821A82198267EF76E007
:104C5000CE0101960E94A115E980FA80AE014F5F56
:104C60005F4F62E08DE00E94A305C7010E94AB1078
:104C70001C821B821E821D821A82198261EF76E0DD
:104C8000CE0101960E94A115E980FA80BE016F5FF6
:104C90007F4F86E195E00E941804C7010E94AB1087
:104CA0001C821B821E821D821A8219826BEE76E0A4
:104CB000CE0101960E94A115E980FA80BE016F5FC6
:104CC0007F4F80EE94E00E941804C7010E94AB1051
:104CD000809182059091830520918D0530918E05FC
:104CE000822B932B892B09F09ACE1C821B821E8269
:104CF0001D821A82198260EE76E0CE0101960E9432
:104D0000A115E980FA8061E0CE0101960E940F12A0
:104D1000C7010E94AB1080EE94E00E942E13809198
:104D200012018111109212018091090181111092DA
:104D3000090180913B01811509F46FCD10923B016F
:104D40006CCD25E030E08FE6F1CE85E090E02FE6F7
:104D5000FCCE8CE495E00E942E136BCF86E195E0AB
:104D60000E942E13B5CF809171018115C9F0109268
:104D700071010E94750C1C821B821E821D821A8288
:104D8000198265ED76E0CE0101960E94A115E980B9
:104D9000FA80CE0101960E941606C7010E94AB1050
:104DA0008091820590918305019709F072C08091EE
:104DB0001201811509F46DC0109212014091130186
:104DC000509114016091150170911601409388056E
:104DD0005093890560938A0570938B0582E090E07B
:104DE00090938305809382058BE680938C0583E006
:104DF0000E94C62161E08FE00E94850968E875E0A5
:104E000084E895E00E94FB040E940B0C60918C05E5
:104E10008CE495E00E94F40C8AE3809353014CE407
:104E200051E062E086E00E948E051C821B821E8299
:104E30001D821A82198260E476E0CE0101960E94FA
:104E4000A115E980FA80AE014F5F5F4F62E080E01C
:104E50000E94A305C7010E94AB101C821B821E8208
:104E60001D821A82198265E376E0CE0101960E94C6
:104E7000A115E980FA8060E0CE0101960E940F1230
:104E8000C7010E94AB106CE471E082E896E00E94DA
:104E9000471280918D0590918E05019709F072C09F
:104EA00080910901811509F46DC0109209014091AA
:104EB0000A0150910B0160910C0170910D0140931A
:104EC000930550939405609395057093960582E041
:104ED00090E090938E0580938D058BE680939705E7
:104EE00084E00E94C62161E082E10E94850963E9B5
:104EF00075E08FE895E00E94FB040E940B0C609126
:104F0000970586E195E00E94F40C8AE380935301B3
:104F10004CE451E063E086E00E948E051C821B8217
:104F20001E821D821A82198261E576E0CE01019609
:104F30000E94A115E980FA80AE014F5F5F4F63E0E8
:104F400080E00E94A305C7010E94AB101C821B8257
:104F50001E821D821A82198265E476E0CE010196D6
:104F60000E94A115E980FA8060E0CE0101960E94BE
:104F70000F12C7010E94AB106CE471E082E896E06A
:104F80000E9447128091820590918305029709F053
:104F900047C080918D0590918E05029709F040C021
:104FA0001C821B821E821D821A82198267E576E0AE
:104FB000CE0101960E94A115E980FA80CE010196EA
:104FC0000E941606C7010E94AB1080919305909134
:104FD0009405A0919505B091960540918805509152
:104FE000890560918A0570918B05481759076A07F2
:104FF0007B0788F463E975E08FE895E00E94FB0485
:105000000E940B0C60918C0580EE94E00E94F40CE1
:1050100084E090E02DCB68E875E084E895E0EECF81
:10502000F090DE04F11409F442C00E944004698348
:105030007A838B839C83BE016F5F7F4F8FE895E0FF
:105040000E94FB040E940B0C80918D0590918E05AF
:10505000019799F4F09097056F2D86E195E00E94F5
:10506000F40C6F2D80EE94E00E94F40C4CE451E0BF
:1050700063E086E00E948E05F12C8091820590917C
:1050800083050197A1F4E0908C056E2D8CE495E0EA
:105090000E94F40CF11459F06E2D80EE94E00E9401
:1050A000F40C4CE451E062E086E00E948E058091B1
:1050B0003B018115D1F110923B011C821B821E82A3
:1050C0001D821A8219826DEC76E0CE0101960E9453
:1050D000A115E980FA8061E0CE0101960E940F12CD
:1050E000C7010E94AB1040913C0150913D0160917D
:1050F0003E0170913F0182E00E94C6216CE371E0A5
:105100008FE895E00E94FB040E940B0C8AE38093D9
:1051100053014CE451E061E086E00E948E0545E2D7
:1051200053E061E080E00E948E0580916801811566
:1051300009F475CC109268011C821B821E821D82AC
:105140001A8219826EEB76E0CE0101960E94A115BB
:10515000E980FA8061E0CE0101960E940F12C7013A
:105160000E94AB104091690150916A0160916B01FE
:1051700070916C0185E00E94C6211C821B821E82F8
:105180001D821A82198261EB76E0CE0101960E949F
:10519000A115E980FA80CE0101960E941606C7018A
:1051A0000E94AB1022E030E030938305209382050B
:1051B0008BE680938C0530938E0520938D0580932C
:1051C000970526CF809171018115D1F01092710160
:1051D0001C821B821E821D821A82198262EA76E07C
:1051E000CE0101960E94A115E980FA8061E0CE010E
:1051F00001960E940F12C7010E94AB100E941D145D
:1052000080916801811509F40ACC109268010E940E
:10521000130AD4C980917101811509F45BC00E9401
:105220006004109271011C821B821E821D821A82F0
:10523000198262E976E0CE0101960E94A115E9800B
:10524000FA8061E0CE0101960E940F12C7010E9410
:10525000AB100E94750C1C821B821E821D821A825A
:10526000198265E876E0CE0101960E94A115E980D9
:10527000FA80CE0101960E941606C7010E94AB106B
:1052800081E090E090938E0580938D0588E6809371
:1052900097050E944004462F572FBC0140938F056D
:1052A00050939005609391057093920580918805C5
:1052B00090918905A0918A05B0918B05840F951F67
:1052C000A61FB71F8093930590939405A09395050F
:1052D000B0939605809168018115D9F0109268010C
:1052E0001C821B821E821D821A82198265E776E06B
:1052F000CE0101960E94A115E980FA8061E0CE01FD
:1053000001960E940F12C7010E94AB100E94BF0BB2
:1053100084CA8091DE04811509F481CB0E94400487
:10532000462F572FBC0140938F05509390056093F3
:105330009105709392058091930590919405A091A9
:105340009505B091960584179507A607B70770F0E5
:105350002C960FB6F894DEBF0FBECDBFDF91CF9174
:10536000FF90EF90DF90CF900C9436131C821B823D
:105370001E821D821A82198265E676E0CE010196B0
:105380000E94A115E980FA8061E0CE0101960E9499
:105390000F12C7010E94AB1081E090E00E944C0404
:1053A00020E030E040ED57E068EC70E081E02C96C2
:1053B0000FB6F894DEBF0FBECDBFDF91CF91FF9047
:1053C000EF90DF90CF900C94A20B0F931F93CF938D
:1053D000DF9300D000D000D0CDB7DEB78091AA0710
:1053E0009091AB078430910509F4B5C2B0F48130D7
:1053F000910509F4C5C08230910509F496C1892B45
:1054000009F466C00F900F900F900F900F900F90BF
:10541000DF91CF911F910F9108958930910531F15E
:105420000A9781F71C821B821E821D821A821982B2
:1054300066E276E0CE0101960E94A11509811A81EB
:1054400061E0CE0101960E940F12C8010E94AB10CC
:105450008BE090E00F900F900F900F900F900F90B7
:10546000DF91CF911F910F910C944C0480EE94E04A
:105470000E942E138CE495E00E942E1386E195E0A5
:105480000E942E130E94130A4091E40450E06FE240
:1054900072E086E095E00E941C3D40911A0550E0C4
:1054A0006BE171E08CE395E00E941C3D24E030E06C
:1054B00030938305209382058FE680938C0530938B
:1054C0008E0520938D058093970580E090E0C2CFF4
:1054D00080917101811509F449C0109271010E94F7
:1054E000750C1C821B821E821D821A8219826AE13F
:1054F00076E0CE0101960E94A11509811A81CE01A4
:1055000001960E941206C8010E94AB101C821B82E9
:105510001E821D821A8219826BE076E0CE0101960E
:105520000E94A11509811A81AE014F5F5F4F62E0B1
:1055300083E00E94A305C8010E94AB101C821B825D
:105540001E821D821A82198268EF75E0CE010196D3
:105550000E94A11509811A81AE014F5F5F4F63E080
:1055600081E00E94A305C8010E94AB1080916801F0
:10557000811509F447CF1092680181E090E06ACF6D
:1055800080917101811509F477C0109271010E9418
:10559000750C1C821B821E821D821A82198261EF89
:1055A00075E0CE0101960E94A11509811A81CE01F4
:1055B00001960E941606C8010E94AB101C821B8235
:1055C0001E821D821A8219826CED75E0CE01019651
:1055D0000E94A11509811A81AE014F5F5F4F62E001
:1055E00080E00E94A305C8010E94AB101C821B82B0
:1055F0001E821D821A8219826DEC75E0CE01019621
:105600000E94A11509811A81AE014F5F5F4F63E0CF
:1056100083E00E94A305C8010E94AB1010928F0581
:105620001092900510929105109292051092930598
:1056300010929405109295051092960580913B0169
:10564000811110923B0110928E0510928D058BE610
:105650008093970563E975E08FE895E00E94FB046D
:105660000E940B0C6BE680EE94E00E94F40C6BE65B
:1056700086E195E00E94F40C80916801811519F093
:105680001092680122CF80911201811110921201B3
:105690008091090181111092090180913B018115CE
:1056A00009F4B0CE10923B010E9460041C821B8260
:1056B0001E821D821A8219826DEB75E0CE01019661
:1056C0000E94A11509811A8161E0CE0101960E9414
:1056D0000F12C8010E94AB100E94861940913C0134
:1056E00050913D0160913E0170913F0181E00E9427
:1056F000C62180913C0190913D01A0913E01B09165
:105700003F0180938F0590939005A0939105B093EE
:10571000920581E090E090938E0580938D0588E658
:105720008093970582E090E095CE8091710181157C
:1057300089F1109271010E94750C1C821B821E82DD
:105740001D821A82198261EB75E0CE0101960E94DA
:10575000A11509811A81CE0101960E941606C80181
:105760000E94AB101C821B821E821D821A8219822B
:105770006CE975E0CE0101960E94A11509811A819C
:10578000AE014F5F5F4F61E080E00E94A305C8015A
:105790000E94AB1080911201811509F11092120143
:1057A00040911301509114016091150170911601FF
:1057B00040939305509394056093950570939605D7
:1057C00083E00E94C6210F900F900F900F900F90D2
:1057D0000F90DF91CF911F910F910C94C91580917B
:1057E00009018115A1F01092090140910A0150911F
:1057F0000B0160910C0170910D0140939305509342
:105800009405609395057093960584E0DACF8091B6
:105810003B018115D1F110923B011C821B821E823B
:105820001D821A82198264E975E0CE0101960E94F8
:10583000A11509811A8161E0CE0101960E940F1223
:10584000C8010E94AB1040913C0150913D01609114
:105850003E0170913F0182E00E94C6216CE371E03D
:105860008FE895E00E94FB040E940B0C8AE3809372
:1058700053014CE451E062E086E00E948E0545E26F
:1058800053E062E080E00E948E058091DE04811585
:1058900081F00E94400469837A838B839C83BE01DC
:1058A0006F5F7F4F8FE895E00E94FB0480E00E94CD
:1058B0001A0D80916801811509F4A4CD1092680138
:1058C0001C821B821E821D821A82198265E875E085
:1058D000CE0101960E94A11509811A8161E0CE01D5
:1058E00001960E940F12C8010E94AB1040916901FD
:1058F00050916A0160916B0170916C0185E00E948A
:10590000C62169E671E08FE895E00E94FB0481E022
:105910000E941A0D1C821B821E821D821A8219820D
:105920006DE775E0CE0101960E94A11509811A81EB
:10593000CE0101960E941606C8010E94AB1082E0BB
:1059400090E090938E0580938D058BE6809397056C
:1059500084E090E07FCD809171018115D1F01092AB
:1059600071011C821B821E821D821A8219826EE6C0
:1059700075E0CE0101960E94A11509811A8161E0AE
:10598000CE0101960E940F12C8010E94AB100E9426
:105990001D1480916801811173CE34CD1F921FB602
:1059A0001F9211248F939F93AF93BF938091A10770
:1059B0009091A207A091A307B091A4070196A11D01
:1059C000B11D8093A1079093A207A093A307B09362
:1059D000A4078091A0078F5F8093A007853228F0ED
:1059E00081E080939F071092A00780919E078F5FB0
:1059F00080939E078A3F28F081E080939D07109254
:105A00009E071092850010928400BF91AF919F91E4
:105A10008F911F901FBE1F9018951F920F920FB667
:105A20000F9211242F933F934F935F936F937F9324
:105A30008F939F93AF93BF93EF93FF939091B90090
:105A4000892F887F803509F4C7C008F045C08033AE
:105A500009F4BDC0B0F5883101F1D0F4883009F403
:105A6000AEC0803109F4ABC0811509F4FAC0FF91D2
:105A7000EF91BF91AF919F918F917F916F915F91C6
:105A80004F913F912F910F900FBE0F901F9018953F
:105A9000803209F49CC0883251F790916B04809158
:105AA0006A049817B0F5E0916804F0916904809158
:105AB0006B0491E0980F90936B04E80FF11D8081C7
:105AC00080C0803409F497C0883409F482C08833D8
:105AD00071F68093650471C0803A09F4A6C0D8F5C8
