:100000000C9437020C945F020C945F020C945F0214
:100010000C945F020C945F020C945F020C945F02DC
:100020000C945F020C946C180C94EA1B0C94C3198A
:100030000C945F020C945F020C945F020C945F02BC
:100040000C945F020C9410170C945F020C945F02E6
:100050000C945F020C945F020C945F020C94CF1816
:100060000C945F020C9417190C9444190C945F02C1
:100070000C945F020C945F020C945F020C945F027C
:100080000C946A190C945F020C945F020C945F024A
:100090000C944F170C945F020C945F020C945F0257
:1000A0000C945F020C945F020C945F026364696EAF
:1000B0006F70737578585B001209120912091200EB
:1000C00009120912091209000000120912000000A9
:1000D0000000091209000000436879626120446948
:1000E00073706C656A2032004368796261204469EC
:1000F00073706C656A2031004E6173746176656E51
:100100006920646973706C656A75005A61706E75F8
:10011000746920002D2D3E00507265706E757469F3
:10012000206D6F64756C75000312010002EF02010F
:100130004041233680000101020301040309044108
:10014000726475696E6F204C4C430041726475692E
:100150006E6F204C656F6E6172646F00080B000259
:100160000202000009040000010202000005240050
:1001700010010524010101042402060524060001E2
:100180000705810310004009040100020A00000075
:10019000070502024000000705830240000000003E
:1001A00000002300260029002C002F000000000280
:1001B00000090F0000030401000C00000000000013
:1001C000000000000000000000000000000000250A
:1001D0000028002B002E0031000000000024002722
:1001E000002A002D00300004040404040304050266
:1001F00002020204030202020206060606060604C2
:10020000040202020404040802011040804010208D
:1002100040804080080204018040201002011080CC
:10022000102040402053797374656D003E200027F4
:1002300020616B7469766E69004D6F64756C202760
:10024000005A6D656E61206D6F64756C75002020BD
:1002500068656C70002020696E666F0020207065F4
:100260007266203C307C313E00202064656C203C6E
:100270006D3E203C6B3E002020736574203C6D3E3B
:10028000203C6B3E2048205B2C482C482E2E2E5DB7
:10029000002020736574203C6D3E203C6B3E202284
:1002A00074657874220020206C697374205B6D5D26
:1002B000205B6B5D000A5072696B617A793A0020AD
:1002C0002020204C6F67207A617A6E616D753A202C
:1002D0000020202020506F636574206D6F64756C62
:1002E000753A2000290031303A30383A3533004A27
:1002F000756C2020362032303235002028002B76D5
:1003000034312D313658322D307832302D4D300089
:10031000524D5320302E322D7263310046573A2011
:100320000053616B756C2053746F706B7920763459
:100330002E310048573A2000205A6164656A202710
:1003400068656C70272E0043687962612E004E65E7
:100350007A6E616D79207072696B617A2E004E65DC
:100360006E616C657A656E6F2E20005A617A6E61DF
:100370006D20736D617A616E2E0043687962612E23
:100380002028486F646E6F747920707265732074D2
:100390006578743F290043687962612E202854658E
:1003A0007874207072657320686F646E6F74793F23
:1003B00029004F4B2E205465787420756C6F7A6538
:1003C0006E2E00436879626E792076737475702E94
:1003D000004E616C657A656E6F3A20002D2D2D2DD3
:1003E0002D2D2D2D2D2D2D2D2D2D2D0020200000DE
:1003F00020002020000020002020000020002D2DC3
:100400002D2D2D2D2D2D2D2D2D2D2D2D2D004D6FE7
:1004100064756C204B6C6963204461746100507298
:10042000696A61746F2027004B6F6E6563002D2D24
:1004300035352D2D20003131353230306269742050
:100440002768656C7027005465726D696E616C0079
:10045000454550524F4D20706C6E612100206D73E8
:10046000002040200050756C7A200000AD2211243D
:100470001FBECFEFDAE0DEBFCDBF12E0A0E0B1E0FB
:10048000E6E8F3E502C005900D92AA35B107D9F769
:1004900025E0AAE5B2E001C01D92AE39B207E1F74E
:1004A00012E0C7E3D2E004C02197FE010E94AA2314
:1004B000C633D107C9F70E94571C0C94A8290C9485
:1004C00000002FB7F8946091960570919705809180
:1004D0009805909199052FBF08952FB7F8944091F2
:1004E00096055091970560919805709199058091B6
:1004F0008400909185002FBF40933C0550933D05AB
:1005000060933E0570933F05880F991F880F991FD0
:1005100090933B0580933A0581E0809339050895D7
:100520002FB7F894409196055091970560919805E2
:100530007091990580918400909185002FBF409320
:100540003505509336056093370570933805880F4D
:10055000991F880F991F909334058093330581E08C
:100560008093320508952FB7F894409196055091E5
:1005700097056091980570919905809184009091FC
:1005800085002FBF40932E0550932F0560933005B3
:1005900070933105880F991F880F991F90932D052F
:1005A00080932C0581E080932B0508952FB7F89454
:1005B0004091960550919705609198057091990525
:1005C00080918400909185002FBF40932705509320
:1005D00028056093290570932A05880F991F880FB5
:1005E000991F909326058093250581E0809324052B
:1005F0000895CF93DF93DA0114964D915C9115978E
:1006000090E1981B491708F4942FE62FF0E0F1953C
:10061000E195F109E071FF27E80FF11DED5FFA4F59
:1006200020E030E0291718F0DF91CF9108952417CA
:10063000350770F46D917C9111976115710541F04A
:10064000620F731FEB01888181932F5F3F4FEACFC9
:1006500080E0FACF80E090E008950895089508952D
:10066000DC01ED91FC910684F785E02D40E00994D2
:10067000DC01ED91FC910684F785E02D41E00995C0
:1006800081E090E008952F923F924F925F926F9297
:100690007F928F929F92AF92BF92CF92DF92EF9212
:1006A000FF920F931F93CF93DF93CDB7DEB72997B8
:1006B0000FB6F894DEBF0FBECDBFC12CD12C00E029
:1006C000209165012987A090660170906701609074
:1006D00068015090690140906A0130906B01209050
:1006E0006C01760110E0F701ED5FFA4FB080C701B1
:1006F0008D519B4F4C01FC0180818B1569F1F9856F
:10070000FD83AE827F82688659824A823B822C8238
:100710002091D1048FEF820F021708F4802F90E010
:100720003091D204303109F03FC02430E9F521E0A6
:1007300030E02C0F3D1F820F931FFC016081610F81
:1007400060688AEC94E00E9430036B2D8AEC94E0A0
:100750000E943803F401B0821F5FFFEFEF1AFF0A17
:10076000103109F681E0800F20E1C20ED11C01E0BA
:10077000823009F0B6CF29960FB6F894DEBF0FBECF
:10078000CDBFDF91CF911F910F91FF90EF90DF9040
:10079000CF90BF90AF909F908F907F906F905F9021
:1007A0004F903F902F90089525E030E0C2CF0895FC
:1007B0000895DC0181E001C0880F6A95EAF71C9674
:1007C0008C931C971A965C934E931997ED91FC911C
:1007D00011970484F585E02D60E0CD0109948091A6
:1007E000050490910604891B990B089590910604C5
:1007F000809105042FEF3FEF981748F4E92FF0E0C0
:10080000EF53FC4F208130E09F5F90930604C901B5
:100810000895E091060480910504E81730F4F0E0B3
:10082000EF53FC4F808190E008958FEF9FEF089584
:1008300008952091BD03260F3327331F2132310540
:10084000ECF42091C003FC0180E090E0243069F0DA
:1008500082E00895A091BD032191AC0143565C4F05
:10086000A40FB52FB11D2C930196861798F3809194
:10087000BD03680F6093BD0380E0089581E0089593
:10088000CF93DF930F92CDB7DEB7FC0169838091E0
:100890000A048115F1F080910704803250F081E064
:1008A00090E09383828380E090E00F90DF91CF917E
:1008B000089580910804E82FF0E0EF51FC4F9981F2
:1008C00090838F5F809308048093070481E090E019
:1008D000ECCF61E0CE0101960E941904F7CFCF92D0
:1008E000DF92EF92FF920F931F93CF93DF937C01E0
:1008F000CB018A0120910A042115D9F0EB016B018B
:10090000C40ED51ECC15DD0551F4C801DF91CF9181
:100910001F910F91FF90EF90DF90CF900895699114
:10092000D701ED91FC910190F081E02DC70109956F
:10093000E9CF642F0E941904E8CF1F93CF93DF9370
:10094000DC0152968D919C915397009751F421E0D0
:1009500030E013963C932E931297DF91CF911F9125
:1009600008951D96ED91FC911E971C962C911C9755
:10097000322F30957FB754964C915497142F1270A4
:1009800041FD21C0F894408143234083EC0121972D
:10099000F1F748E0508160FF1BC0522B5083EC01FF
:1009A0002197F1F766954A95A9F78081111591F085
:1009B000832380837FBF52968D919C910197F1F79D
:1009C00081E090E0CACF6095F8944081422BDDCF62
:1009D0005323E4CF822BEDCF8FEF9FEF089580E07C
:1009E00090E0089508953FB7F89480914603909160
:1009F0004703A0914803B091490326B5A89B05C0C1
:100A00002F3F19F00196A11DB11D3FBFBA2FA92F8D
:100A1000982F8827BC01CD01620F711D811D911D8A
:100A200042E0660F771F881F991F4A95D1F70895F6
:100A30004F925F926F927F928F929F92AF92BF92EE
:100A4000CF92DF92EF92FF920F931F93CF93DF939A
:100A50008B01D82FC92F0E94F304262F822E972EA8
:100A60005C016801ED2EFC2E05C0C114D104E10427
:100A7000F10409F10E94F3042B013C0148185908C4
:100A80006A087B088601DE2DCF2D31E0C31AD1081C
:100A9000E108F108282D792DC50138EE830E33E0E9
:100AA000931EA11CB11C38EE431633E053066104BB
:100AB0007104D8F6D3CFDF91CF911F910F91FF90A2
:100AC000EF90DF90CF90BF90AF909F908F907F90EE
:100AD0006F905F904F9008950F931F93CF93DF9384
:100AE000EC01423018F08C8188608C834F836887DA
:100AF000211529F0413019F48C8184608C8364E6DF
:100B000070E080E090E00E9418056C8164FD5CC09C
:100B1000E881F9810684F785E02D42E063E0CE01AB
:100B200009958BE496E40197F1F7E881F981068451
:100B3000F785E02D42E063E0CE01099503E512E080
:100B4000C8010197F1F7E881F9810684F785E02D66
:100B500042E063E0CE010995C8010197F1F7E88111
:100B6000F9810684F785E02D42E062E0CE01099527
:100B7000C8010197F1F76C816062CE010E943003D9
:100B80008BEE90E00197F1F784E08D836CE0CE016D
:100B90000E94300361E0CE010E9430038BE39FE1AD
:100BA0000197F1F782E08E8366E0CE010E94300368
:100BB000E881F9810484F585E02D6FEFCE01DF91A6
:100BC000CF911F910F9109946062CE010E94300372
:100BD0008BE496E40197F1F76C816062CE010E948C
:100BE000300303E512E0C8010197F1F76C81606200
:100BF000CE010E943003BCCFCF93DF9390E0FC0185
:100C0000EA5FFD4F249189519E4FFC01849181152B
:100C1000D1F090E0880F991FFC01E752FE4FA5919B
:100C2000B591FC01E553FE4FC591D5919FB7623058
:100C300069F4F8943C91822F809583238C9388816A
:100C4000822B88839FBFDF91CF910895F8948C9178
:100C5000822B8C93F7CF81508F30C0F5E82FF0E0D6
:100C6000E655F64D0C94AA23809180008F778093EF
:100C700080000895809180008F7DF9CF8091800061
:100C8000877FF5CF84B58F7784BD089584B58F7D38
:100C9000FBCF809190008F77809390000895809192
:100CA00090008F7DF9CF80919000877FF5CF809164
:100CB000C0008F778093C00008958091C0008F7D21
:100CC000F9CF8091C200877F8093C20008951F935F
:100CD000CF93DF93162F282F30E0F901E455FE4F14
:100CE0008491F901EA5FFD4FD491F901E951FE4F7A
:100CF000C491C115A1F081110E942B06EC2FF0E0E8
:100D0000EE0FFF1FE553FE4FA591B5919FB7F894E5
:100D10008C91111108C0D095D823DC939FBFDF912F
:100D2000CF911F9108958D2B8C93F8CFDF92EF9286
:100D3000FF920F931F93CF93DF938C01D62ED0E0B9
:100D4000F8018481D81740F0DF91CF911F910F9166
:100D5000FF90EF90DF9008957801ED0EF11CF70100
:100D6000C68186898C1302C0D114E9F19EE0C53496
:100D7000C9F07CF4C03219F024F4C11108C090E02D
:100D800011C080ED8C0F91ED9C0F8A3058F09FE0E0
:100D900009C09CE0C03531F09DE0C53519F09BE0FD
:100DA000CC34A9F7F801A081B18162818381680FF9
:100DB0006D0F9295907F690FED91FC9111970190C5
:100DC000F081E02DCD010995D1110AC0F80185818E
:100DD000811531F061E0C03209F460E00E946706DD
:100DE000F7018681868BDF5FABCF1092C00381E075
:100DF0008093BF031092BE0361E082E00E94670609
:100E000061E083E00E946706E9EBF0E080818E7F7D
:100E1000808380818D7F808388E48093B80085E41F
:100E20008093BC000895CF93DF9391E09093970354
:100E30008115B9F0C091B800D091BA008091BC0082
:100E40008A7B8093BC0060E082E00E94670660E0DD
:100E500083E00E9467060E94F506D093BA00C09313
:100E6000B800DF91CF910895CF93DF93282F30E022
:100E7000F901E455FE4F8491F901EA5FFD4FD491E9
:100E8000F901E951FE4FC491C11581F081110E9411
:100E90002B06EC2FF0E0EE0FFF1FE256FE4FA59160
:100EA000B591EC91ED2381E0E11101C080E090E08B
:100EB000DF91CF910895FC018485958597FD0BC046
:100EC0009FB7F89482E08093E9008091F2009FBF81
:100ED00090E0019608959FB7F89482E08093E9002E
:100EE0008091F2009FBF90E0089583E08093E90035
:100EF0008091F200811519F08AE38093E80008954B
:100F0000CF93DF930F92CDB7DEB7DC016983ED910C
:100F1000FC910280F381E02D41E050E0BE016F5F63
:100F20007F4F09950F90DF91CF910895FC01A48D1B
:100F3000A80FB92FB11DA35ABF4F2C91848D90E0FB
:100F400001968F739927848FA689B7892C93A089DE
:100F5000B1898C9182748C93938D848D981306C083
:100F60000288F389E02D80818F7D80830895FC01C4
:100F7000818D228D90E0805C9F4F821B91098F7341
:100F80009927089586EA92E00E94B7079C0181E0C4
:100F9000232B09F480E0089580E090E0892B29F06C
:100FA0000E94C20781110C9400000895FC01918DEC
:100FB000828D981731F0828DE80FF11D858D90E0BC
:100FC00008958FEF9FEF0895FC01918D828D981702
:100FD00061F0A28DAE0FBF2FB11D5D968C91928DE9
:100FE0009F5F9F73928F90E008958FEF9FEF08951A
:100FF000FC01538D448D842F90E0252F30E0821B1F
:10100000930B541710F0CF96089501970895CF933E
:10101000DF93EC01888D81110FC0DF91CF9108958E
:101020000FB607FC0DC08C9185FF0AC0808185FF3B
:1010300007C0CE010E949607AA89BB89E889F98971
:101040008C9185FDEDCF808186FFEACFE6CFEF92D0
:10105000FF920F931F93CF93DF93EC01F62E81E065
:10106000888F9B8D8C8D981319C0E889F9898081B0
:1010700085FF14C09FB7F894EE89FF896083E889E3
:10108000F9898081827480839FBF81E090E0DF9145
:10109000CF911F910F91FF90EF9008950B8D10E06D
:1010A0000F5F1F4F0F731127E02E8C8D8E1579F077
:1010B000EB8DEC0FFD2FF11DE35AFF4FF0829FB730
:1010C000F8940B8FEA89FB8980818062DCCF0FB6B0
:1010D00007FCEBCFE889F989808185FFE6CFCE0157
:1010E0000E949607E2CFCF92DF92EF92FF920F938A
:1010F0001F93CF93DF937C016A0100E010E00C1591
:101100001D0551F4C801DF91CF911F910F91FF9000
:10111000EF90DF90CF900895EB01D701ED91FC9116
:101120000190F081E02D6991C7010995892B51F358
:101130000F5F1F4FBE01E3CF615028F4289884E66B
:1011400080939E020895FC018091F1008193CF016C
:10115000F3CF40919C0250919D0220919A023091D0
:101160009B0242175307BCF49091E80095709115CB
:10117000D9F39091E80092FD19C08093F10080911D
:101180009C0290919D0201968F739927892B19F4E7
:101190008EEF8093E80080919C0290919D020196D1
:1011A00090939D0280939C0281E0089580E00895D1
:1011B000EF92FF920F931F93CF93DF93F82E192F87
:1011C000E62E042F81E0860F880F0E94A90883E095
:1011D0000E94A908CF2DD12FEC0EFD2EF11CCE15AB
:1011E000DF0511F481E00EC0011599F0FE01849134
:1011F0000E94A908182F80E00E94A9088123219647
:101200008111EDCFDF91CF911F910F91FF90EF9062
:1012100008958881EDCF8091630281110DC082E035
:1012200080935F0284E080936002109262021092C9
:10123000610281E0809363028FE592E008952FB709
:10124000F89483E08093E9009091E800892F807200
:1012500095FF04C09091F20080E4891B2FBF089590
:101260000E941F0990E008958F929F92AF92BF92C3
:10127000CF92DF92EF92FF920F931F93CF93DF9362
:101280007C018B01EA0180912C01811571F1809123
:101290004503811551F18091440380FF05C0809181
:1012A000E00082608093E0006E01B12C8AEFA82EEE
:1012B00093E0892E2AE3922E0CC00E941F0981110F
:1012C00029C0AA9491F061E070E080E090E00E9473
:1012D0001805C114D10489F7B110EFCF5D9884E6E9
:1012E000809343031C161D063CF081E090E0F7015B
:1012F00093838283C0E0D0E0CE01DF91CF911F9134
:101300000F91FF90EF90DF90CF90BF90AF909F90A4
:101310008F900895C816D1040CF48C2D9FB7F894C3
:101320008092E9002091E80025FD02C09FBFD1CF47
:10133000282F30E0C81AD108A801815040F4020FCC
:10134000131FB11451F09092E800B12CEFCFFA01C5
:1013500041914093F100AF01F0CF8091E80085FD0D
:10136000F4CF9092E800BB24B394C114D104F1F2FD
:10137000ECCF8F929F92AF92BF92CF92DF92EF927B
:10138000FF920F931F93CF93DF93D0910704C1E097
:10139000D13208F09EC0F09009040E94F3044B0182
:1013A0005C01C091C003C1116EC082E08093C00394
:1013B00081E08093BF038FEF8093730310929503B6
:1013C000D093940321EE33E0A4E7B3E0F9018E2F2C
:1013D000821B8D1708F491C010929603809196039A
:1013E000FF0CF82AF09296038091BE03813009F039
:1013F00087C01092BE030E94F3046B017C018091B0
:1014000096038093BB008091990390919A03A091D9
:101410009B03B0919C03892B8A2B8B2BA1F00E94FC
:10142000F3048090990390909A03A0909B03B0904E
:101430009C036C197D098E099F0986169706A806DC
:10144000B90608F441C08091BC0083FDD8CF85EC7B
:101450008093BC000E94F3046B017C018091C00367
:10146000823009F44FC0809173038F3F91F18091D6
:101470007303C2E0803269F180917303C3E080336B
:1014800041F1C4E026C08091990390919A03A09104
:101490009B03B0919C03892B8A2B8B2B09F481CF62
:1014A0000E94F3040091990310919A0320919B03E9
:1014B00030919C03681979098A099B090617170757
:1014C0002807390708F06DCF809198030E94130711
:1014D000C5E0109208041092070410920A048C2FA1
:1014E000DF91CF911F910F91FF90EF90DF90CF9000
:1014F000BF90AF909F908F90089581918D9367CF0B
:1015000085EEA6CF8091990390919A03A0919B03B9
:10151000B0919C03892B8A2B8B2B09F49FCF0E94BF
:10152000F3048090990390909A03A0909B03B0904D
:101530009C036C197D098E099F0986169706A806DB
:10154000B90608F08BCFC0CF90914503911103C02D
:101550008FEF9FEF08952FB7F89492E09093E900F2
:101560009091F200492F50E0911102C0452B31F0CB
:10157000289884E680939E028091F100911102C028
:101580002FBFE6CF9091F200911103C09BE690939C
:10159000E8002FBF90E00895CF93DF93EC018C8596
:1015A0009D8597FF04C00E94A40A9D878C87DF91C8
:1015B000CF910895FC018485958597FD0C94A40A2C
:1015C0002FEF3FEF3587248708950F931F932FB791
:1015D000F89480914B0390914C03A0914D03B091EE
:1015E0004E032FBF80934A0590934B05A0934C0563
:1015F000B0934D0582E495E00E94DA0A8F3F980788
:1016000021F52FB7F89440914B0350914C03609112
:101610004D0370914E032FBF00914A0510914B0569
:1016200020914C0530914D05401B510B620B730B03
:1016300000914605109147052091480530914905D4
:101640004017510762077307A8F21F910F91089581
:1016500040E150E060E270E083E095E00E941D26EA
:1016600040E150E060E270E083E195E00C941D26DB
:1016700090916B008095892380936B0080916B0023
:10168000811105C0809168008E7F80936800089565
:1016900093B190935003EBE6F0E09081982B908308
:1016A000E8E6F0E08081816080830895CF938DE645
:1016B00092E09093550180935401C091230580E1FD
:1016C0000E94480B80E992E090935301809352016D
:1016D00080E20E94480B83EB92E09093510180934B
:1016E000500180E40E94480B86ED92E090934F01F8
:1016F00080934E01C06FC093230580E8CF910C9476
:10170000480BFC01AC01425F5F4F8FEF9FEF2191CF
:10171000922728E0BC01880F991F77FF04C031E2AF
:10172000832730E193272A95A9F74E175F0779F7AA
:101730000895CF93DF93EC010E94810B9C0181E01F
:101740004E855F854217530709F080E0DF91CF9106
:101750000895809120018C3069F4E8E2F1E0E49191
:101760008FEF80932001E330D1F040F4E11571F068
:10177000E13079F060E08CE00C946706E430D1F75A
:10178000809172008F7B80937200F4CF10926E0074
:10179000F1CF80916F008D7F80936F00EBCF8091B0
:1017A00071008D7F80937100E5CFFC0144815581EC
:1017B0006081718182E495E00C943409CF93DF93CA
:1017C000EC01FE016491611539F082E495E00E941C
:1017D00080072196892BA9F7DF91CF910895682F73
:1017E00082E495E00C948007FF920F931F93CF93B0
:1017F000DF93F82EEB018B01040F151FC017D107E3
:1018000049F0F11469F0FE0184910E94A908219623
:101810008111F4CFDF91CF911F910F91FF90089527
:101820008881F3CF0F931F93CF93DF930F92CDB7A0
:10183000DEB782E0898342E450E06CE571E080E845
:101840000E94F40B0E940B09DC0112960D911C9171
:101850000115110539F489810F90DF91CF911F9106
:101860000F910895D801ED91FC910280F381E02D54
:10187000BE016F5F7F4FC801099597FDECCFF8015E
:1018800000851185E5CFFC018381811599F0818167
:10189000682B6083828191E090930A04809309040D
:1018A00010920804109207048BE094E00E94400418
:1018B0000C94B9090895EF92FF920F931F93CF9361
:1018C000DF93EC01162F042FF22E8B85888B10925C
:1018D00006041092050410920804109207040E9456
:1018E000F50687ED93E0909304048093030488ED5C
:1018F00093E090930204809301048889EE24E3949A
:10190000E0920A04809309040E94B909811111C070
:10191000E98A8BE094E00E94F6038E87898981151D
:1019200049F01F861C8260E0CE010E960E94430C97
:1019300001C0198A2F2D402F612FCE01DF91CF9149
:101940001F910F91FF90EF900C946C05FC01862F76
:101950006485611599F0218532852115310521F4C1
:10196000811107C060E005C021303105D9F7811130
:10197000F9CF6587CF010E960C94430C0895EF9232
:10198000FF921F93CF93DF93EC01FC019C012C5F2E
:101990003F4F80E060FF02C09589892B66953196A4
:1019A000E217F307B9F7413009F44C899D85892B7B
:1019B000142F182B7E018EE0E80EF11C6A89612B32
:1019C000C7010E94430C6A8960956123C701DF91BA
:1019D000CF911F91FF90EF900C94430C0F931F93A6
:1019E000CF93DF93D82FC92F142F062F0F7040E00D
:1019F000123031F062956F70412F0E94BF0C412F61
:101A0000602F8D2F9C2FDF91CF911F910F910C9400
:101A1000BF0CEF92FF920F931F93CF93DF9390E150
:101A2000899F80011124EB01CB0140967C01C80104
:101A30000E945B2989930F5F1F4FCE15DF05B9F711
:101A4000DF91CF911F910F91FF90EF900895EF924A
:101A5000FF920F931F93CF93DF93CDB7DEB76097BD
:101A60000FB6F894DEBF0FBECDBF082FF62EE72EBF
:101A700011E0BE016F5F7F4F8FEF810F0E94090D54
:101A8000CE0101960E94990B8115E9F0998191117F
:101A90001AC09A819F77901316C09CE0FE0133967E
:101AA000AF2DBE2D01900D929A95E1F760960FB67D
:101AB000F894DEBF0FBECDBFDF91CF911F910F9184
:101AC000FF90EF9008951F5F103499F680E0EECFFD
:101AD000CF92DF92FF920F931F93CF93DF9390E10A
:101AE000899F80011124EB01CB0140966C01F99094
:101AF000C8010E945B29F81621F06F2DC8010E94D1
:101B000063290F5F1F4FCC15DD0589F7DF91CF915A
:101B10001F910F91FF90DF90CF90089585ED8093F6
:101B2000BC008091990390919A03A0919B03B0917E
:101B30009C030796A11DB11D23E0B695A795979527
:101B400087952A95D1F72091BC0024FD03C01092FF
:101B5000C00308954091990350919A0360919B03AB
:101B600070919C03452B462B472B69F30097A105E9
:101B7000B10541F02AE22A95F1F700C00197A109C9
:101B8000B109E1CF809198030C941307BC01009731
:101B900061F0FC0101900020E9F73197AF01481B8B
:101BA000590B82E495E00C943409089580EE91E09D
:101BB0000C94C60D1F93CF93DF93D62FC72F142FEE
:101BC0000E94D50B8CE292E00E94DE0B8D2F9C2FA1
:101BD000111539F00E94D50BDF91CF911F910C9414
:101BE000D60DDF91CF911F910C94D50B0E94DE0B87
:101BF0000C94D60D0E94C60D0C94D60D4F925F9298
:101C00006F927F928F929F92AF92BF92CF92DF920C
:101C1000EF92FF920F931F93CF93DF93CDB7DEB771
:101C2000A1970FB6F894DEBF0FBECDBF762E672EFC
:101C3000582E492E19A2423008F44AE08E010F5D59
:101C40001F4FC42ED12CE12CF12C672D762D852D24
:101C5000942DA70196010E946923872C962CA52C10
:101C6000B42C722E632E542E452E6A301CF5605D06
:101C7000F80162938F018C149D04AE04BF0428F711
:101C8000CF010E94C60DA1960FB6F894DEBF0FBE1D
:101C9000CDBFDF91CF911F910F91FF90EF90DF901B
:101CA000CF90BF90AF909F908F907F906F905F90FC
:101CB0004F900895695CDCCFCF93DF93EC0188816E
:101CC0009981009711F00E94CD24198218821D82FB
:101CD0001C821B821A82DF91CF910895009711F028
:101CE0000C94CD2408950F931F93CF93DF93EC01B1
:101CF0008B0188819981009729F02A813B812617E1
:101D0000370790F4B8016F5F7F4F0E945E25FC019A
:101D100080E0309751F0F983E8831B830A838C813C
:101D20009D81892B09F4108281E0DF91CF911F9171
:101D30000F910895EF92FF920F931F93CF93DF932C
:101D4000EC018B016115710569F0FB010190002028
:101D5000E9F731977F01E61AF70AB7010E94730E7F
:101D6000811109C0CE01DF91CF911F910F91FF909A
:101D7000EF900C945C0EFD82EC82B8018881998111
:101D8000DF91CF911F910F91FF90EF900C94382627
:101D9000EF92FF920F931F93CF93DF93EC017B01A0
:101DA000FB0101900020E9F731978F01061B170B0B
:101DB000B8010E94730E811109C0CE01DF91CF914D
:101DC0001F910F91FF90EF900C945C0E1D830C837C
:101DD000B70188819981DF91CF911F910F91FF9079
:101DE000EF900C943826CF92DF92FF920F931F93BF
:101DF000CF93DF9300D000D000D0CDB7DEB78C01F9
:101E0000F62E2091170480E1289FB00111246F5213
:101E10007E4F1C821B821E821D821A821982CE0175
:101E200001960E94C80EC980DA804F2DB801CE01FC
:101E300001960E94DA0DC6010F900F900F900F903F
:101E40000F900F90DF91CF911F910F91FF90DF9036
:101E5000CF900C946E0EDC01FB01448155811496E9
:101E60008D919C9115978417950778F08D919C9191
:101E7000009759F0608171816115710531F00E9400
:101E80003F269C0181E0232B09F080E00895EF922A
:101E9000FF920F931F93CF93DF93EC018B01CB0144
:101EA0000E9405247C01BC01CE010E94730E8111A9
:101EB00009C0CE01DF91CF911F910F91FF90EF905C
:101EC0000C945C0EEC82FD82B80188819981DF91CF
:101ED000CF911F910F91FF90EF900C94FE238F9262
:101EE0009F92AF92BF92CF92DF92EF92FF920F93A9
:101EF0001F93CF93DF9300D000D000D0CDB7DEB7D3
:101F00000E94280B1C821B821A8219821E821D824B
:101F100067E474E0AE014F5F5F4F5A01CA010E944F
:101F2000470FC980DA80ED80FE8048E050E061E034
:101F300070E083E095E00E941D2648E050E062E0FA
:101F400070E08BE095E00E941D2600E110E00E1984
:101F50001F09169507954501003128F4A50160E099
:101F6000802F0E94F90211270D5F1A4FF80180E2BD
:101F70008293F801EE0DFF1D8083C6010E946E0E54
:101F80001C821B821E821D821A82198266E374E003
:101F9000C4010E94470F09811A81A40161E080E019
:101FA0000E94F902C8010E946E0E1C821B821A82D6
:101FB00019821E821D826EE274E0C4010E94470FE6
:101FC00089819A816D817E81F0909804EAE9F4E03C
:101FD000A62FA150BB0B9D0140E04F1126C00E94CF
:101FE0006E0E4091620450E060E270E084E694E09E
:101FF0000E941D2640912C0450E060E270E08EE2C9
:1020000094E00F900F900F900F900F900F90DF9132
:10201000CF911F910F91FF90EF90DF90CF90BF90E5
:10202000AF909F908F900C941D262617370760F471
:10203000009751F08C01020F131FD8015C9151934E
:102040004F5F21503109C9CF50E0F9CFCF92DF92D5
:10205000FF920F931F93CF93DF9300D000D000D057
:10206000CDB7DEB78C01F62E1C821B821E821D822C
:102070001A82198265E272E0CE0101960E94470F32
:10208000C980DA804F2DB801CE0101960E94DA0D89
:10209000C6010F900F900F900F900F900F90DF914F
:1020A000CF911F910F91FF90DF90CF900C946E0E07
:1020B0008F929F92AF92BF92CF92DF92EF92FF9258
:1020C0000F931F93CF93DF9300D000D000D0CDB7F4
:1020D000DEB78C01DB01FA018FB7F8948D909D90EB
:1020E000AD90BC90E080F1808FBFF801818192813A
:1020F000A381B481A5019401281B390B4A0B5B0B0A
:10210000DA01C901278182179105A105B10508F4FB
:1021100075C081829282A382B482F682E58281E0D8
:1021200080831C821B821E821D821A82198265E6B0
:1021300074E0CE0101960E94470FC980DA8060E00A
:10214000CE0101960E942610C6010E946E0EF80173
:1021500080850E94EF0B0655114059F4809140058F
:1021600090914105892B29F46BE282E495E00E946D
:10217000800781E694E00E94DE0B4AE0C501B401CD
:102180000E94FE0D6EE282E495E00E948007C70186
:1021900064E670E00E945523605D82E495E00E9451
:1021A00080072AE030E0C701B9010E945523182FAB
:1021B000CB01B9010E94552360E3680F82E495E0EA
:1021C0000E94800760E3610F82E495E00E9480072F
:1021D0008DE594E00F900F900F900F900F900F905F
:1021E000DF91CF911F910F91FF90EF90DF90CF90F3
:1021F000BF90AF909F908F900C94F60D0F900F9022
:102200000F900F900F900F90DF91CF911F910F9132
:10221000FF90EF90DF90CF90BF90AF909F908F9006
:1022200008957F928F929F92AF92BF92CF92DF924A
:10223000EF92FF920F931F93CF93DF93CDB7DEB74B
:1022400066970FB6F894DEBF0FBECDBF982EB62EA0
:10225000742E852EA12C8E010F5F1F4FC982DA824A
:10226000B8018A2D0E94090DC980DA80C8010E9438
:10227000990B7801811579F19C102DC08D2D8F77E8
:10228000B81229C0BD1083C08CE0E72DF82DDE0107
:10229000139601900D928A95E1F7C8010E94810B77
:1022A000988B8F87B8018A2D0E94680D81E0669611
:1022B0000FB6F894DEBF0FBECDBFDF91CF911F9157
:1022C0000F91FF90EF90DF90CF90BF90AF909F90D5
:1022D0008F907F900895A39480E4A812BFCF10E060
:1022E000C982DA82B701812F0E94090DC980DA8084
:1022F000C7010E94990B8115B9F01F5F103481F757
:1023000000E0C982DA82B701802F0E94090DC980DE
:10231000DA80C7010E94990B811511F0C7FC1AC021
:102320000F5F003471F71FEF0FEF8CE0E72DF82DF2
:10233000DE01139601900D928A95E1F79982BA8297
:10234000C7010E94810B988B8F871F3F29F0B7012F
:10235000812FAACF1FEFE9CFB701802F0F3F09F0E0
:10236000A3CF1C8A1B8A1E8A1D8A1A8A198A60E5D5
:1023700074E0CE0141960E94470F09891A8961E0F5
:10238000CE0141960E942610C8010E946E0E80E088
:102390008ECF2F923F924F925F926F927F928F9249
:1023A0009F92AF92BF92CF92DF92EF92FF920F93E4
:1023B0001F93CF93DF93CDB7DEB7AD970FB6F894E9
:1023C000DEBF0FBECDBF80914005909141058B309F
:1023D000910541F18A309105F1F51C821B821E8224
:1023E0001D821A82198268E274E0CE0101960E9471
:1023F000470F09811A8161E0CE0101960E94F30E18
:10240000C8010E946E0E4091980450E060E270E0B6
:102410008AE994E00E941D268BE090E090934105AC
:1024200080934005AD960FB6F894DEBF0FBECDBFCA
:10243000DF91CF911F910F91FF90EF90DF90CF90A0
:10244000BF90AF909F908F907F906F905F904F90D4
:102450003F902F900895099791F40E946F0F82E4A6
:1024600095E00E945B07892B29F410924105109298
:102470004005D8CF82E495E00E94DA0AF0CF82E4EA
:1024800095E00E945B07892B69F218A21F8E1E8EB1
:102490001D8E1AA219A26E012DE1C20ED11C62EE90
:1024A00071E0C6010E94C80E0D8D1E8DE9A0FAA034
:1024B0000E94E50A9C01CFA2D8A62F3F320721F047
:1024C0002A30310509F0C0C10115110591F1E1145F
:1024D000F10479F148015401D4018D914D01082E88
:1024E000000C990B0E942B24892BA9F7B1E0EB1A61
:1024F000F108E00EF11ED7018C91082E000C990B0B
:102500000E942B24892B21F0EA14FB0408F0BEC1A1
:10251000BFEFEB1AFB0AEA18FB080A151B0528F4A3
:10252000A701B501C8010E941426F801EE0DFF1D98
:1025300010821C821B821E821D821A8219826EE109
:1025400074E0FE0131963F01CF010E94470FA98040
:10255000BA8060E0C3010E94F30EC5010E946E0EB6
:102560001E8F0D8FFAA2E9A28FA198A50E94D50B0C
:1025700083EE91E00E94FA0D1C821B821E821D8256
:102580001A82198265EE71E0C3010E94C80EA9800B
:10259000BA80B3018FA198A50E942B0F982EC50178
:1025A0000E946E0E911409F4A2C18FEF9FEF9A8BD7
:1025B000898B9CA38BA3CE0183969F938F93429785
:1025C0009F938F938AEE91E09F938F931F930F9326
:1025D0000E945C268EE094E00E94F60D8EEF93E060
:1025E0000E94F60D0FB6F894DEBF0FBECDBF812C52
:1025F000912C4FEE53E020EF33E08CEE93E049A7AF
:102600005AA72BA73CA7482E9DA76E013FE0C30EFB
:10261000D11CB301882D0E94090DC3010E94990BA2
:10262000811509F467C0B980B7FC64C089899A89AB
:1026300097FD04C0B816190609F05CC02A80A22CC8
:10264000E894A7F88BA19CA197FD04C0A8161906D1
:1026500009F050C085EF91E00E94C60D84E6B816DF
:1026600008F018C19AE0B91608F017C188EF93E096
:102670000E94DE0B6B2D70E080E090E04AE00E944B
:10268000FE0D85EF91E00E94C60DA4E625EF33E034
:10269000C901AA1648F4BAE0E2EFF3E0CF01AB16A5
:1026A00018F0A6EFB3E0CD010E94DE0B6A2D70E0BA
:1026B00080E090E04AE00E94FE0D60E282E495E056
:1026C0000E94800727FEECC082E20E94EF0BFE0111
:1026D00033965F01D5018D915D01811529F00E942E
:1026E000EF0BCA14DB04B1F782E20E94EF0B0E94E9
:1026F000D60D9394839420E482128BCF911421F011
:102700008CED93E00E94F60D81ED93E00E94DE0BCC
:10271000692D70E080E090E04AE00E94FE0D0E948A
:10272000D60D992493941C821B821E821D821A82CC
:10273000198268EF71E0C3010E94C80EA980BA80B7
:10274000B3018FA198A50E942B0F882EC5010E946E
:102750006E0E811409F430C11C8A1B8A1E8A1D8AE0
:102760001A8A198A6E0131E1C30ED11C62EE71E042
:10277000C6010E94C80E63EC73E0C6010E94470FB9
:10278000E988FA88CE0185969F938F9302979F934D
:102790008F938DEF91E09F938F931F930F930E94E0
:1027A0005C260FB6F894DEBF0FBECDBF26010297A0
:1027B00009F0BFC060E270E0C8010E9424260097C3
:1027C00009F4B7C060E270E001960E9424260097E9
:1027D00009F4AFC060E270E001960E942426DC019B
:1027E000892B09F4A6C0FD018D918032E1F382327C
:1027F00009F07FC06D0162E270E0CD010E942426E5
:10280000AC01892B09F495C08CE0F30111928A95F3
:10281000E9F74C195D094D30510514F04CE050E0DA
:10282000B601C3010E944D266DA16068A3018BA172
:102830000E94111162EB73E0811102C066E973E03E
:10284000C2010E94470F73C029831A8257013FEFCC
:10285000A31AB30A1E8F0D8FFAA2E9A2B5018FA1A8
:1028600098A50E94730E0D8D1E8DE9A0FAA081150A
:1028700049F0BE016F5F7F4FC8018E0D9F1D0E9402
:10288000382675010E94E50A9C0117CEE1E0EE1A98
:10289000F10831CE8BEF93E0EBCE8CEF93E0E8CEF6
:1028A000FE0133961F01A12CD101BD901D01B4E69C
:1028B00089A59AA5BB1638F4EAE0842D9DA5BE161D
:1028C00010F08BA59CA50E94DE0B6B2D70E080E0C4
:1028D00090E04AE00E94FE0DA394FCE0AF1609F4DC
:1028E00006CF6CE282E495E00E948007DDCF912C58
:1028F0001ACF8CE0D3011D928A95E9F763014E014E
:10290000BDE08B0E911C8081811519F08C149D0403
:10291000A9F56DA16F77A3018BA10E9411118115FB
:1029200009F447C067E072E0C2010E949A0EE9888C
:10293000FA88FA8AE98AC2010E94D50B0E94D60D54
:10294000C7010E946E0EC801AD960FB6F894DEBFA7
:102950000FBECDBFDF91CF911F910F91FF90EF90F0
:10296000DF90CF90BF90AF909F908F907F906F90AF
:102970005F904F903F902F900C946E0E5F013196B8
:10298000D5018C918032D1F3C5010E94B02381150D
:10299000B1E09B0770F6F60181936F016CE270E085
:1029A000C5010E942426FC01892B09F4B2CF31967F
:1029B000AACF6AE773E044CF1C821B821E821D826D
:1029C0001A8219826CE172E0C3010E94C80EA980CC
:1029D000BA80B3018FA198A50E942B0F482EC50184
:1029E0000E946E0E411409F448C0CE0185969F9353
:1029F0008F9302979F938F9381E292E09F938F939F
:102A00001F930F930E945C260FB6F894DEBF0FBE93
:102A1000CDBF029791F5ADA0BBA05982B301882D1F
:102A20000E94090D5980C3010E94990B982E8115AF
:102A300031F1B51024C08A818F77A81220C08CE0B4
:102A4000FE017196DF01282F1D922A95E9F7DE011C
:102A5000139601900D928A95E1F78B2D80688983FA
:102A6000C3010E94810B988B8F87B301882D0E9430
:102A7000680D8BE693E00E94F60D812C0CC08394C8
:102A800030E48312CACF8EE593E00E94DE0B8824E7
:102A90008394992493941C821B821E821D821A8225
:102AA00019826BE272E0C3010E94C80EA980BA804D
:102AB000B3018FA198A50E942B0FD82EC5010E94AB
:102AC0006E0ED11409F457C0270195E0A92EB12C40
:102AD00085E0E816F10420F4570185E0482E512CDA
:102AE0001C821B821E821D821A82198262EE71E094
:102AF000C3010E94C80EAE14BF04F0F0A980BA80D2
:102B0000A114B10431F0C5010E94CE23CB01892B61
:102B100041F5109227040E946F0FC5010E946E0EAE
:102B200099249394EF2851F5811409F4CDC087E4DA
:102B300093E00E94DE0BA0C067014E145F0408F40E
:102B40006201C00ED11ED6019C901C92B8016A0D84
:102B50007B1DC3010E949A0EA980BA80F601908263
:102B6000CFCF6130710521F481E080932704D5CF68
:102B700088248394D2CFEF2809F476C061E372E011
:102B8000C8010E942F26892B11F585EB92E00E9447
:102B9000F60D86EA92E00E94F60D81E992E00E942D
:102BA000F60D87E792E00E94F60D89E692E00E941A
:102BB000F60D8CE592E00E94F60D85E592E00E940C
:102BC000F60D8EE492E00E94F60D9924939466E34C
:102BD00072E0C8010E942F26892B09F045C083E3CB
:102BE00093E00E94DE0B81E293E00E94F60D8CE1FF
:102BF00093E00E94DE0B80E193E00E94DE0B8EEFFB
:102C000092E00E94DE0B8BEF92E00E94DE0B8FEED3
:102C100092E00E94DE0B60E282E495E00E94800771
:102C200086EE92E00E94DE0B84EE92E00E94F60DAA
:102C300081ED92E00E94DE0B60911A0470E080E06A
:102C400090E04AE00E94FE0D0E94D60D8FEB92E0CC
:102C50000E94DE0B4AE060E170E080E090E00E94BC
:102C6000FE0D0E94D60D60CF91105ECF8EE493E0F2
:102C70000E94DE0B81105BCF88E393E00E94F60D8B
:102C800083E08093260480ED97E090932504809361
:102C9000240480E590E0909323048093220484E64A
:102CA00090E090932104809320040E94610260933D
:102CB0001C0470931D0480931E0490931F041092B3
:102CC0001B040E94A90B3FCE0E94D60D81E0809389
:102CD000260484EC99E0909325048093240480E5F5
:102CE00090E0909323048093220410922104109288
:102CF0002004DBCF8F929F92AF92BF92FF920F93EF
:102D00001F93CF93DF9300D000D000D0CDB7DEB7B4
:102D1000F82E109245011092560110923C0110922B
:102D200033011C821B821E821D821A82198261E479
:102D300072E08E010F5F1F4FC8010E94470FA980EC
:102D4000BA8061E0C8010E942610C5010E946E0E83
:102D50008091180490911904892B09F18AE090E080
:102D600090934105809340050E9461026E5C7F4F05
:102D70008F4F9F4F4B015C010E94610268157905DE
:102D80008A059B0560F480914005909141050B9761
:102D900031F0E0911804F09119040995EDCF0E94EB
:102DA000560B89E090E09093410580934005F092A6
:102DB000170489EC91E190931904809318041C8204
:102DC0001B821E821D821A82198269E372E0C80189
:102DD0000E94470FA980BA8060E0C8010E942610B7
:102DE000C5010E946E0E8091170420E1829FC001F0
:102DF00011248F529E4F0E94C60D8FE292E00F90D9
:102E00000F900F900F900F900F90DF91CF911F9127
:102E10000F91FF90BF90AF909F908F900C94F60D04
:102E20001F921FB61F9211248F939F93AF93BF934E
:102E30008091960590919705A0919805B09199057C
:102E40000196A11DB11D8093960590939705A093BF
:102E50009805B0939905809195058F5F80939505AE
:102E6000853228F081E08093940510929505809139
:102E700093058F5F809393058A3F28F081E08093CC
:102E80009205109293051092850010928400BF91D4
:102E9000AF919F918F911F901FBE1F9018951F9209
:102EA0000F920FB60F9211242F933F934F935F937E
:102EB0006F937F938F939F93AF93BF93EF93FF9302
:102EC0009091B900892F887F803509F4C0C008F03F
:102ED00042C0803309F4B6C098F5883101F1D0F4CE
:102EE000883009F4A7C0803109F4A4C0811509F421
:102EF000F0C0FF91EF91BF91AF919F918F917F9122
:102F00006F915F914F913F912F910F900FBE0F9056
:102F10001F901895803209F495C0883251F790912E
:102F2000950380919403981778F5E091950381E0DB
:102F30008E0F80939503F0E0EC58FC4F80817CC0AD
:102F4000803409F490C0883409F47EC0883389F64F
:102F5000809373036DC0803A09F49FC0B8F5803840
:102F600009F489C050F5803611F1D8F4883509F696
:102F7000E091950381E08E0F809395038091BB00D3
:102F8000F0E0EC58FC4F80838091BF0381115CC05E
:102F900081E08093BE0384EA8093BC001092C0035A
:102FA000A8CF803721F0987E983609F0A2CF83E031
:102FB0008093C0031092720341C0803909F45BC052
:102FC000987E983809F095CF85E839C0883BD9F0CC
:102FD00058F5883A19F0803B09F08BCF84E0809354
:102FE000C003109251031092BD03E0910304F091CD
:102FF000040409958091BD03811105C081E080938F
:10300000BD0310929D03E091510381E08E0F8093E8
:103010005103F0E0E356FC4F80818093BB00909118
:1030200051038091BD0323C0907F903C09F061CF94
:1030300085ECB2CF809196038093BB0085EC8093A2
:10304000BC0057CF809373030E948E0D52CFE09146
:10305000950381E08E0F809395038091BB00F0E093
:10306000EC58FC4F808390919503809194039817BE
:1030700008F0AACFE3CF80917203803208F0A4CF8A
:10308000E091720381E08E0F809372038091BB0008
:10309000F0E0EE5AFC4F8083D1CF85EC8093BC00EA
:1030A0001092C00380917203803230F4E091720379
:1030B000F0E0EE5AFC4F10826091720370E0E091F4
:1030C0000104F091020482E593E0099510927203E5
:1030D00010CF10927303B8CF1F920F920FB60F92BA
:1030E00011242F933F934F935F936F937F938F930D
:1030F0009F93AF93BF93CF93EF93FF9393B180913F
:103100005003C0914F03C923209123052823C22BCC
:103110008927C82390935003C4FF05C0E091540150
:10312000F09155010995C5FF05C0E0915201F0915C
:1031300053010995C6FF05C0E0915001F09151017E
:103140000995C7FF05C0E0914E01F0914F01099527
:10315000C1FF05C0E0912D01F0912E010995C2FF3C
:1031600005C0E0912F01F09130010995C3FF05C022
:10317000E0913101F09132010995FF91EF91CF91EA
:10318000BF91AF919F918F917F916F915F914F917F
:103190003F912F910F900FBE0F901F9018951F9287
:1031A0001FB61F9211242F933F938F939F93AF933A
:1031B000BF9380914B0390914C03A0914D03B0912C
:1031C0004E0330914A0323E0230F2D3750F501962B
:1031D000A11DB11D20934A0380934B0390934C0390
:1031E000A0934D03B0934E03809146039091470303
:1031F000A0914803B09149030196A11DB11D809390
:10320000460390934703A0934803B0934903BF91AB
:10321000AF919F918F913F912F911F901FBE1F9053
:10322000189526E8230F0296A11DB11DD3CF2F9329
:103230002FB72F938F939F93EF93FF93E091B60255
:10324000F091B7028081E091BC02F091BD0282FD55
:1032500019C090818091BF028F5F8F732091C0024F
:10326000821741F0E091BF02F0E0EA55FD4F958FE3
:103270008093BF02FF91EF919F918F912F912FBF6C
:103280002F9118958081F6CF1F920F920FB60F9253
:1032900011242F933F934F935F936F937F938F935B
:1032A0009F93AF93BF93EF93FF9386EA92E00E94C0
:1032B0009607FF91EF91BF91AF919F918F917F9171
:1032C0006F915F914F913F912F910F900FBE0F9093
:1032D0001F9018951F921FB61F9211248F939F93D2
:1032E000AF93BF93EF93FF938091A2029091A302BB
:1032F000A091A402B091A502892B8A2B8B2B99F166
:103300009091A102E0919F02F091A0028081892713
:1033100080838091A2029091A302A091A402B09117
:10332000A502181619061A061B069CF48091A20223
:103330009091A302A091A402B091A5020197A109C6
:10334000B1098093A2029093A302A093A402B09328
:10335000A502FF91EF91BF91AF919F918F911F9027
:103360001FBE1F901895809171008D7F8093710012
:103370008091A102E0919F02F091A002908180953E
:1033800089238083E6CF1F920F920FB60F921124EC
:10339000CF92DF92EF92FF920F931F932F933F9361
:1033A0004F935F936F937F938F939F93AF93BF934D
:1033B000EF93FF93CF93DF93CDB7DEB76C97DEBF6C
:1033C000CDBF1092E9008091E80083FF30C08E01EC
:1033D0000B5E1F4F68E0C8010E949C0882EF80933B
:1033E000E8008D89E02ED12E87FF12C09091E80071
:1033F00090FFFCCF982F907691112BC12F89388D9B
:10340000EE89EA3088F4F0E0E754F64D0C94AA23F4
:103410009EEF9093E800EECF803841F580919902BD
:103420008093F1001092F1008EEF8093E8006C968B
:103430000FB6F894DEBF0FBECDBFDF91CF91FF91E5
:10344000EF91BF91AF919F918F917F916F915F911C
:103450004F913F912F911F910F91FF90EF90DF902F
:10346000CF900F900FBE0F901F9018951092F10003
:10347000D9CF8111D9CF21303105B1F68091990290
:103480008D7F80939902D0CF8111CECF213031052D
:1034900059F6809199028260F4CF8091E80080FF14
:1034A000FCCF8F8980688093E300BECFF88C0B8DB2
:1034B0001C8D22E01092E90010929D0210929C0255
:1034C000F2122EC010929B0210929A020E94120CCD
:1034D0001F8299E09983FA8291E09E8390EA98870F
:1034E0009AEF998720919C0230919D02275F3F4F70
:1034F0003C832B838D831092E90010929D021092E1
:103500009C0210939B0200939A0249E050E0BE0196
:103510006F5F7F4F80E00E94F40B0E94120C84CFFB
:1035200010939B0200939A020E940B09DC011296F1
:103530000D911C910115110531F4F1E0FF1214C039
:1035400069E271E05AC0D801ED91FC910480F581E7
:10355000E02D6E2D7D2DC8010995009709F037C12A
:10356000F80100851185E6CFF3E0FF120EC08F89C8
:10357000811509F440C0823061F440E860E18BE4D9
:1035800091E00E94D80881114FCF81E28093EB0037
:103590004ECF813029F440E86BE08FE391E0F1CF2A
:1035A000833099F70E940B09DC011296ED90FC9094
:1035B0008E010F5F1F4F6801E114F10469F4D80117
:1035C0001C92F60101900020E9F73197BF016C19B8
:1035D0007D0940E0C601D5CFD701ED91FC91068071
:1035E000F781E02DB801C7010995080F111DF701FA
:1035F000E084F184E1CF6BE371E0FB01449150E0A2
:1036000080E80E94F40B10CF81E08093F1000CCF92
:1036100083708111BACFEAECF1E081E021E036E37A
:103620009191911569F08093E9002093EB00DF01FF
:103630009E919093EC003093ED008F5F873081F77F
:103640008EE78093EA001092EA008F898093450309
:10365000EBCE8B8D9C8D1092E90010929D02109202
:103660009C0290939B0280939A02898D811195C050
:103670008E899D89913A49F4813209F086CF47E0DD
:1036800050E065E271E080E0BCCF913209F07DCF7F
:10369000833269F48F89988DA0E0B0E08093210196
:1036A00090932201A0932301B0932401BDCE8032D8
:1036B00069F48091E80082FFFCCF67E085E291E049
:1036C0000E949C088BEF8093E800AECE823209F016
:1036D000ABCE8F8980932C01EEEFFFE7859195911A
:1036E0008B3F9C4D51F1E0E0F8E0809125019091F5
:1036F0002601A0912701B0912801803B9440A105AB
:10370000B105F1F480912C0180FD1AC0EE3F8AE0F2
:10371000F80791F587E797E79183808380916000B0
:103720008093980288E19BE00FB6F894A895809367
:1037300060000FBE9093600077CEEEEFFAE0D5CF39
:10374000808191818737974709F06ECEA895809147
:10375000600088618093600080919802809360008F
:10376000EE3FFA40A9F08091FE0A9091FF0A9093F3
:1037700001088093000858CE8091000890910108BC
:103780008737980739F29093FF0A8093FE0AC2CFD9
:103790001092FF0A1092FE0A47CE0E940B09DC012C
:1037A00012960D911C910115110509F4EECED80168
:1037B000ED91FC910190F081E02D6E2D7D2DC801E1
:1037C0000995811131CEF80100851185ECCF0CF0FF
:1037D0002BCEDBCE1F921FB61F9211248F939F9387
:1037E0008091E1009091E100937F9093E10083FF4D
:1037F0000FC01092E90091E09093EB001092EC0062
:1038000092E39093ED001092450398E09093F000BE
:1038100082FF22C093E09093E9009091F20091150D
:1038200019F09AE39093E80090914303911541F0C9
:1038300090914303915090934303911101C05D9A7D
:1038400090919E02911541F090919E02915090931B
:103850009E02911101C0289A84FF17C08091E20056
:103860008E7E81608093E2008091E1008F7E809364
:10387000E100809144038E7E8061809344039F9198
:103880008F911F901FBE1F90189580FFF8CF8091D9
:10389000E2008E7E80618093E2008091E1008E7E66
:1038A0008093E100809144038E7E8160E6CFCDB7A6
:1038B000DEB7A3970FB6F894DEBF0FBECDBF7894E6
:1038C00084B5826084BD84B5816084BD85B5826025
:1038D00085BD85B5816085BD80916E0081608093D6
:1038E0006E0010928100809181008260809381003F
:1038F000809181008160809381008091800081604F
:1039000080938000809191008260809391008091EB
:1039100091008160809391008091900081608093FC
:1039200090008091C10084608093C1008091C100AB
:1039300082608093C1008091C10081608093C1004A
:103940008091C30081608093C3008091C000826039
:103950008093C0008091C20081608093C2008091FA
:103960007A00846080937A0080917A0082608093EC
:103970007A0080917A00816080937A0080917A0049
:10398000806880937A0010924503109299021092F9
:1039900044038091D70081608093D70080EA8093B0
:1039A000D80089B5806189BD89B5826089BD89B536
:1039B000282F21702BA380FFFACF61E070E080E018
:1039C00090E00E9418058091D8008F7C80618093E0
:1039D000D8008091E000807F8093E0008091E1003A
:1039E0008E7E8093E1008DE08093E200559A209ACC
:1039F000F89410928000109281001092850010922D
:103A00008400809181008860809381008091810092
:103A100083608093810089EF90E090938900809388
:103A2000880080916F00826080936F0078948FEFA0
:103A30009FEF90934F0580934E0510912C016AE003
:103A400070E080E090E00E941805111509F403C3AE
:103A50001C821B821E821D821A8219826BE071E019
:103A60008E010F5F1F4FC8010E94470FE980FA8047
:103A700060E0C8010E942610C7010E946E0E8BE311
:103A800092E00E94C60D87E492E00E94FA0D109227
:103A900006041092050410920804109207040E9474
:103AA000F50687ED93E0909304048093030488ED7A
:103AB00093E0909302048093010420E042E060E1EF
:103AC0008AEC94E00E945B0C6091CF046D7F609360
:103AD000CF0468608AEC94E00E9430036FEF8AECB8
:103AE00094E00E94A60C48EBE42E40E0F42E58E04F
:103AF000452E09A31AA363E7A62EB12C6E0139E067
:103B0000C30ED11C7BE9872E912C48E050E0B70111
:103B100089A19AA10E94F523642D60648AEC94E047
:103B20000E943003C5010197F1F709A11AA1D8013C
:103B30006D918D018AEC94E00E943803C4010197D5
:103B4000F1F70C151D0599F7B8E0EB0EF11CE8E054
:103B50004E0EF8E24F12D9CF61E082E10E94FC05DF
:103B600061E08CE00E94FC0562E088E00E94FC05B8
:103B700062E089E00E94FC0562E08AE00E94FC05A8
:103B800062E08BE00E94FC0526EA32E0E091B6029A
:103B9000F091B70282E08083E091B202F091B3022B
:103BA0001082E091B402F091B50287E68083109212
:103BB000BE02E091BA02F091BB0286E08083E09100
:103BC000B802F091B902808180618083E091B802EF
:103BD000F091B902808188608083E091B802F09111
:103BE000B902808180688083E091B802F091B902C7
:103BF00080818F7D80838DEC90E090937E02809316
:103C00007D0294E3E6E9F4E0DF01492F1D924A9535
:103C1000E9F74BE652E0509395044093940487E013
:103C20008093980442E140939904E0E6F4E0DF01D8
:103C30001D929A95E9F730935F0420935E04809378
:103C40006204EBE2F4E093E3DF011D929A95E9F759
:103C5000309329042093280498E090932A048093B9
:103C60002C04BE01635F7F4F80E00E94270D811509
:103C700009F451C01C821B821E821D821A82198285
:103C800068EF70E089A19AA10E94470F09811A810B
:103C900061E089A19AA10E942610C8010E946E0EBF
:103CA0001D85109362048E85809360048F858093B8
:103CB0006104888980932C04898980932A048A89E5
:103CC00080932B0469A17AA181E00E94270D8115C0
:103CD00009F4CAC1412F50E069A17AA180E191E0C5
:103CE0000E94142680E191E00E94FA0D69A17AA158
:103CF00082E00E94270D811509F4CDC14091620434
:103D000050E069A17AA180E091E00E94142680E051
:103D100091E00E94FA0D81E080931A0480E00E94F5
:103D20007A1601E022EF222E24E0322E3AE0832E92
:103D3000912CA12CB12CFE017296F8A3EF8F10925A
:103D40009702109296021092950280919405811527
:103D500021F01092940500939702809192058115AD
:103D600061F010929205809194028F5F809394028B
:103D7000823009F0A7C10093960280913905811520
:103D800051F0109239054AE355E06CE375E085E4A3
:103D900091E00E94581080913205811551F01092E7
:103DA000320543E355E065E375E086E591E00E9466
:103DB000581080912B05811551F010922B054CE283
:103DC00055E06EE275E08CE391E00E94581080911E
:103DD0002405811551F01092240545E255E067E273
:103DE00075E083E391E00E945810C0905601C11421
:103DF00009F449C08091400590914105892B09F053
:103E000042C064EB70E080E090E00E94180589E019
:103E10000E943407892BB9F510911704309255018F
:103E200020925401E0904F03F090230580E10E941E
:103E3000380B309253012092520180E20E94380BDD
:103E4000309251012092500180E40E94380B309250
:103E50004F0120924E018E2D8F7080934F038F2D36
:103E60008F708093230580E80E94380BF12C89E045
:103E70000E943407892B09F42FC1F11409F4A0C161
:103E8000812F0E947A16E0911804F0911904099587
:103E90008091900290919102A0919202B091930230
:103EA0000196A11DB11D8093900290939102A09361
:103EB0009202B093930220912704211509F46CC05B
:103EC00020919602211509F467C06C017D01CC0C8C
:103ED000DD1CEE1CFF1C3BE5398380914005805DB5
:103EE0008A838AE38B83C701B60120E137E240E091
:103EF00050E00E946923CA01B901A50194010E9402
:103F00006923605D6C83C701B60128EE33E040E0B1
:103F100050E00E946923CA01B901A50194010E94E1
:103F20006923605D6D83C701B60124E630E040E09F
:103F300050E00E946923CA01B901A50194010E94C1
:103F40006923605D6E83C701B601A50194010E94DB
:103F50006923162FCA01B901A50194010E946923A2
:103F6000605D6F83105D18878DE589871A86E9A1EA
:103F7000FAA1A3E0B5E08191811531F04F8D58A1F0
:103F8000E417F50709F01FC11092900210929102F8
:103F9000109292021092930280919702811529F15A
:103FA0000E94430310919502111531F08091800217
:103FB00051E085278093800260E084E994E00E94CC
:103FC000960660918002111101C060E08EE594E0D8
:103FD0000E949606111521F01091800261E01627CB
:103FE000612F88E294E00E94960610912604111534
:103FF00009F400C10E9461026B017C0180911C04E4
:1040000090911D04A0911E04B0911F04A701960178
:10401000281B390B4A0B5B0BDA01C90120911B04E9
:10402000211163C22091200430912104821793074B
:10403000A105B10508F4DEC0609024047090250449
:10404000809120018C3009F0C0C0E8E2F1E01491C9
:1040500017FDC6C03EC10E946102603D77408105E8
:10406000910508F4EACCF4CC1C8E1B8E1E8E1D8E9E
:104070001A8E198E68EE70E0CE0149960E94470FA5
:10408000098D1A8D61E0CE0149960E942610C80163
:104090000E946E0E2BCE1C8E1B8E1E8E1D8E1A8EB7
:1040A000198E68ED70E0CE0149960E94470F098D88
:1040B0001A8D61E0CE0149960E942610C8010E9427
:1040C0006E0E29CE843009F058CE009396020093EC
:1040D00095021092940251CE8BE00E943407892BF6
:1040E00081F464EB70E080E090E00E94180580911C
:1040F0001A048150990B1817190609F458C01F5F4C
:10410000FC2C8AE00E943407892B09F053C064EB31
:1041100070E080E090E00E941805111102C010913B
:104120001A0411500E94280B1C821B821E821D82C1
:104130001A82198268E171E089A19AA10E94470F51
:10414000E980FA8049A15AA160E080E00E94F9026A
:10415000C7010E946E0E1C821B821E821D821A8263
:10416000198264E171E089A19AA10E94470FE98058
:10417000FA8049A15AA161E080E00E94F902C701DA
:104180000E946E0E20E1129FF0011124EF52FE4FAB
:10419000A7E1B5E09F01235F3F4F8191811519F0A1
:1041A000E217F30759F40E944303FC2C60CEFC2C69
:1041B00010E0A7CFF11409F45ACEB4CF8D93EDCF10
:1041C0000E94560B60CE8D93D6CE8F3F49F48CE083
:1041D00080932001E8E2F1E08491182F8F3FB9F439
:1041E00000931B04C0921C04D0921D04E0921E0494
:1041F000F0921F0480E090E0892B09F4A0CD0E948A
:10420000C207811509F49BCD0E94000098CD833030
:1042100009F4B7C030F5811509F444C012E08130CB
:1042200009F057C0109280001092810080918100A7
:1042300088608093810080918100816080938100FB
:10424000E3EFF1E0E491F0E0EE0FFF1FE553FE4FE6
:1042500085919591E2E1F2E0E491E093820211E030
:1042600038C0843009F0F4CE1092C0001092C10022
:104270008091C10088608093C1008091C1008160FD
:104280008093C100E3EFF1E0E491F0E0EE0FFF1F57
:10429000E553FE4F85919591E2E1F2E0E491E093E0
:1042A000810217C014BC15BC84B5826084BD85B57D
:1042B000816085BDE3EFF1E0E491F0E0EE0FFF1FD8
:1042C000E553FE4F85919591E2E1F2E0E491E093B0
:1042D000830261E08CE00E94FC05930140E050E025
:1042E00060E074E284EF90E00E948B2329013A01A0
:1042F0007594679457944794F1E04F1A51086108F8
:104300007108D301C201612F6D7F611183C0411417
:1043100061E05606610471040CF478C0DA01C90149
:1043200064E0B595A795979587956A95D1F701971C
:10433000A109B109123009F007C181159140A10509
:10434000B1050CF44DCF2034F0E43F074105510591
:1043500008F446CFDA01C901F7E0B595A79597951E
:104360008795FA95D1F70197A109B109111138CFB5
:104370008115F1E09F07A105B1050CF0D0C023E045
:104380002FC010929000109291008091910088604F
:104390008093910080919100816080939100E3EF80
:1043A000F1E0E491F0E0EE0FFF1FE553FE4F859141
:1043B00095919093A00280939F02E2E1F2E0E49154
:1043C000E093A10286CFDA01C901EBE0B595A7958C
:1043D00097958795EA95D1F70197A109B10925E04D
:1043E00035B5387F232B25BD87BD8FEF9FEFDC01CF
:1043F00080938C0290938D02A0938E02B0938F02D3
:1044000080916E00826080936E00EACE1111E8CE3A
:104410002BA1E6CF4114510461E06606710454F10A
:10442000DA01C90177E0B595A795979587957A95B3
:10443000D1F70197A109B10933E01130E9F42091D6
:104440008100287F232B2093810090938900809303
:1044500088008FEF9FEFDC018093880290938902A0
:10446000A0938A02B0938B0280916F008260809348
:104470006F00B6CE3BA1E1CF1330D9F4209191006B
:10448000287F232B2093910090939900809398008C
:104490008FEF9FEFDC018093A2029093A302A09381
:1044A000A402B093A5028091710082608093710094
:1044B00097CE143009F094CE2091C100287F232B91
:1044C0002093C1008093CF008FEF9FEFDC0180939A
:1044D000840290938502A0938602B0938702809114
:1044E00072008064809372007BCE20912204309110
:1044F000230482179307A105B10508F47BCE0E941F
:10450000A90B10921B04C0921C04D0921D04E092CF
:104510001E04F0921F041150109326046BCEDA0192
:10452000C90169E0B595A795979587956A95D1F7E3
:104530000197A109B1098115E1E09E07A105B10527
:104540000CF041CF24E04CCF811561E09607A10526
:10455000B1050CF0FFCE22E043CFCF92DF92EF9275
:10456000FF92CF93DF93E6EAF2E01382128288EEA5
:10457000C82E83E0D82EE12CF12CC482D582E682AD
:10458000F78281E791E0918380838DEC90E09587BD
:1045900084878CEC90E09787868788EC90E0918BFD
:1045A000808B89EC90E0938B828B8AEC90E0958BEA
:1045B000848B8EEC90E0978B868B118E128E138EEF
:1045C000148EE2E4F5E013821282C482D582E68280
:1045D000F78283E891E0918380838FEF9FEF958747
:1045E0008487EBE0F4E013821282C482D582E682F3
:1045F000F78285E991E091838083EAECF4E013820D
:10460000128287EA91E091838083108A8FEF8787F7
:104610001686118A80E28387148615861286118693
:1046200090E1928B838B80E4848B81E0858B82E0A8
:10463000868B84E0878B88E0808F41E050E067E0E4
:10464000CF010E94D903CBE6D2E01B821A82CC8232
:10465000DD82EE82FF828BEB91E0998388831B8A57
:104660001A8AEFE7F2E080818D7F808361E086E047
:104670000E94670661E086E00E94FC05ECE0F2E043
:10468000E491EC87EDEEF1E0E491F0E0EE0FFF1F36
:10469000E553FE4F859195919E878D87DF91CF9150
:1046A000FF90EF90DF90CF900895AA1BBB1B51E1C4
:1046B00007C0AA1FBB1FA617B70710F0A61BB70B92
:1046C000881F991F5A95A9F780959095BC01CD0137
:1046D0000895A1E21A2EAA1BBB1BFD010DC0AA1F43
:1046E000BB1FEE1FFF1FA217B307E407F50720F05B
:1046F000A21BB30BE40BF50B661F771F881F991FD6
:104700001A9469F760957095809590959B01AC011E
:10471000BD01CF010895052E97FB1EF400940E9461
:10472000A22357FD07D00E94692307FC03D04EF453
:104730000C94A22350954095309521953F4F4F4FB3
:104740005F4F089590958095709561957F4F8F4F3D
:104750009F4F0895EE0FFF1F0590F491E02D0994EF
:10476000FC0188279927E89421912032E9F3293028
:1047700010F02E30C8F32B3241F02D3239F468940A
:1047800004C00E942324820F911D219120532A30BE
:10479000C0F31EF4909581959F4F08951F93FC01DF
:1047A00099278827BC01E89411911032E9F3193058
:1047B00010F01E30C8F31B3251F01D3249F46894DA
:1047C00006C00E940E24610F711D811D911D119163
:1047D00010531A30B0F33EF4909580957095619522
:1047E0007F4F8F4F9F4F1F910895FB01DC0102C047
:1047F00005900D9241505040D8F70895FB01DC011F
:1048000005900D920020E1F70895FC01059000202D
:10481000E9F7809590958E0F9F1F0895592F482F87
:10482000372F262F660F771F881F991F660F771F58
:10483000881F991F620F731F841F951F660F771FB4
:10484000881F991F08957AE0979F902D879F802D4C
:10485000910D1124089591110C943424803219F093
:1048600089508550C8F708959927882708950F9390
:104870001F93CF93DF939C01029710F422E030E066
:10488000E0919A05F0919B0580E090E0A0E0B0E017
:10489000309791F4009709F448C0821B930B843041
:1048A0009105D0F58A819B816115710581F1FB012C
:1048B00093838283FE0111C0408151810281138163
:1048C00042175307D8F04217530799F4109761F035
:1048D00012960C93129713961C933296CF01DF9188
:1048E000CF911F910F91089500939A0510939B0506
:1048F000F4CF009751F04817590738F0AC01DB01AD
:10490000CA01BD01DF01F801C3CFEF01F9CF9093D8
:104910009B0580939A05CECFFE01E80FF91F2193E6
:104920003193029799838883D9CF40919C05509108
:104930009D054115510541F440916101509162017D
:1049400050939D0540939C0580915F01909160017B
:10495000009741F48DB79EB7609163017091640137
:10496000861B970B4817590708F0B8CF841B950B87
:104970008217930708F4B2CFB9016E5F7F4F861795
:10498000970708F4ABCF640F751F70939D05609374
:104990009C05FA0121933193A1CFCF93DF939C0122
:1049A0000097E9F0FC01329713821282C0919A05B8
:1049B000D0919B05DE0180E090E02097A1F48081FA
:1049C0009181280F391F80919C0590919D05821738
:1049D000930709F068C0F0939D05E0939C05DF9173
:1049E000CF910895DA01AE17BF0708F042C01296C2
:1049F0004D915C911397CD014115510599F7DC015B
:104A00001396FC93EE9312974D915D919D01240FA7
:104A1000351FE217F30781F4208131812E5F3F4F6C
:104A2000240F351FDC0111963C932E932281338194
:104A300013963C932E931297E0E0F0E08A819B81DD
:104A40000097B1F5DE018D919D918A0F9B1F2091FA
:104A50009C0530919D052817390709F6309759F5BF
:104A600010929B0510929A05D0939D05C0939C05CA
:104A7000B6CFB383A28340815181240F351FA21783
:104A8000B30771F44E5F5F4F2D913C911197240F46
:104A9000351F3183208312962D913C9133832283DD
:104AA000009709F0ACCFF0939B05E0939A0597CF60
:104AB000FE01EC01C3CF13821282D6CFA0E0B0E09A
:104AC000E4E6F5E20C9473297C01CB01E114F104D6
:104AD00049F40E943724EC01CE01CDB7DEB7E0E106
:104AE0000C948F29F701E60FF71FD7011297C0E04A
:104AF000D0E0EA17FB0780F30D911C911197061780
:104B00001707B0F00530110588F0980124503109DD
:104B10002617370758F0061B170B0250110901938F
:104B200011936D937C93CF010E94CD24E701D4CFE4
:104B30004B01801A910A5701A00EB11EC0919A052F
:104B4000D0919B05412C512C60E070E0209731F50D
:104B500020919C0530919D052A153B0509F056C012
:104B60004816590608F052C020915F01309160014B
:104B70002115310541F42DB73EB7409163015091A5
:104B80006401241B350BE217F30708F0A5CFF0935F
:104B90009D05E0939C058D939C93C8CF2881398116
:104BA0006A807B80CA15DB0551F5690142E0C40EBD
:104BB000D11CC814D90418F1A801481B590B420F85
:104BC000531FEA012296259778F0628273825183FF
:104BD00040838D939C936115710561F0DB01139601
:104BE000FC93EE931297A2CFC8010296820F931FF7
:104BF000F301EFCFF0939B05E0939A0597CF421610
:104C0000530608F42901BE01E301A0CF0E94372416
:104C1000EC01009709F460CFA801B7010E941426A7
:104C2000C7010E94CD2458CFFB01DC0102C00190D6
:104C30000D9241505040D8F70895DC0101C06D93AA
:104C400041505040E0F70895FC018191861721F012
:104C50008823D9F7992708953197CF010895FB014B
:104C6000DC018D91019080190110D9F3990B089501
:104C7000FB01DC0101900D920020E1F70895FB019A
:104C8000DC014150504030F08D910190801919F4B1
:104C90000020B9F7881B990B0895FB01DC014150F6
:104CA000504048F001900D920020C9F701C01D92BC
:104CB00041505040E0F70895AEE0B0E0E2E6F6E2A1
:104CC0000C94812985E08C838B899C899A838983C4
:104CD000AE01495E5F4F6D897E89CE0101960E94CB
:104CE000F9272E96E2E00C949D29FC01CA01DB0114
:104CF00020FD08C023FD05C022FF02C0B383A283AC
:104D0000918380830895582F392FCB01A52FB32F7E
:104D100033E044FD14C034E046FD11C0AC01BD01D8
:104D2000DA01FB01AA0FBB1FEE1FFF1F1094D1F782
:104D30004A0F5B1F6E1F7F1FDB01CA0131E0880F26
:104D4000991FAA1FBB1F3A95D1F7BC01CD01620F75
:104D5000711D811D911D08950F931F93CF93DF93B4
:104D60008C01C8010E940429EC0197FD08C00E9433
:104D70002B24892BB1F7B801CE010E944329CE0123
:104D8000DF91CF911F910F910895A0E0B0E0EBEC7F
:104D9000F6E20C947829B82E092FC62F942EA52E52
:104DA000122F0E940429FC019927EB3219F08D97EC
:104DB00081F41068CA9531F480E0CDB7DEB7EBE03E
:104DC0000C9494298B2D902F0E940429FC0197FDAF
:104DD000F3CFD12FDD7F812F8073811132C0E0337B
:104DE00081F5FF24FA94FC0EF11439F08B2D902FED
:104DF0000E940429FC0197FF16C0C12CD12C76011A
:104E0000D7FF08C0F094E094D094C094C11CD11C8A
:104E1000E11CF11C2D2FB701A601892D9A2D0E94AE
:104E2000752681E0CACF8F7DD12F883521F5D264D8
:104E3000C25019F38B2D902F0E940429FC0197FD7D
:104E4000DCCFC12CD12C760120ED2E0F2830D8F0EC
:104E5000D4FD09C02A30B8F0D6FF05C02F7D8FEEF3
:104E6000820F863078F06B2D702FCF010E9443297E
:104E7000D1FFA2CFC5CF16FF03C0D260CF2DE1CFA7
:104E8000D261FCCF27504D2FC701B6010E94832667
:104E90006B017C01D260CA9509F4B2CF8B2D902FA3
:104EA0000E940429FC0197FFCFCFAACFA0E2B0E077
:104EB000ECE5F7E20C9475296C01962E7A01CE018F
:104EC00001965C0180E2F50111928A95E9F7F601FD
:104ED0008380890140E050E0B0E020E0A0E061E0A4
:104EE00070E0F80183FC959183FE9191892F8F01E9
:104EF000911107C000E010E0C801A096EEE00C940C
:104F000091299E3519F44115510539F1A41715065B
:104F1000F4F49D3551F19D32D1F4211511F1E82FB2
:104F2000E695E695E695EA0DFB2DF11D282F2770F5
:104F30003B0102C0660C771C2A95E2F79081962906
:104F400090838B1781F08B1730F48F5FE8CF21119E
:104F5000E6CFB92FE4CF8150E2CFA1E04F5F5F4FA2
:104F6000C0CF21E0FBCF20E0F9CF211519F08E81D1
:104F700080628E83A11561F0F5019E012F5D3F4F88
:104F80008081DF01319680958C93E217F307C1F79A
:104F900088248394C6010E94042997FD16C0E82F37
:104FA000E695E695E695EA0DFB2DF11D208130E0B2
:104FB000AC014770552702C0359527954A95E2F711
:104FC00020FD06C0B6010E944329811459F092CFFA
:104FD000E114F10419F0F70181937F019A94812C77
:104FE0009110D8CFE114F10409F486CFF7011082B3
:104FF00083CFA0E0B0E0EFEFF7E20C9475295C01FD
:10500000EB01742E652EFC0117821682C12CF5016E
:10501000F380FE01F3FC0591F3FE0191EF01011510
:10502000F1F0802F90E00E942B24892B21F0C50104
:105030000E94AC26ECCF053241F4FE01F3FC159141
:10504000F3FE1191EF01153269F4C5010E940429A4
:1050500097FD8CC00817D9F2B5010E9443298C2D09
:1050600090E088C000E01A3231F4F3FC1591F3FEB1
:105070001191EF0101E0D12C20ED210F2A3048F1F0
:1050800001FF37C0D11459F31836B1F11C3609F4B9
:105090003DC0111521F3612F70E08CEA90E00E9471
:1050A000F928892BE1F2E12CF12C00FD06C0E72D57
:1050B000F62DE190F1907E2E6F2E1E3679F5F501DA
:1050C0004681578160E070E0202FC7010E9475265D
:1050D0009ECF02606D2D70E080E090E040E20E9483
:1050E0008326D62EFE01F3FC1591F3FE1191EF01FC
:1050F000C3CFDD24DA94C8CFFE01F3FC1591F3FE93
:105100001191EF01183609F0C4CF08600460FE0168
:10511000F3FC1591F3FE1191EF01BBCF1336A9F407
:1051200001FD02C0DD24D394C5010E94042997FD2E
:105130001DC0E114F10419F0F70181937F01DA94A5
:1051400099F700FD64CFC39462CF1B35C1F49E0173
:10515000A7016D2DC5010E945627EC01892B89F707
:10516000F50183818073811509F479CF8FEF9FEF6B
:10517000C11075CFCDB7DEB7EEE00C949129C50113
:105180000E94AC2697FDF2CF1F3689F130F4143619
:1051900041F0193639F0006405C0133799F015371E
:1051A000D1F70062202FA7016D2DC5010E94C526F1
:1051B0008115D5CFE114F10419F0F70181927F0137
:1051C000DA9471F0C5010E9404294C0197FD08C0D2
:1051D0000E942B24892B71F3B501C4010E9443293D
:1051E000E114F10409F4ADCFF7011082AACF0061F8
:1051F000D9CFFC010590061621F00020D9F7C00197
:1052000008953197CF010895CF93DF93EC018B81FF
:1052100080FF1BC086FF0CC08F7B8B838E819F819C
:1052200001969F838E838A8190E0DF91CF910895CC
:1052300082FF19C0E881F9819081292F092E000C85
:10524000330B911105C080628B838FEF9FEFEDCF01
:105250003196F983E8838E819F8101969F838E83A7
:10526000C9019927E2CFEA85FB85CE0109959C010A
:1052700097FFF1CF8B812F3F3F4F19F490E1892B9E
:10528000E3CF90E2FCCFFB01238120FF11C026FD7C
:105290000FC08F3F980771F082832F7D2064238396
:1052A0002681378121503109378326839927089534
:1052B0008FEF9FEF0895F999FECF92BD81BDF89AC7
:1052C000992780B50895262FF999FECF1FBA92BD70
:1052D00081BD20BD0FB6F894FA9AF99A0FBE0196D7
:1052E00008952F923F924F925F926F927F928F928A
:1052F0009F92AF92BF92CF92DF92EF92FF920F9365
:105300001F93CF93DF93CDB7DEB7CA1BDB0B0FB66E
:10531000F894DEBF0FBECDBF09942A88398848882B
:105320005F846E847D848C849B84AA84B984C884C1
:10533000DF80EE80FD800C811B81AA81B981CE0FB8
:10534000D11D0FB6F894DEBF0FBECDBFED0108959D
:10535000F894FFCF4206460634063A063E06660635
:105360006606660649064F06530657065D0666063C
:1053700061060C1A391A141A441A141A4D1A561ABC
:06538000C51A041B081B06
:105386006667696A6C6D3A00000000000000000064
:105396006667696A6C6D3A00000000000000000054
:1053A600FFFFFFFFFF00E1000000000000F204F233
:1053B60004F20400000000000000B45000000000E9
:1053C600000000B44C00000000000000B453F204DA
:1053D600F204F204F20400000000000000B45200DF
:1053E600009E0520000040145400401050000000AC
:1053F6000027087308F8070708B707E407D6070069
:1054060000000080073409300975075B07DA0ACC0B
:105416000A0000000040046F042A031804EF03F694
:1054260003090400000000380373082A032D035BF8
:105436000CD903A60CEE0C000000009D0473082A8C
:10544600031804EF04EC04EC0400C18081000000A2
:10545600004E6173746176656E6900000000C911C3
:105466000D0A0027006C697374006C69737420253B
:105476006420256400202000736574200073657421
:10548600202564202564004F4B2E20486F646E6FE4
:10549600747920756C6F7A656E792E0064656C2060
:1054A6000064656C202564202564007065726620A2
:1054B6000068656C7000696E666F00524D5320304F
:1054C6002E322D726331002B7634312D313658321F
:0A54D6002D307832302D4D300000EB
:00000001FF
