:100000000C94A0020C94C8020C94C8020C94C80270
:100010000C94C8020C94C8020C94C8020C94C80238
:100020000C94C8020C94DD210C945B250C943423B1
:100030000C94C8020C94C8020C94C8020C94C80218
:100040000C94C8020C9481200C94C8020C94C80231
:100050000C94C8020C94C8020C94C8020C94402260
:100060000C94C8020C9488220C94B5220C94C802FB
:100070000C94C8020C94C8020C94C8020C94C802D8
:100080000C94DB220C94C8020C94C8020C94C80295
:100090000C94C0200C94C8020C94C8020C94C802A2
:1000A0000C94C8020C94C8020C94C80220756C6FA2
:1000B0007A656E004C6F672074797023004E455549
:1000C0004C4F5A454E4F003D3D3D204B6F6E656392
:1000D000207A617A6E616D75203D3D3D0A0056794A
:1000E000736C6564656B3A20204E45524F5A484FF9
:1000F000444E4500526F7A64696C3A2020202000FB
:10010000566974657A3A2020202020505241564189
:1001100020445241484100526F7A64696C3A202071
:10012000202000566974657A3A20202020204C4512
:100130005641204452414841005072617679206313
:1001400061733A20004C657679206361733A202010
:10015000002D2D2D20536F7568726E207A61766F99
:100160006475202D2D2D00202D200043485942413B
:1001700000494E464F0052455345540043415320D9
:10018000505241564120445241484100434153207E
:100190004C455641204452414841004D455A49433F
:1001A0004153005354415254000A3D3D3D205A6191
:1001B0007A6E616D207A61766F6475203D3D3D00F9
:1001C0001209120912091200091209120912090072
:1001D00000001209120000000000091209000000CE
:1001E000436879626120446973706C656A203200EB
:1001F000436879626120446973706C656A203100DC
:100200004E6173746176656E6920646973706C65A4
:100210006A75005A61706E75746920002D2D3E005C
:10022000507265706E757469206D6F64756C7500C1
:100230000312010002EF0201404123368000010158
:100240000203010403090441726475696E6F204C56
:100250004C430041726475696E6F204C656F6E612E
:1002600072646F00080B0002020200000904000023
:10027000010202000005240010010524010101040F
:100280002402060524060001070581031000400929
:10029000040100020A0000000705020240000007F6
:1002A0000583024000000000000023002600290012
:1002B0002C002F000000000200090F0000030401C1
:1002C000000C000000000000000000000000000022
:1002D00000000000000000250028002B002E003147
:1002E0000000000000240027002A002D0030000438
:1002F00004040404030405020202020403020202CD
:1003000002060606060606040402020204040408A5
:10031000020110408040102040804080080204010B
:10032000804020100201108010204040205379733B
:1003300074656D003E20002720616B7469766E69DC
:10034000004D6F64756C2027005A6D656E61206DDD
:100350006F64756C75005A61646F7374206F2076DA
:1003600079706973005A727573656E6F004D6572AE
:10037000656E69207A727573656E6F004D657A6976
:100380006361730053746F706B792062657A6900E2
:1003900053746F706B79207370757374656E790028
:1003A000533E5374617274202020523E5A7065741B
:1003B0000053544F504B5900523E46636520205223
:1003C0002B4C2F503E4D6F640053544F504B5920CF
:1003D000532D4C50004B6F6E656300556B6F6E6311
:1003E000656E6F004C657661206472616861004CD7
:1003F00065766100507261766120647261686100A7
:100400005072617661004F64706F63657420736B26
:100410006F6E63696C005A727573656E69206F64E4
:10042000706F637475004F64706F636574206265EC
:100430007A69005A6168616A656E206F64706F63E3
:100440006574005A61646F7374206F2076797069E7
:1004500073005A61766F64207A727573656E004D11
:100460006572656E69207A727573656E6F004D6591
:100470007A69636173005A61766F642062657A6994
:10048000004B6F6E63616B79204F4B00202D452D23
:100490002000202D452D2000503A4348594241006C
:1004A000202D452D2000202D452D20004C3A43487D
:1004B000594241004348594241206B6F6E63616B62
:1004C00075005A61766F64207A6168616A656E00B2
:1004D000533E5374617274202020523E5A706574EA
:1004E000005A41564F4400533E53746172742020A9
:1004F000523E5A61766F64004F44504F434554005A
:10050000523E4663652020522B4C2F503E4D6F6467
:100510000053544F504B59204855004B6F6E656344
:1005200000206D73002040200050756C7A20004C34
:100530006F672070726970726176656E0000A62B1D
:1005400011241FBECFEFDAE0DEBFCDBF12E0A0E086
:10055000B1E0E2E8F8E602C005900D92A037B107DD
:10056000D9F726E0A0E7B2E001C01D92A035B2079E
:10057000E1F712E0C0EAD2E004C02197FE010E9438
:10058000AF2CCF39D107C9F70E94C8250C9413347A
:100590000C940000CF93DF93FC01DB01548136966D
:1005A00014968C9114978150990B40E0541303C01A
:1005B000DF91CF91089514962D913C911597821754
:1005C000930770F42D913C9111972115310541F05D
:1005D000280F391FE901288121934F5F0197E6CF4A
:1005E00020E0FACF2FB7F89460914106709142064F
:1005F00080914306909144062FBF089590934B0637
:1006000080934A0681E080937B01109249060E9404
:10061000F2026093450670934606809347069093D6
:10062000480608958FB7F8941092400610923E063F
:1006300010923F0610923D0610923C068FBF08951F
:100640002FB7F894409141065091420660914306BD
:100650007091440680918400909185002FBF409353
:100660006B0550936C0560936D0570936E05880F54
:10067000991F880F991F90936A058093690581E0FF
:100680008093680508952FB7F894409141065091E2
:1006900042066091430670914406809184009091D7
:1006A00085002FBF409364055093650560936605F0
:1006B00070936705880F991F880F991F90936305A2
:1006C0008093620581E08093610508952FB7F894C7
:1006D0004091410650914206609143067091440654
:1006E00080918400909185002FBF40935D055093C9
:1006F0005E0560935F0570936005880F991F880FF2
:10070000991F90935C0580935B0581E080935A0567
:1007100008952FB7F8944091410650914206609198
:1007200043067091440680918400909185002FBF0C
:10073000409356055093570560935805709359059B
:10074000880F991F880F991F909355058093540522
:1007500081E08093530508954F925F926F927F924C
:10076000AF92BF92CF92DF92EF92FF920F931F93BF
:10077000CF93DF93FB01C080D180E280F380FC0146
:1007800080819181A281B381C81AD90AEA0AFB0A41
:10079000C701B60128EE33E040E050E00E946E2C25
:1007A0008B01C8EED4E07D836C838CE3482E512C02
:1007B000612C712CCA01B901A30192010E946E2C17
:1007C000B62E6B83CA01B901A30192010E946E2C5F
:1007D000A62E6A83C701B60120E83EEE46E350E04C
:1007E0000E946E2CF90139832883C90168EE73E0F9
:1007F0000E945A2C6E8394E6E92EF12CCF01B701AA
:100800000E945A2CCB012AE030E0B9010E945A2CF8
:100810008F83CF01B9010E945A2C482FCB01B90117
:100820000E945A2C888749874AE08A2D642F0E94AB
:100830004E2C8A879B878B2D0E944E2C8C879D8700
:10084000C801B7010E945A2C6E87C801B9010E94E5
:100850005A2C482FCB01B9010E945A2C8F87488B04
:10086000DF91CF911F910F91FF90EF90DF90CF908C
:10087000BF90AF907F906F905F904F900895FA0176
:1008800090E070E071956195710960717727219111
:10089000211519F08031910509F40895DC01A60FA6
:1008A000B71FAE5CBA4F2C930196F1CFCF93DF9375
:1008B000DA0190E1981B14964C911497941708F460
:1008C000492FE62FF0E0F195E195F109E071FF275E
:1008D000E80FF11DEE5CFA4F80E090E0841718F00D
:1008E000DF91CF91089514962D913C911597821721
:1008F000930768F42D913C9111972115310539F03A
:10090000280F391FE901288121930196E7CF20E0C4
:10091000FBCF0F931F93CF93DF938C01C42F062E31
:10092000000C770B48E050E082E395E00E94D82F5E
:100930006C2FCC0F770B48E050E08AE395E00E94E3
:10094000D82FD80114968D919C91C0E1D0E0C81B9E
:10095000D90BD695C795C03128F4A80160E08C2F3B
:100960000E945604DD27FE01EF5CFA4F80E280838F
:10097000D8011496ED91FC91EE5CFA4FEC0FFD1F3F
:100980008083DF91CF911F910F91089544E063E040
:100990000C94890480E090E00895089508950895E6
:1009A000DC01ED91FC910684F785E02D40E009948F
:1009B000DC01ED91FC910684F785E02D41E009957D
:1009C00081E090E008952F923F924F925F926F9254
:1009D0007F928F929F92AF92BF92CF92DF92EF92CF
:1009E000FF920F931F93CF93DF93CDB7DEB7299775
:1009F0000FB6F894DEBF0FBECDBFC12CD12C00E0E6
:100A0000209182012987A0908301709084016090D9
:100A10008501509086014090870130908801209098
:100A20008901760110E0F701EE5CFA4FB080C70152
:100A30008E5E9A4F4C01FC0180818B1569F1F9851E
:100A4000FD83AE827F82688659824A823B822C82F5
:100A5000209100058FEF820F021708F4802F90E09D
:100A600030910105303109F03FC02430E9F521E033
:100A700030E02C0F3D1F820F931FFC016081610F3E
:100A8000606889EF94E00E94D0046B2D89EF94E0B8
:100A90000E94D804F401B0821F5FFFEFEF1AFF0A33
:100AA000103109F681E0800F20E1C20ED11C01E077
:100AB000823009F0B6CF29960FB6F894DEBF0FBE8C
:100AC000CDBFDF91CF911F910F91FF90EF90DF90FD
:100AD000CF90BF90AF909F908F907F906F905F90DE
:100AE0004F903F902F90089525E030E0C2CF0895B9
:100AF0000895DC0181E001C0880F6A95EAF71C9631
:100B00008C931C971A965C934E931997ED91FC91D8
:100B100011970484F585E02D60E0CD010994809162
:100B2000190490911A04891B990B089590911A0445
:100B3000809119042FEF3FEF981748F4E92FF0E068
:100B4000EB52FC4F208130E09F5F90931A04C90163
:100B50000895E0911A0480911904E81730F4F0E048
:100B6000EB52FC4F808190E008958FEF9FEF089546
:100B700008952091D103260F3327331F21323105E9
:100B8000ECF42091D403FC0180E090E0243069F083
:100B900082E00895A091D1032191AC014F545C4FA4
:100BA000A40FB52FB11D2C930196861798F3809151
:100BB000D103680F6093D10380E0089581E0089528
:100BC000CF93DF930F92CDB7DEB7FC01698380919D
:100BD0001E048115F1F080911B04803250F081E0F9
:100BE00090E09383828380E090E00F90DF91CF913B
:100BF000089580911C04E82FF0E0EB50FC4F9981A0
:100C000090838F5F80931C0480931B0481E090E0AD
:100C1000ECCF61E0CE0101960E94B905F7CFCF92EB
:100C2000DF92EF92FF920F931F93CF93DF937C019C
:100C3000CB018A0120911E042115D9F0EB016B0133
:100C4000C40ED51ECC15DD0551F4C801DF91CF913E
:100C50001F910F91FF90EF90DF90CF9008956991D1
:100C6000D701ED91FC910190F081E02DC70109952C
:100C7000E9CF642F0E94B905E8CF1F93CF93DF938C
:100C8000DC0152968D919C915397009751F421E08D
:100C900030E013963C932E931297DF91CF911F91E2
:100CA00008951D96ED91FC911E971C962C911C9712
:100CB000322F30957FB754964C915497142F127061
:100CC00041FD21C0F894408143234083EC012197EA
:100CD000F1F748E0508160FF1BC0522B5083EC01BC
:100CE0002197F1F766954A95A9F78081111591F042
:100CF000832380837FBF52968D919C910197F1F75A
:100D000081E090E0CACF6095F8944081422BDDCF1E
:100D10005323E4CF822BEDCF8FEF9FEF089580E038
:100D200090E0089508953FB7F89480915A03909108
:100D30005B03A0915C03B0915D0326B5A89B05C041
:100D40002F3F19F00196A11DB11D3FBFBA2FA92F4A
:100D5000982F8827BC01CD01620F711D811D911D47
:100D600042E0660F771F881F991F4A95D1F70895B3
:100D70004F925F926F927F928F929F92AF92BF92AB
:100D8000CF92DF92EF92FF920F931F93CF93DF9357
:100D90008B01D82FC92F0E949306262F822E972EC3
:100DA0005C016801ED2EFC2E05C0C114D104E104E4
:100DB000F10409F10E9493062B013C0148185908DF
:100DC0006A087B088601DE2DCF2D31E0C31AD108D9
:100DD000E108F108282D792DC50138EE830E33E0A6
:100DE000931EA11CB11C38EE431633E05306610478
:100DF0007104D8F6D3CFDF91CF911F910F91FF905F
:100E0000EF90DF90CF90BF90AF909F908F907F90AA
:100E10006F905F904F9008950F931F93CF93DF9340
:100E2000EC01423018F08C8188608C834F83688796
:100E3000211529F0413019F48C8184608C8364E69B
:100E400070E080E090E00E94B8066C8164FD5CC0B8
:100E5000E881F9810684F785E02D42E063E0CE0168
:100E600009958BE496E40197F1F7E881F98106840E
:100E7000F785E02D42E063E0CE01099503E512E03D
:100E8000C8010197F1F7E881F9810684F785E02D23
:100E900042E063E0CE010995C8010197F1F7E881CE
:100EA000F9810684F785E02D42E062E0CE010995E4
:100EB000C8010197F1F76C816062CE010E94D004F5
:100EC0008BEE90E00197F1F784E08D836CE0CE012A
:100ED0000E94D00461E0CE010E94D0048BE39FE128
:100EE0000197F1F782E08E8366E0CE010E94D00484
:100EF000E881F9810484F585E02D6FEFCE01DF9163
:100F0000CF911F910F9109946062CE010E94D0048D
:100F10008BE496E40197F1F76C816062CE010E9448
:100F2000D00403E512E0C8010197F1F76C8160621B
:100F3000CE010E94D004BCCFCF93DF9390E0FC01A0
:100F4000E25FFC4F249181519D4FFC0184918115FA
:100F5000D1F090E0880F991FFC01EF51FD4FA59152
:100F6000B591FC01ED52FD4FC591D5919FB762300F
:100F700069F4F8943C91822F809583238C93888127
:100F8000822B88839FBFDF91CF910895F8948C9135
:100F9000822B8C93F7CF81508F30C0F5E82FF0E093
:100FA000EB5EFB4C0C94AF2C809180008F7780938C
:100FB00080000895809180008F7DF9CF809180001E
:100FC000877FF5CF84B58F7784BD089584B58F7DF5
:100FD000FBCF809190008F7780939000089580914F
:100FE00090008F7DF9CF80919000877FF5CF809121
:100FF000C0008F778093C00008958091C0008F7DDE
:10100000F9CF8091C200877F8093C20008951F931B
:10101000CF93DF93162F282F30E0F901EC54FD4FCA
:101020008491F901E25FFC4FD491F901E151FD4F48
:10103000C491C115A1F081110E94CB07EC2FF0E003
:10104000EE0FFF1FED52FD4FA591B5919FB7F8949C
:101050008C91111108C0D095D823DC939FBFDF91EC
:10106000CF911F9108958D2B8C93F8CFDF92EF9243
:10107000FF920F931F93CF93DF938C01D62ED0E076
:10108000F8018481D81740F0DF91CF911F910F9123
:10109000FF90EF90DF9008957801ED0EF11CF701BD
:1010A000C68186898C1302C0D114E9F19EE0C53453
:1010B000C9F07CF4C03219F024F4C11108C090E0EA
:1010C00011C080ED8C0F91ED9C0F8A3058F09FE09D
:1010D00009C09CE0C03531F09DE0C53519F09BE0BA
:1010E000CC34A9F7F801A081B18162818381680FB6
:1010F0006D0F9295907F690FED91FC911197019082
:10110000F081E02DCD010995D1110AC0F80185814A
:10111000811531F061E0C03209F460E00E940708F7
:10112000F7018681868BDF5FABCF1092D40381E01D
:101130008093D3031092D20361E082E00E940708FB
:1011400061E083E00E940708E9EBF0E080818E7F98
:10115000808380818D7F808388E48093B80085E4DC
:101160008093BC000895CF93DF9391E09093AB03FD
:101170008115B9F0C091B800D091BA008091BC003F
:101180008A7B8093BC0060E082E00E94070860E0F8
:1011900083E00E9407080E949508D093BA00C0938C
:1011A000B800DF91CF910895CF93DF93282F30E0DF
:1011B000F901EC54FD4F8491F901E25FFC4FD491A9
:1011C000F901E151FD4FC491C11581F081110E94D7
:1011D000CB07EC2FF0E0EE0FFF1FEA55FD4FA59176
:1011E000B591EC91ED2381E0E11101C080E090E048
:1011F000DF91CF910895FC018485958597FD0BC003
:101200009FB7F89482E08093E9008091F2009FBF3D
:1012100090E0019608959FB7F89482E08093E900EA
:101220008091F2009FBF90E0089583E08093E900F1
:101230008091F200811519F08AE38093E800089507
:10124000CF93DF930F92CDB7DEB7DC016983ED91C9
:10125000FC910280F381E02D41E050E0BE016F5F20
:101260007F4F09950F90DF91CF910895FC01A48DD8
:10127000A80FB92FB11DA35ABF4F2C91848D90E0B8
:1012800001968F739927848FA689B7892C93A0899B
:10129000B1898C9182748C93938D848D981306C040
:1012A0000288F389E02D80818F7D80830895FC0181
:1012B000818D228D90E0805C9F4F821B91098F73FE
:1012C000992708958AEB92E00E9457099C0181E0DA
:1012D000232B09F480E0089580E090E0892B29F029
:1012E0000E94620981110C9400000895FC01918D07
:1012F000828D981731F0828DE80FF11D858D90E079
:1013000008958FEF9FEF0895FC01918D828D9817BE
:1013100061F0A28DAE0FBF2FB11D5D968C91928DA5
:101320009F5F9F73928F90E008958FEF9FEF0895D6
:10133000FC01538D448D842F90E0252F30E0821BDB
:10134000930B541710F0CF96089501970895CF93FB
:10135000DF93EC01888D81110FC0DF91CF9108954B
:101360000FB607FC0DC08C9185FF0AC0808185FFF8
:1013700007C0CE010E943609AA89BB89E889F9898C
:101380008C9185FDEDCF808186FFEACFE6CFEF928D
:10139000FF920F931F93CF93DF93EC01F62E81E022
:1013A000888F9B8D8C8D981319C0E889F98980816D
:1013B00085FF14C09FB7F894EE89FF896083E889A0
:1013C000F9898081827480839FBF81E090E0DF9102
:1013D000CF911F910F91FF90EF9008950B8D10E02A
:1013E0000F5F1F4F0F731127E02E8C8D8E1579F034
:1013F000EB8DEC0FFD2FF11DE35AFF4FF0829FB7ED
:10140000F8940B8FEA89FB8980818062DCCF0FB66C
:1014100007FCEBCFE889F989808185FFE6CFCE0113
:101420000E943609E2CFCF92DF92EF92FF920F93A4
:101430001F93CF93DF937C016A0100E010E00C154D
:101440001D0551F4C801DF91CF911F910F91FF90BD
:10145000EF90DF90CF900895EB01D701ED91FC91D3
:101460000190F081E02D6991C7010995892B51F315
:101470000F5F1F4FBE01E3CF615028F4289884E628
:101480008093B2020895FC018091F1008193CF0115
:10149000F3CF4091B0025091B1022091AE02309151
:1014A000AF0242175307BCF49091E8009570911574
:1014B000D9F39091E80092FD19C08093F1008091DA
:1014C000B0029091B10201968F739927892B19F47C
:1014D0008EEF8093E8008091B0029091B102019666
:1014E0009093B1028093B00281E0089580E0089566
:1014F000EF92FF920F931F93CF93DF93F82E192F44
:10150000E62E042F81E0860F880F0E94490A83E0AF
:101510000E94490ACF2DD12FEC0EFD2EF11CCE15C5
:10152000DF0511F481E00EC0011599F0FE018491F0
:101530000E94490A182F80E00E94490A81232196BF
:101540008111EDCFDF91CF911F910F91FF90EF901F
:1015500008958881EDCF8091790281110DC082E0DC
:101560008093750284E08093760210927802109244
:10157000770281E08093790285E792E008952FB7A2
:10158000F89483E08093E9009091E800892F8072BD
:1015900095FF04C09091F20080E4891B2FBF08954D
:1015A0000E94BF0A90E008958F929F92AF92BF92DF
:1015B000CF92DF92EF92FF920F931F93CF93DF931F
:1015C0007C018B01EA0180910C01811571F1809100
:1015D0005903811551F18091580380FF05C0809116
:1015E000E00082608093E0006E01B12C8AEFA82EAB
:1015F00093E0892E2AE3922E0CC00E94BF0A81112B
:1016000029C0AA9491F061E070E080E090E00E942F
:10161000B806C114D10489F7B110EFCF5D9884E604
:10162000809357031C161D063CF081E090E0F70103
:1016300093838283C0E0D0E0CE01DF91CF911F91F0
:101640000F91FF90EF90DF90CF90BF90AF909F9061
:101650008F900895C816D1040CF48C2D9FB7F89480
:101660008092E9002091E80025FD02C09FBFD1CF04
:10167000282F30E0C81AD108A801815040F4020F89
:10168000131FB11451F09092E800B12CEFCFFA0182
:1016900041914093F100AF01F0CF8091E80085FDCA
:1016A000F4CF9092E800BB24B394C114D104F1F2BA
:1016B000ECCF90915903911103C08FEF9FEF0895E4
:1016C0002FB7F89492E09093E9009091F200492F9F
:1016D00050E0911102C0452B31F0289884E68093A8
:1016E000B2028091F100911102C02FBFE6CF90911C
:1016F000F200911103C09BE69093E8002FBF90E0A9
:101700000895CF93DF93EC018C859D8597FF04C0EE
:101710000E94590B9D878C87DF91CF910895FC0122
:101720008485958597FD0C94590B2FEF3FEF3587F6
:10173000248708958F929F92AF92BF92CF92DF92AB
:10174000EF92FF920F931F93CF93DF93D0911B04DF
:10175000C1E0D13208F09EC0F0901D040E949306B3
:101760004B015C01C091D403C1116EC082E0809333
:10177000D40381E08093D3038FEF8093870310928B
:10178000A903D093A80325EF33E0A8E8B3E0F9015B
:101790008E2F821B8D1708F491C01092AA0380919E
:1017A000AA03FF0CF82AF092AA038091D203813099
:1017B00009F087C01092D2030E9493066B017C014E
:1017C0008091AA038093BB008091AD039091AE03FA
:1017D000A091AF03B091B003892B8A2B8B2BA1F082
:1017E0000E9493068090AD039090AE03A090AF034B
:1017F000B090B0036C197D098E099F098616970673
:10180000A806B90608F441C08091BC0083FDD8CF7A
:1018100085EC8093BC000E9493066B017C01809153
:10182000D403823009F44FC0809187038F3F91F138
:1018300080918703C2E0803269F180918703C3E021
:10184000803341F1C4E026C08091AD039091AE0396
:10185000A091AF03B091B003892B8A2B8B2B09F495
:1018600081CF0E9493060091AD031091AE032091A9
:10187000AF033091B003681979098A099B090617EB
:1018800017072807390708F06DCF8091AC030E9435
:10189000B308C5E010921C0410921B0410921E04A1
:1018A0008C2FDF91CF911F910F91FF90EF90DF90E0
:1018B000CF90BF90AF909F908F90089581918D931E
:1018C00067CF85EEA6CF8091AD039091AE03A09136
:1018D000AF03B091B003892B8A2B8B2B09F49FCFD8
:1018E0000E9493068090AD039090AE03A090AF034A
:1018F000B090B0036C197D098E099F098616970672
:10190000A806B90608F08BCFC0CF2091E80430912B
:10191000E9042115310509F457C08091EE048115C1
:1019200009F44CC0805D809356018091EF048115CD
:1019300009F446C0805D809357018091F0048115C1
:1019400009F440C0805D809358018091F104805D6E
:101950009AE38093590190935A018091F204811186
:1019600002C0232BD1F1805D80935B018091F30451
:10197000805D80935C018091F60490E2853008F4EC
:101980009AE390935D019091F404905D90935E01D1
:101990009091F504905D90935F019EE290936001B9
:1019A000805D809361018091F704805D8093620186
:1019B0008091F804805D80936301089580E2B3CF45
:1019C00080E2B9CF80E2BFCF80E28093560180935E
:1019D00057018093580190E2BCCF80E2C5CF40E12F
:1019E00050E060E270E082E395E00E94D82F40E191
:1019F00050E060E270E082E495E00C94D82F909182
:101A00006B008095892380936B0080916B0081111E
:101A100005C0809168008E7F80936800089593B11F
:101A200090936403EBE6F0E09081982B9083E8E6D6
:101A3000F0E08081816080830895CF9380E293E01D
:101A40009093710180937001C091520580E10E94D2
:101A50000F0D83E493E090936F0180936E0180E219
:101A60000E940F0D86E693E090936D0180936C01C8
:101A700080E40E940F0D89E893E090936B018093BE
:101A80006A01C06FC093520580E8CF910C940F0D8E
:101A9000809100018C3069F4E0E3F2E0E4918FEF93
:101AA00080930001E330D1F040F4E11571F0E130B2
:101AB00079F060E08CE00C940708E430D1F7809175
:101AC00072008F7B80937200F4CF10926E00F1CF82
:101AD00080916F008D7F80936F00EBCF80917100BC
:101AE0008D7F80937100E5CF80933B0670933A061B
:101AF0006093390650933806409337063093360684
:101B0000209335060E94F2026093310670933206EC
:101B10008093330690933406109230060C94480D4F
:101B2000CF93DF939C010696F901C481C20FD32F96
:101B3000D11D6F71A62F660FBB0BAB5ABE4F2C1772
:101B40003D0719F4DF91CF910895EDA1EA3331F407
:101B50004C91FC014193CF012197F1CFEF710E2EF3
:101B6000000CFF0BEB5AFE4F4081F3CFCF93C82FF1
:101B70000E94850CC11519F08AE380935D0146E54A
:101B800051E061E082E00E943F04C091E7046C2FC5
:101B900080E394E00E94900D6C2F86E694E0CF9154
:101BA0000C94900DFC0144815581608171818FE618
:101BB00095E00C94D40A0F931F93CF93DF938C017D
:101BC000EB01FE016491611531F0C8010E9420090A
:101BD0002196892BB1F7DF91CF911F910F91089535
:101BE000FF920F931F93CF93DF93F82EEB018B019E
:101BF000040F151FC017D10749F0F11469F0FE0159
:101C000084910E94490A21968111F4CFDF91CF91EE
:101C10001F910F91FF9008958881F3CF0F931F9329
:101C2000CF93DF930F92CDB7DEB782E0898342E492
:101C300050E064E672E080E80E94F00D0E94AB0A7A
:101C4000DC0112960D911C910115110539F4898161
:101C50000F90DF91CF911F910F910895D801ED91D1
:101C6000FC910280F381E02DBE016F5F7F4FC801C0
:101C7000099597FDECCFF80100851185E5CFFC01B2
:101C80008381811599F08181682B6083828191E045
:101C900090931E0480931D0410921C0410921B0448
:101CA0008FE194E00E94E0050C949A0B0895EF9266
:101CB000FF920F931F93CF93DF93EC01162F042F06
:101CC000F22E8B85888B10921A04109219041092B0
:101CD0001C0410921B040E94950887E795E09093DE
:101CE00018048093170488E795E090931604809376
:101CF00015048889EE24E394E0921E0480931D0469
:101D00000E949A0B811111C0E98A8FE194E00E9430
:101D100096058E878989811549F01F861C8260E0AF
:101D2000CE010E960E943F0E01C0198A2F2D402F22
:101D3000612FCE01DF91CF911F910F91FF90EF9016
:101D40000C940C07FC01862F6485611599F02185A0
:101D500032852115310521F4811107C060E005C0ED
:101D600021303105D9F78111F9CF6587CF010E9662
:101D70000C943F0E0895EF92FF921F93CF93DF9341
:101D8000EC01FC019C012C5F3F4F80E060FF02C032
:101D90009589892B66953196E217F307B9F741309B
:101DA00009F44C899D85892B142F182B7E018EE018
:101DB000E80EF11C6A89612BC7010E943F0E6A89F7
:101DC00060956123C701DF91CF911F91FF90EF9044
:101DD0000C943F0E0F931F93CF93DF93D82FC92FEF
:101DE000142F062F0F7040E0123031F062956F70A3
:101DF000412F0E94BB0E412F602F8D2F9C2FDF9112
:101E0000CF911F910F910C94BB0E4F925F926F92E6
:101E10007F928F929F92AF92BF92CF92DF92EF927A
:101E2000FF920F931F93CF93DF93CDB7DEB76097E9
:101E30000FB6F894DEBF0FBECDBFD82EC62E542EDF
:101E4000452EE12CF12C5E0181E1A80EB11C8E0122
:101E50000F5F1F4F48013701C3010E949832F40100
:101E600081934F01FFEF6F1A7F0A8A149B04A1F739
:101E7000A801425F5F4F2FEF3FEFF80181918F0183
:101E8000382788E0B901220F331F77FF04C0F1E241
:101E90002F27F0E13F278A95A9F74017510769F7E7
:101EA0008F8598898217930741F589818D1125C007
:101EB0008A818F77C81221C08CE0FE013396A52D50
:101EC000B42D01900D928A95E1F781E060960FB6EE
:101ED000F894DEBF0FBECDBFDF91CF911F910F9160
:101EE000FF90EF90DF90CF90BF90AF909F908F903A
:101EF0007F906F905F904F90089580E1E80EF11C05
:101F000090EFE91693E0F90609F0A1CF80E0DECF6B
:101F1000FB01EF2B51F0DB010D900020E9F7119749
:101F2000AD01461B570B0C94D40A08956F927F9213
:101F30008F929F92AF92BF92CF92DF92EF92FF92D9
:101F40000F931F93CF93DF93CDB7DEB7A1970FB653
:101F5000F894DEBF0FBECDBF3C01142F052F962E87
:101F6000872E19A2223008F42AE05E0181E2A80E31
:101F7000B11CC22ED12CE12CF12C612F702F892D98
:101F8000982DA70196010E946E2C812F902FA92DCC
:101F9000B82D122F032F942E852E6A3014F5605D14
:101FA000F50162935F018C159D05AE05BF0528F70D
:101FB000BF01C3010E94880FA1960FB6F894DEBF3F
:101FC0000FBECDBFDF91CF911F910F91FF90EF908A
:101FD000DF90CF90BF90AF909F908F907F906F9049
:101FE0000895695CDDCF64E172E00C94880F1F9363
:101FF000CF93DF93D62FC72F142F0E94D20D64E307
:1020000073E08FE695E00E94DB0D8D2F9C2F11155C
:1020100049F00E94D20D8FE695E0DF91CF911F919C
:102020000C94F30FDF91CF911F910C94D20DCF93AD
:10203000DF93D82FC92F0E94880F8D2F9C2FDF91FF
:10204000CF910C94F30FCF93DF93D82FC92F0E9419
:10205000DB0D8D2F9C2FDF91CF910C94F30F009708
:1020600011F00C94882E089585ED8093BC0080912A
:10207000AD039091AE03A091AF03B091B00307966A
:10208000A11DB11D23E0B695A795979587952A9533
:10209000D1F72091BC0024FD03C01092D403089511
:1020A0004091AD035091AE036091AF037091B003C6
:1020B000452B462B472B69F30097A105B10541F04D
:1020C0002AE22A95F1F700C00197A109B109E1CFF1
:1020D0008091AC030C94B3080F931F93CF93DF93BD
:1020E000EC018B0188819981009729F02A813B813D
:1020F0002617370790F4B8016F5F7F4F0E94192FA2
:10210000FC0180E0309751F0F983E8831B830A8358
:102110008C819D81892B09F4108281E0DF91CF9120
:102120001F910F9108957F928F929F92AF92BF92CD
:10213000CF92DF92EF92FF920F931F93CF93DF9393
:1021400000D000D000D0CDB7DEB75C01762E009174
:102150002B0480E1089F8001112402511E4F1C8234
:102160001B821E821D82F80101900020E9F7319741
:102170006F01C01AD10A1A821982B601CE010196E6
:102180004C010E946C10E980FA80811129C0E11491
:10219000F10419F0C7010E94882E1E821D821C8244
:1021A0001B82E12CF12CFA82E982472DB501C40192
:1021B0000E94F70FC7010F900F900F900F900F9094
:1021C0000F90DF91CF911F910F91FF90EF90DF90D3
:1021D000CF90BF90AF909F908F907F900C942F10D6
:1021E000DE82CD82B801C7010E94DF2FDCCF2F92A3
:1021F0003F924F925F926F927F928F929F92AF9297
:10220000BF92CF92DF92EF92FF920F931F93CF93E3
:10221000DF93CDB7DEB760970FB6F894DEBF0FBE81
:10222000CDBF262EC72ED82EE92E342EF22E28EE24
:1022300033E040E050E00E946E2C562E472E8CE397
:10224000882E912CA12CB12CCA01B901A5019401B1
:102250000E946E2C762E672ECA01B901A501940149
:102260000E946E2C962E872EF11431F067E172E0F9
:102270008FE695E00E94880F8E010F5F1F4F31148B
:1022800009F445C04F925F926F927F928F929F9216
:10229000622D7C2D8D2D9E2D20E83EEE46E350E0F4
:1022A0000E946E2C3F932F938AE192E09F938F932D
:1022B0001F930F930E94E62F0FB6F894DEBF0FBE58
:1022C000CDBFB8018FE695E00E94880FF11431F080
:1022D0006EE272E08FE695E00E94880F60960FB67E
:1022E000F894DEBF0FBECDBFDF91CF911F910F914C
:1022F000FF90EF90DF90CF90BF90AF909F908F9026
:102300007F906F905F904F903F902F9008954F92E5
:102310005F926F927F928F929F928FE192E09F9354
:102320008F931F930F930E94E62FC6CFFC01448129
:1023300050E060E270E006960C94D82FCF93DF93C4
:10234000C091DD04D091DE042097D1F468ED74E0F3
:1023500084ED94E00E94AC030E94850C8CE994E02B
:102360000E949611C091E7046C2F86E694E00E94CB
:10237000900D6C2F80E394E0DF91CF910C94900D41
:1023800063EE74E08FED94E00E94AC030E94850C34
:10239000219721F746E551E061E086E00E943F0485
:1023A000DDCF8F929F92AF92BF92CF92DF92EF924A
:1023B000FF920F931F93CF93DF936B017C01A701D3
:1023C0009601C701B6010E940E3460E372E08111EC
:1023D00014C0C701B6010E94043464E372E0892B83
:1023E00061F42FEF3FEF4FE75FE4C701B6010E94B2
:1023F000FF33181694F468E372E08FE695E0DF91FE
:10240000CF911F910F91FF90EF90DF90CF90BF90F1
:10241000AF909F908F900C94880F2FEF3FEF4FE776
:102420005FECC701B6010E94CE2C87FDE4CF20E00F
:1024300030E0A901C701B6010E94CE2C87FF09C078
:102440006DE28FE695E00E942009F7FAF094F7F824
:10245000F0942EE632E143E05AE3C701B6010E9450
:10246000F2326B017C010E94D0338B01D82FC92F2F
:102470000E94D32C9B01AC01B601C7010E94F1322E
:102480006B017C012AE0A8016D2F7C2F8FE695E07F
:102490000E94960F6EE28FE695E00E942009C3E04D
:1024A00020E030E040E251E4B601C7010E94342D43
:1024B000F62E072F182FD92F0E94D0334B01A12CB5
:1024C000B12C2AE0B501A4018FE695E00E94960F99
:1024D000C501B4010E94D32C9B01AC016F2D702F5C
:1024E000812F9D2F0E94F1326B017C01CA95C1F6AC
:1024F000DF91CF911F910F91FF90EF90DF90CF90E0
:10250000BF90AF909F908F9008953F924F925F92AF
:102510006F927F928F929F92AF92BF92CF92DF92F3
:10252000EF92FF920F931F93CF93DF9300D000D0D1
:10253000CDB7DEB769EA71E08FE695E00E9423101F
:102540002091BF0580EC95E09A838983FC0180E0AF
:10255000812C912C5401C12CD12C760144244A9415
:10256000542C32018213BFC09FEF491659066906E9
:102570007906C1F0D701C601C814D904EA04FB04E6
:1025800010F4D501C4010097A105B10559F08419D3
:102590009509A609B709332433948F379E4EA64375
:1025A000B10508F4312C00E010E08091BF05081758
:1025B000110508F4B0C0FFEF4F165F066F067F06E7
:1025C00009F476C0C114D104E104F10409F470C027
:1025D00081149104A104B10409F46AC0D701C601B1
:1025E00084199509A609B70989839A83AB83BC83AB
:1025F000D501C40184199509A609B7092C013D012B
:102600008FE695E00E94F30F61E571E08FE695E0BB
:102610000E94231065E471E08FE695E00E94DB0DD7
:1026200020E0432D69817A818B819C810E94F71083
:102630008FE695E00E94F30F69E371E08FE695E085
:102640000E94DB0D20E0432DC301B2010E94F71070
:102650008FE695E00E94F30F89819A81AB81BC815E
:1026600084159505A605B70508F0AEC063E271E0D4
:102670008FE695E00E94231067E171E08FE695E018
:102680000E94DB0DC501B4016C197D098E099F09FB
:102690000E94D32C20E030E04AE754E40E945E33ED
:1026A0000E94D1116EE372E08FE695E00E94171050
:1026B00067EC70E08FE695E00F900F900F900F9011
:1026C000DF91CF911F910F91FF90EF90DF90CF900E
:1026D000BF90AF909F908F907F906F905F904F9042
:1026E0003F900C9423109481913039F440805180B4
:1026F000628073808F5F379635CF933029F4C08026
:10270000D180E280F380F6CF9430A1F78080918071
:10271000A280B380EFCFA981BA816D917D918D9117
:102720009C91641975098609970921E0432D0E943F
:10273000F7106CE372E08FE695E00E94880FA981A4
:10274000BA811496EC91E150E73058F4F0E0EC5D7A
:10275000FB4C0C94AF2C63EA71E08FE695E00E948D
:10276000DB0DE981FA8185819681892B79F067E615
:1027700071E08FE695E00E94DB0DA981BA81159684
:102780006D917C918FE695E00E94880F8FE695E031
:102790000E94F30F0F5F1F4FE981FA813796FA838A
:1027A000E98303CF6BE971E0D8CF6CE871E0D5CF56
:1027B0006CE771E0D2CF66E771E0CFCF61E771E0FF
:1027C000CCCF6BE671E0C9CF89819A81AB81BC81A6
:1027D000481659066A067B0698F460E071E08FE6B9
:1027E00095E00E94231064EF70E08FE695E00E9470
:1027F000DB0DC701B601681979098A099B0948CF21
:102800006EED70E08FE695E00E94231051CFEF92BD
:10281000FF920F931F93CF93DF93EC018B01CB01BA
:102820000E94C52C7C01BC01CE010E946C10282F97
:1028300088819981211111C0009711F00E94882E82
:10284000198218821D821C821B821A82DF91CF910D
:102850001F910F91FF90EF900895EC82FD82B801D7
:10286000DF91CF911F910F91FF90EF900C94BE2CB0
:102870000F931F93CF93DF9300D000D000D0CDB73C
:10288000DEB7EDEDF4E082E090E0918380838BE6AB
:10289000828763EE74E08FED94E00E94AC0381E0E8
:1028A0000E94B60D1C821B821E821D821A82198212
:1028B0006BED73E0CE0101960E94071409811A8125
:1028C000CE0101960E94C604C8010E942F1084E028
:1028D00090E00F900F900F900F900F900F90DF915E
:1028E000CF911F910F910C94FE02CF92DF92FF9235
:1028F0000F931F93CF93DF9300D000D000D0CDB7BC
:10290000DEB78C01F62E1C821B821E821D821A826B
:1029100019826DE273E0CE0101960E940714C9800E
:10292000DA804F2DB801CE0101960E94F70FC60143
:102930000F900F900F900F900F900F90DF91CF910D
:102940001F910F91FF90DF90CF900C942F100F9359
:102950001F93CF93DF9300D000D000D0CDB7DEB768
:10296000E0ECF5E08FEF9FEFDC0180839183A283A1
:10297000B383148216821582379626E0E033F2077D
:10298000A1F71092BF051C821B821E821D821A8233
:1029900019826FE275E0CE0101960E940714098149
:1029A0001A8161E0CE0101960E947514C8010F9052
:1029B0000F900F900F900F900F90DF91CF911F917C
:1029C0000F910C942F108F929F92AF92BF92CF9243
:1029D000DF92EF92FF920F931F93CF93DF9300D07C
:1029E00000D000D0CDB7DEB78C01DB01FA018FB784
:1029F000F8948D909D90AD90BC90E080F1808FBF59
:102A0000F80181819281A381B481A5019401281BE1
:102A1000390B4A0B5B0BDA01C9012781821791053B
:102A2000A105B10508F47DC081829282A382B4829F
:102A3000F682E58281E080831C821B821E821D82D9
:102A40001A82198269E275E0CE0101960E9407148C
:102A5000C980DA8060E0CE0101960E947514C6013B
:102A60000E942F10F80160858FE695E00E942009F2
:102A70000257114059F480914A0690914B06892BD8
:102A800029F46BE28FE695E00E94200965E275E08B
:102A90008FE695E00E94DB0D2AE0B501A4018FE6E8
:102AA00095E00E94960F6EE28FE695E00E94200965
:102AB000C70164E670E00E945A2C605D8FE695E0E5
:102AC0000E9420092AE030E0C701B9010E945A2C77
:102AD000182FCB01B9010E945A2C60E3680F8FE6D2
:102AE00095E00E94200960E3610F8FE695E00E9467
:102AF000200961E275E08FE695E00F900F900F904E
:102B00000F900F900F90DF91CF911F910F91FF9039
:102B1000EF90DF90CF90BF90AF909F908F900C94EC
:102B200023100F900F900F900F900F900F90DF9148
:102B3000CF911F910F91FF90EF90DF90CF90BF90BA
:102B4000AF909F908F900895BF92CF92DF92EF92B7
:102B5000FF920F931F93CF93DF9300D000D000D04C
:102B6000CDB7DEB7182F1092450110927201109266
:102B70001C01109213011C821B821E821D821A826C
:102B8000198269E473E0CE0101967C010E9407146A
:102B9000C980DA8061E0C7010E947514C6010E94F5
:102BA0002F1080912C0490912D04BE2C0F2D892B79
:102BB00009F18AE090E090934B0680934A060E94C8
:102BC000F2026E5C7F4F8F4F9F4F6B017C010E9422
:102BD000F2026C157D058E059F0560F480914A0612
:102BE00090914B060B9731F0E0912C04F0912D045D
:102BF0000995EDCF0E941D0D89E090E090934B0662
:102C000080934A0610932B0480E1189FF001112451
:102C1000E351FE4F8685978590932D0480932C0475
:102C20001C821B821E821D821A82198261E473E05B
:102C30008B2D902F0E940714E980FA8060E08B2D85
:102C4000902F0E947514C7010E942F1060912B04D1
:102C500090E1699FB001112462517E4F8FE695E0AB
:102C60000E94880F67E373E08FE695E00F900F9066
:102C70000F900F900F900F90DF91CF911F910F91B8
:102C8000FF90EF90DF90CF90BF900C942310EF92C5
:102C9000FF921F93CF93DF9300D000D000D0CDB729
:102CA000DEB7182FE091BF05813039F18DEF810F2C
:102CB000823018F1ED3008F11C821B821E821D82C9
:102CC0001A8219826DEB70E0CE0101960E94071402
:102CD000E980FA8061E0CE0101960E947514C70177
:102CE0000F900F900F900F900F900F90DF91CF915A
:102CF0001F91FF90EF900C942F1087E0E89FF00158
:102D00001124E054FA4F4083518362837383148308
:102D1000168215821C821B821E821D821A821982D3
:102D200064EB70E0CE0101960E940714E980FA80FE
:102D300060E0CE0101960E947514C7010E942F1019
:102D4000412F50E060E070E02AE08FE695E00E94BD
:102D5000960F6CEA70E08FE695E00E942310809158
:102D6000BF058F5F8093BF050F900F900F900F905E
:102D70000F900F90DF91CF911F91FF90EF900895EA
:102D8000CF92DF92EF92FF92CF93DF93CDB7DEB772
:102D90002C970FB6F894DEBF0FBECDBFE0914A0668
:102DA000F0914B06EC30F10508F068C2E55DFB4C94
:102DB0000C94AF2C1C821B821E821D821A821982E7
:102DC0006BE175E0CE0101960E940714E980FA805C
:102DD00061E0CE0101960E949310C7010E942F105E
:102DE0008BE090E02C960FB6F894DEBF0FBECDBFFF
:102DF000DF91CF91FF90EF90DF90CF900C94FE0287
:102E000080E394E00E9496118CE994E00E94961170
:102E100086E694E00E949611AE014F5F5F4F60E03E
:102E200081E00E94050F8115E9F1298130E0A0E1E0
:102E3000BEE00E94E2326B017C012A8130E0ACE30B
:102E4000B0E00E94E232C60ED71EE81EF91E8B814A
:102E5000A7019601280F311D411D511DA8EEB3E0B9
:102E60000E94A032609352017093530180935401E9
:102E7000909355012C8130E00E94E2326B017C017D
:102E80002D8130E0A4E6B0E00E94E232C60ED71EEB
:102E9000E81EF91EC0924E01D0924F01E0925001FF
:102EA000F092510124E030E03093D3042093D20417
:102EB0008FE68093DC043093DE042093DD0480935E
:102EC000E70480E090E08ECF80917B01811599F13D
:102ED00010927B010E94EF0C1C821B821E821D82BD
:102EE0001A82198261E175E0CE0101960E940714F1
:102EF000E980FA8042E061E0CE0101960E948904F7
:102F0000C7010E942F101C821B821E821D821A8202
:102F1000198260E075E0CE0101960E940714E980F5
:102F2000FA80AE014F5F5F4F61E080E00E9456047F
:102F3000C7010E942F1080917201811509F49EC172
:102F40001092720185E090E04DCF80917B01811558
:102F500009F474C010927B0181E0809349060E94BD
:102F6000EF0C1C821B821E821D821A82198268EF5E
:102F700074E0CE0101960E940714E980FA80CE0128
:102F800001960E94C604C7010E942F101C821B825A
:102F90001E821D821A82198267EE74E0CE010196AC
:102FA0000E940714E980FA80AE014F5F5F4F61E035
:102FB00080E00E945604C7010E942F101092D30493
:102FC0001092D2048BE68093DC041092D404109209
:102FD000D5041092D6041092D7044091520150911A
:102FE000530160915401709155014093D80450935E
:102FF000D9046093DA047093DB041092DE0410921B
:10300000DD048093E70487E0E1E4F2E0DE0111965D
:1030100001900D928A95E1F787E0FE013196ACE8C8
:10302000B4E001900D928A95E1F787E0FE013196B8
:10303000A6E5B4E001900D928A95E1F780914906EA
:10304000811509F10E94F202AB01BC0180914E0191
:1030500090914F01A0915001B0915101C09045064F
:10306000D0904606E0904706F09048068C0D9D1DD6
:10307000AE1DBF1D84179507A607B70720F4109251
:1030800049060E949E1180914501811531F01092F0
:10309000450186E090E00E94FE0280917201811558
:1030A00009F4ECC01092720181E090E09BCE809117
:1030B0007B01811509F489C010927B0181E0809326
:1030C00049060E94EF0C1C821B821E821D821A82FE
:1030D000198261EE74E0CE0101960E940714E98026
:1030E000FA80CE0101960E94C604C7010E942F10EB
:1030F0001C821B821E821D821A82198260ED74E07E
:10310000CE0101960E940714E980FA80AE014F5F5C
:103110005F4F61E080E00E945604C7010E942F10BB
:10312000809145018111109245011092D4041092B2
:10313000D5041092D6041092D7041092D80410929D
:10314000D9041092DA041092DB041092DF0410927A
:10315000E0041092E1041092E2041092E304109251
:10316000E4041092E5041092E6041092D304109245
:10317000D2048BE68093DC041092DE041092DD040E
:103180008093E70468ED74E084ED94E00E94AC0362
:103190000E94850C4091340450E06DE072E086E5B9
:1031A00094E00E94CF2F4091A00450E065E371E0CD
:1031B00082EC94E00E94CF2F40916A0450E065E2D7
:1031C00071E08CE894E00E94CF2F80914906811530
:1031D00081F10E94F202AB01BC0180914E019091FD
:1031E0004F01A0915001B0915101C0904506D0907F
:1031F0004606E0904706F09048068C0D9D1DAE1DDA
:10320000BF1D84179507A607B70798F410924906C3
:10321000F090DC046F2D80E394E00E94900D6F2D00
:103220008CE994E00E94900D6F2D86E694E00E9458
:10323000900D80917201811519F01092720141CEAA
:1032400080911C01811529F010921C0188E090E00A
:10325000C9CD80911301811519F010921301F6CF99
:103260008AE00E94D408892B89F38BE00E94D4085D
:10327000892B61F38091450181110DC02C960FB609
:10328000F894DEBF0FBECDBFDF91CF91FF90EF90DE
:10329000DF90CF900895109245010E9412031C8286
:1032A0001B821E821D821A82198262EC74E0CE019A
:1032B00001960E940714E980FA8061E0CE01019630
:1032C0000E949310C7010E942F100E94A7144091E2
:1032D000460150914701609148017091490181E098
:1032E0000E9447168091460190914701A0914801A4
:1032F000B09149018093D4049093D504A093D6044F
:10330000B093D7048093DF049093E004A093E1048A
:10331000B093E20421E030E03093D3042093D20450
:1033200088E68093DC043093DE042093DD048093F0
:10333000E70482E090E056CD80917B018115C1F0D9
:1033400010927B011C821B821E821D821A821982AE
:1033500064EB74E0CE0101960E940714E980FA80C4
:1033600061E0CE0101960E949310C7010E942F10C8
:1033700080917201811161CF8AE00E94D408892B6B
:1033800009F40EC120E030E08BE63093D3042093A3
:10339000D2048093DC048BE00E94D408892B09F4CA
:1033A00003C180E090E02BE69093DE048093DD047F
:1033B0002093E7042091D2043091D30425303105C5
:1033C00019F0059709F0F4C080912F04811549F098
:1033D00024E630E040E550E060ED77E083E00E94D5
:1033E000740D40E150E060E270E082E495E00E94FC
:1033F000D82F8091D2049091D304059709F0D8C0BA
:103400001C821B821E821D821A8219826CEA74E061
:10341000CE0101960E940714E980FA80AE014F5F49
:103420005F4F61E080E00E945604C7010E942F10A8
:103430001C821B821E821D821A82198266EA74E037
:10344000CE0101960E940714E980FA80BE016F5FE9
:103450007F4F8CE994E00E94CA02C7010E942F109E
:103460001C821B821E821D821A82198260EA74E00D
:10347000CE0101960E940714E980FA80BE016F5FB9
:103480007F4F80E394E00E94CA02C7010E942F1080
:103490008091DD049091DE04059709F08EC01C82B6
:1034A0001B821E821D821A82198268E974E0CE0195
:1034B00001960E940714E980FA80AE014F5F5F4FCA
:1034C00061E089E00E945604C7010E942F101C820F
:1034D0001B821E821D821A82198262E974E0CE016B
:1034E00001960E940714E980FA80BE016F5F7F4F4A
:1034F00086E694E00E94CA02C7010E942F101C8237
:103500001B821E821D821A8219826CE874E0CE0131
:1035100001960E940714E980FA80BE016F5F7F4F19
:1035200080E394E00E94CA02C7010E942F1080919C
:10353000D2049091D3042091DD043091DE04822BDB
:10354000932B892B09F09ACE1C821B821E821D822E
:103550001A82198261E874E0CE0101960E94071474
:10356000E980FA8061E0CE0101960E949310C701C4
:103570000E942F1080E394E00E94961180911C011C
:10358000811110921C01809113018111109213017D
:1035900080914501811509F487CD1092450184CDB4
:1035A00025E030E08FE6F1CE85E090E02FE6FCCE1E
:1035B0008CE994E00E9496116BCF86E694E00E941D
:1035C0009611B5CF80917B018115C9F010927B01D6
:1035D0000E94EF0C1C821B821E821D821A8219829D
:1035E00066E774E0CE0101960E940714E980FA8034
:1035F000CE0101960E94C604C7010E942F1080913F
:10360000D2049091D304019709F06EC080911C01FF
:10361000811509F469C010921C0140911D0150915F
:103620001E0160911F01709120014093D8045093B6
:10363000D9046093DA047093DB0482E090E0909305
:10364000D3048093D2048BE68093DC0483E00E9451
:10365000471668ED74E084ED94E00E94AC030E948C
:10366000850C6091DC048CE994E00E94900D8AE363
:1036700080935D0146E551E060E082E00E943F04F6
:103680001C821B821E821D821A8219826FEE73E0D9
:10369000CE0101960E940714E980FA80AE014F5FC7
:1036A0005F4F60E080E00E945604C7010E942F1027
:1036B0001C821B821E821D821A82198264EE73E0B4
:1036C000CE0101960E940714E980FA8060E0CE01E5
:1036D00001960E949310C7010E942F1066E571E0C9
:1036E0008FE695E00E9417108091DD049091DE0432
:1036F000019709F06EC080911301811509F469C02A
:10370000109213014091140150911501609116011E
:10371000709117014093E3045093E4046093E5042F
:103720007093E60482E090E09093DE048093DD04E1
:103730008BE68093E70484E00E94471663EE74E012
:103740008FED94E00E94AC030E94850C6091E70429
:1037500086E694E00E94900D8AE380935D0146E541
:1037600051E061E082E00E943F041C821B821E82C5
:103770001D821A82198260E074E0CE0101960E94D7
:103780000714E980FA80AE014F5F5F4F61E080E08F
:103790000E945604C7010E942F101C821B821E82A9
:1037A0001D821A82198264EF73E0CE0101960E9495
:1037B0000714E980FA8060E0CE0101960E94931020
:1037C000C7010E942F1066E571E08FE695E00E9428
:1037D00017108091D2049091D304029789F58091BB
:1037E000DD049091DE04029759F58091E3049091F5
:1037F000E404A091E504B091E6044091D80450910E
:10380000D9046091DA047091DB04481759076A07FC
:103810007B0788F463EE74E08FED94E00E94AC03C4
:103820000E94850C6091DC0480E394E00E94900D7E
:1038300084E090E0D7CA68ED74E084ED94E0EECFC8
:10384000F0902E04F11409F442C00E94F202698340
:103850007A838B839C83BE016F5F7F4F8FED94E0F3
:103860000E94AC030E94850C8091DD049091DE04DF
:10387000019799F4F090E7046F2D86E694E00E949A
:10388000900D6F2D80E394E00E94900D46E551E08D
:1038900061E082E00E943F04F12C8091D20490917B
:1038A000D3040197A1F4E090DC046E2D8CE994E040
:1038B0000E94900DF11459F06E2D80E394E00E9467
:1038C000900D46E551E060E082E00E943F04809167
:1038D0004501811519F1109245011C821B821E823F
:1038E0001D821A8219826EE674E0CE0101960E9452
:1038F0000714E980FA8061E0CE0101960E949310DE
:10390000C7010E942F1040914601509147016091DC
:1039100048017091490182E00E944716809172012E
:10392000811509F4ABCC109272011C821B821E829D
:103930001D821A8219826FE574E0CE0101960E9401
:103940000714E980FA8061E0CE0101960E9493108D
:10395000C7010E942F104091730150917401609132
:1039600075017091760185E00E9447161C821B82CA
:103970001E821D821A82198262E574E0CE010196D0
:103980000E940714E980FA80CE0101960E94C604C5
:10399000C7010E942F1022E030E03093D30420931F
:1039A000D2048BE68093DC043093DE042093DD04A4
:1039B0008093E7043DCF80917B018115D1F0109277
:1039C0007B011C821B821E821D821A82198263E483
:1039D00074E0CE0101960E940714E980FA8061E04C
:1039E000CE0101960E949310C7010E942F100E94E1
:1039F000851280917201811509F440CC1ECC809112
:103A00007B01811509F45BC00E94120310927B01B7
:103A10001C821B821E821D821A82198263E374E05B
:103A2000CE0101960E940714E980FA8061E0CE0180
:103A300001960E949310C7010E942F100E94EF0C64
:103A40001C821B821E821D821A82198266E274E029
:103A5000CE0101960E940714E980FA80CE010196FA
:103A60000E94C604C7010E942F1081E090E090934D
:103A7000DE048093DD0488E68093E7040E94F2026E
:103A8000462F572FBC014093DF045093E00460930E
:103A9000E1047093E2048091D8049091D904A0913C
:103AA000DA04B091DB04840F951FA61FB71F809323
:103AB000E3049093E404A093E504B093E6048091BA
:103AC0007201811511F1109272011C821B821E82FB
:103AD0001D821A82198266E174E0CE0101960E946D
:103AE0000714E980FA8061E0CE0101960E949310EC
:103AF000C7010E942F1020E030E040E550E064EC68
:103B000079E081E00E94740DCFCA80912E04811566
:103B100009F4B4CB0E94F202462F572FBC01409308
:103B2000DF045093E0046093E1047093E204809119
:103B3000E3049091E404A091E504B091E6048417B5
:103B40009507A607B70770F02C960FB6F894DEBF5E
:103B50000FBECDBFDF91CF91FF90EF90DF90CF9060
:103B60000C949E111C821B821E821D821A82198255
:103B700066E074E0CE0101960E940714E980FA80A5
:103B800061E0CE0101960E949310C7010E942F10A0
:103B900081E090E00E94FE0220E030E040ED57E03E
:103BA00068EC70E081E02C960FB6F894DEBF0FBE93
:103BB000CDBFDF91CF91FF90EF90DF90CF900C942D
:103BC000740D0F931F93CF93DF9300D000D000D0DC
:103BD000CDB7DEB780914A0690914B0684309105AF
:103BE00009F46CC2B0F48130910509F4ACC08230A4
:103BF000910509F465C1892B09F464C00F900F90F9
:103C00000F900F900F900F90DF91CF911F910F9118
:103C100008958930910531F10A9781F71C821B8242
:103C20001E821D821A82198265ED73E0CE01019613
:103C30000E94071409811A8161E0CE0101960E9459
:103C40009310C8010E942F108BE090E00F900F900E
:103C50000F900F900F900F90DF91CF911F910F91C8
:103C60000C94FE0280E394E00E9496118CE994E0AB
:103C70000E94961186E694E00E94961140913404C9
:103C800050E06DE072E086E594E00E94CF2F409115
:103C90006A0450E065E271E08CE894E00E94CF2F66
:103CA00024E030E03093D3042093D2048FE6809355
:103CB000DC043093DE042093DD048093E70480E08D
:103CC00090E0C4CF80917B01811599F110927B0126
:103CD0000E94EF0C1C821B821E821D821A82198296
:103CE00069EC73E0CE0101960E94071409811A81E4
:103CF00042E061E0CE0101960E948904C8010E9461
:103D00002F101C821B821E821D821A82198268EB70
:103D100073E0CE0101960E94071409811A81AE0159
:103D20004F5F5F4F61E080E00E945604C8010E942F
:103D30002F1080917201811509F460CF10927201E9
:103D400081E090E083CF80917B01811509F45FC011
:103D500010927B010E94EF0C1C821B821E821D822E
:103D60001A82198261EB73E0CE0101960E9407145A
:103D700009811A81CE0101960E94C604C8010E94E1
:103D80002F101C821B821E821D821A82198260EAF9
:103D900073E0CE0101960E94071409811A81AE01D9
:103DA0004F5F5F4F61E080E00E945604C8010E94AF
:103DB0002F101092DF041092E0041092E104109290
:103DC000E2041092E3041092E4041092E5041092CD
:103DD000E604809145018111109245011092DE04A4
:103DE0001092DD048BE68093E70463EE74E08FEDC0
:103DF00094E00E94AC030E94850C6BE680E394E0A3
:103E00000E94900D6BE686E694E00E94900D8091F2
:103E10007201811519F01092720151CF80911C012D
:103E2000811110921C0180911301811110921301D4
:103E300080914501811509F4E1CE109245010E945F
:103E400012031C821B821E821D821A82198260E963
:103E500073E0CE0101960E94071409811A8161E086
:103E6000CE0101960E949310C8010E942F100E945B
:103E7000A71440914601509147016091480170910B
:103E8000490181E00E9447168091460190914701C7
:103E9000A0914801B09149018093DF049093E00420
:103EA000A093E104B093E20481E090E09093DE04FB
:103EB0008093DD0488E68093E70482E090E0C6CE3C
:103EC00080917B018115C9F010927B010E94EF0C5B
:103ED0001C821B821E821D821A82198264E873E092
:103EE000CE0101960E94071409811A81CE01019624
:103EF0000E94C604C8010E942F1080911C018115E8
:103F000009F110921C0140911D0150911E01609118
:103F10001F01709120014093E3045093E4046093E7
:103F2000E5047093E60483E00E9447160F900F901B
:103F30000F900F900F900F90DF91CF911F910F91E5
:103F40000C943814809113018115A1F01092130183
:103F50004091140150911501609116017091170163
:103F60004093E3045093E4046093E5047093E60403
:103F700084E0DACF809145018115D1F1109245019D
:103F80001C821B821E821D821A8219826CE773E0DA
:103F9000CE0101960E94071409811A8161E0CE01C9
:103FA00001960E949310C8010E942F104091460173
:103FB00050914701609148017091490182E00E944F
:103FC000471666E471E08FED94E00E94AC030E9416
:103FD000850C8AE380935D0146E551E060E082E074
:103FE0000E943F0449E452E060E080E00E943F0408
:103FF00080912E04811581F00E94F20269837A83F8
:104000008B839C83BE016F5F7F4F8FED94E00E9496
:10401000AC0380E00E94B60D80917201811509F415
:10402000EDCD109272011C821B821E821D821A82AB
:1040300019826DE673E0CE0101960E940714098192
:104040001A8161E0CE0101960E949310C8010E947E
:104050002F1040917301509174016091750170911E
:10406000760185E00E94471663E771E08FED94E0EA
:104070000E94AC0381E00E94B60D1C821B821E824E
:104080001D821A82198265E673E0CE0101960E94B4
:10409000071409811A81CE0101960E94C604C80145
:1040A0000E942F1082E090E09093DE048093DD0464
:1040B0008BE68093E70484E090E0C8CD80917B019B
:1040C0008115D1F010927B011C821B821E821D8201
:1040D0001A82198266E573E0CE0101960E940714E8
:1040E00009811A8161E0CE0101960E949310C801F6
:1040F0000E942F100E9485128091720181118BCE37
:104100007DCD1F921FB61F9211248F939F93AF9363
:10411000BF938091410690914206A0914306B091D1
:1041200044060196A11DB11D80934106909342065D
:10413000A0934306B0934406809140068F5F80931E
:104140004006853228F081E080933F0610924006B9
:1041500080913E068F5F80933E068A3F28F081E083
:1041600080933D0610923E061092850010928400C6
:10417000BF91AF919F918F911F901FBE1F90189577
:104180001F920F920FB60F9211242F933F934F93CC
:104190005F936F937F938F939F93AF93BF93EF93AF
:1041A000FF939091B900892F887F803509F4C0C0B2
:1041B00008F042C0803309F4B6C098F5883101F1A7
:1041C000D0F4883009F4A7C0803109F4A4C0811567
:1041D00009F4F0C0FF91EF91BF91AF919F918F9142
:1041E0007F916F915F914F913F912F910F900FBEF3
:1041F0000F901F901895803209F495C0883251F7BE
:104200009091A9038091A803981778F5E091A903EC
:1042100081E08E0F8093A903F0E0E857FC4F808186
:104220007CC0803409F490C0883409F47EC088339F
:1042300089F6809387036DC0803A09F49FC0B8F572
:10424000803809F489C050F5803611F1D8F48835EA
:1042500009F6E091A90381E08E0F8093A903809174
:10426000BB00F0E0E857FC4F80838091D3038111BD
:104270005CC081E08093D20384EA8093BC001092FA
:10428000D403A8CF803721F0987E983609F0A2CFCA
:1042900083E08093D4031092860341C0803909F4EF
:1042A0005BC0987E983809F095CF85E839C0883B87
:1042B000D9F058F5883A19F0803B09F08BCF84E0AB
:1042C0008093D403109265031092D103E0911704F8
:1042D000F091180409958091D103811105C081E006
:1042E0008093D1031092B103E091650381E08E0FBA
:1042F00080936503F0E0EF54FC4F80818093BB0016
:10430000909165038091D10323C0907F903C09F088
:1043100061CF85ECB2CF8091AA038093BB0085EC7E
:104320008093BC0057CF809387030E94341052CFF4
:10433000E091A90381E08E0F8093A9038091BB00D7
:10434000F0E0E857FC4F80839091A9038091A80387
:10435000981708F0AACFE3CF80918603803208F047
:10436000A4CFE091860381E08E0F80938603809135
:10437000BB00F0E0EA59FC4F8083D1CF85EC8093FD
:10438000BC001092D40380918603803230F4E09117
:104390008603F0E0EA59FC4F10826091860370E0DA
:1043A000E0911504F091160486E693E009951092C9
:1043B000860310CF10928703B8CF1F920F920FB6CB
:1043C0000F9211242F933F934F935F936F937F939B
:1043D0008F939F93AF93BF93CF93EF93FF9393B13B
:1043E00080916403C0916303C9232091520528235F
:1043F000C22B8927C82390936403C4FF05C0E091B2
:104400007001F09171010995C5FF05C0E0916E0141
:10441000F0916F010995C6FF05C0E0916C01F09124
:104420006D010995C7FF05C0E0916A01F0916B012C
:104430000995C1FF05C0E0910D01F0910E010995AC
:10444000C2FF05C0E0910F01F09110010995C3FF73
:1044500005C0E0911101F09112010995FF91EF91D2
:10446000CF91BF91AF919F918F917F916F915F910C
:104470004F913F912F910F900FBE0F901F90189565
:104480001F921FB61F9211242F933F938F939F93D8
:10449000AF93BF9380915F0390916003A0916103FC
:1044A000B091620330915E0323E0230F2D3750F566
:1044B0000196A11DB11D20935E0380935F0390932D
:1044C0006003A0936103B093620380915A039091BB
:1044D0005B03A0915C03B0915D030196A11DB11D2A
:1044E00080935A0390935B03A0935C03B0935D03A6
:1044F000BF91AF919F918F913F912F911F901FBEC0
:104500001F90189526E8230F0296A11DB11DD3CF49
:104510002F932FB72F938F939F93EF93FF93E09158
:10452000CA02F091CB028081E091D002F091D102D9
:1045300082FD19C090818091D3028F5F8F7320918B
:10454000D402821741F0E091D302F0E0E654FD4F2F
:10455000958F8093D302FF91EF919F918F912F912F
:104560002FBF2F9118958081F6CF1F920F920FB613
:104570000F9211242F933F934F935F936F937F93E9
:104580008F939F93AF93BF93EF93FF938AEB92E048
:104590000E943609FF91EF91BF91AF919F918F914A
:1045A0007F916F915F914F913F912F910F900FBE2F
:1045B0000F901F9018951F921FB61F9211248F9372
:1045C0009F93AF93BF93EF93FF938091B602909127
:1045D000B702A091B802B091B902892B8A2B8B2B1C
:1045E00099F19091B502E091B302F091B40280810B
:1045F000892780838091B6029091B702A091B8027A
:10460000B091B902181619061A061B069CF480917F
:10461000B6029091B702A091B802B091B902019789
:10462000A109B1098093B6029093B702A093B80292
:10463000B093B902FF91EF91BF91AF919F918F918C
:104640001F901FBE1F901895809171008D7F8093E1
:1046500071008091B502E091B302F091B4029081B3
:10466000809589238083E6CF1F920F920FB60F9219
:104670001124CF92DF92EF92FF920F931F932F930B
:104680003F934F935F936F937F938F939F93AF93DA
:10469000BF93EF93FF93CF93DF93CDB7DEB76C97C4
:1046A000DEBFCDBF1092E9008091E80083FF30C0EB
:1046B0008E010B5E1F4F68E0C8010E943C0A82EF2A
:1046C0008093E8008D89E02ED12E87FF12C0909153
:1046D000E80090FFFCCF982F907691112BC12F8985
:1046E000388DEE89EA3088F4F0E0E95CFB4C0C94FC
:1046F000AF2C9EEF9093E800EECF803841F580918B
:10470000AD028093F1001092F1008EEF8093E800EB
:104710006C960FB6F894DEBF0FBECDBFDF91CF9180
:10472000FF91EF91BF91AF919F918F917F916F9189
:104730005F914F913F912F911F910F91FF90EF90BB
:10474000DF90CF900F900FBE0F901F901895109292
:10475000F100D9CF8111D9CF21303105B1F6809147
:10476000AD028D7F8093AD02D0CF8111CECF2130AD
:10477000310559F68091AD028260F4CF8091E80056
:1047800080FFFCCF8F8980688093E300BECFF88CD8
:104790000B8D1C8D22E01092E9001092B102109254
:1047A000B002F2122EC01092AF021092AE020E941E
:1047B0000E0E1F8299E09983FA8291E09E8390EA1F
:1047C00098879AEF99872091B0023091B102275FC4
:1047D0003F4F3C832B838D831092E9001092B102EE
:1047E0001092B0021093AF020093AE0249E050E085
:1047F000BE016F5F7F4F80E00E94F00D0E940E0EA1
:1048000084CF1093AF020093AE020E94AB0ADC018A
:1048100012960D911C910115110531F4F1E0FF1272
:1048200014C061E372E05AC0D801ED91FC9104809C
:10483000F581E02D6E2D7D2DC8010995009709F0B9
:1048400037C1F80100851185E6CFF3E0FF120EC0F5
:104850008F89811509F440C0823061F440E860E13D
:1048600083E592E00E94780A81114FCF81E2809324
:10487000EB004ECF813029F440E86BE087E492E012
:10488000F1CF833099F70E94AB0ADC011296ED90CC
:10489000FC908E010F5F1F4F6801E114F10469F471
:1048A000D8011C92F60101900020E9F73197BF0171
:1048B0006C197D0940E0C601D5CFD701ED91FC917F
:1048C0000680F781E02DB801C7010995080F111D79
:1048D000F701E084F184E1CF63E472E0FB014491ED
:1048E00050E080E80E94F00D10CF81E08093F1004D
:1048F0000CCF83708111BACFE7EEF1E081E021E0C7
:1049000036E39191911569F08093E9002093EB00D3
:10491000DF019E919093EC003093ED008F5F873024
:1049200081F78EE78093EA001092EA008F898093E6
:104930005903EBCE8B8D9C8D1092E9001092B10241
:104940001092B0029093AF028093AE02898D8111D4
:1049500095C08E899D89913A49F4813209F086CFBC
:1049600047E050E065E071E080E0BCCF913209F0B3
:104970007DCF833269F48F89988DA0E0B0E0809379
:10498000010190930201A0930301B0930401BDCEF5
:10499000803269F48091E80082FFFCCF67E085E017
:1049A00091E00E943C0A8BEF8093E800AECE823209
:1049B00009F0ABCE8F8980930C01EEEFFFE7859174
:1049C00095918B3F9C4D51F1E0E0F8E0809105011D
:1049D00090910601A0910701B0910801803B94409D
:1049E000A105B105F1F480910C0180FD1AC0EE3FE4
:1049F0008AE0F80791F587E797E7918380838091B4
:104A000060008093AC0288E19BE00FB6F894A89513
:104A1000809360000FBE9093600077CEEEEFFAE0D7
:104A2000D5CF808191818737974709F06ECEA895C1
:104A3000809160008861809360008091AC028093D7
:104A40006000EE3FFA40A9F08091FE0A9091FF0AC3
:104A5000909301088093000858CE809100089091AF
:104A600001088737980739F29093FF0A8093FE0A6E
:104A7000C2CF1092FF0A1092FE0A47CE0E94AB0AE4
:104A8000DC0112960D911C910115110509F4EECE71
:104A9000D801ED91FC910190F081E02D6E2D7D2DDE
:104AA000C8010995811131CEF80100851185ECCF3F
:104AB0000CF02BCEDBCE1F921FB61F9211248F93CA
:104AC0009F938091E1009091E100937F9093E100AA
:104AD00083FF0FC01092E90091E09093EB001092D9
:104AE000EC0092E39093ED001092590398E09093BC
:104AF000F00082FF22C093E09093E9009091F200D1
:104B0000911519F09AE39093E8009091570391154D
:104B100041F090915703915090935703911101C028
:104B20005D9A9091B202911541F09091B20291502C
:104B30009093B202911101C0289A84FF17C080910E
:104B4000E2008E7E81608093E2008091E1008F7EA2
:104B50008093E100809158038E7E8061809358039A
:104B60009F918F911F901FBE1F90189580FFF8CFC7
:104B70008091E2008E7E80618093E2008091E1006E
:104B80008E7E8093E100809158038E7E8160E6CF17
:104B9000CDB7DEB7A1970FB6F894DEBF0FBECDBF7D
:104BA000789484B5826084BD84B5816084BD85B508
:104BB000826085BD85B5816085BD80916E00816014
:104BC00080936E00109281008091810082608093BA
:104BD00081008091810081608093810080918000BC
:104BE0008160809380008091910082608093910029
:104BF000809191008160809391008091900081600C
:104C0000809390008091C10084608093C100809166
:104C1000C10082608093C1008091C1008160809357
:104C2000C1008091C30081608093C3008091C00067
:104C300082608093C0008091C20081608093C20036
:104C400080917A00846080937A0080917A008260FB
:104C500080937A0080917A00816080937A008091BD
:104C60007A00806880937A00109259031092AD0206
:104C7000109258038091D70081608093D70080EA1A
:104C80008093D80089B5806189BD89B5826089BD6E
:104C900089B5282F217029A380FFFACF61E070E049
:104CA00080E090E00E94B8068091D8008F7C8061FF
:104CB0008093D8008091E000807F8093E000809115
:104CC000E1008E7E8093E1008DE08093E200559AB2
:104CD000209AF89410928000109281001092850022
:104CE000109284008091810088608093810080917F
:104CF000810083608093810089EF90E09093890028
:104D00008093880080916F00826080936F00789418
:104D10008FEF9FEF90937C0580937B0510910C01A2
:104D20006AE070E080E090E00E94B806111509F496
:104D300097C21C821B821E821D821A82198263E125
:104D400072E08E010F5F1F4FC8010E940714E980B7
:104D5000FA8060E0C8010E947514C7010E942F10FC
:104D60006FE472E08FE695E00E94880F6BE572E0D9
:104D70008FE695E00E94171010921A041092190401
:104D800010921C0410921B040E94950887E795E07E
:104D9000909318048093170488E795E09093160485
:104DA0008093150420E042E060E189EF94E00E94E6
:104DB000570E6091FE046D7F6093FE04686089EF7A
:104DC00094E00E94D0046FEF89EF94E00E94A20E5D
:104DD00030ECE32E31E0F32E48E0442E0F8F18A381
:104DE00053E7A52EB12C6E0139E0C30ED11C6BE93F
:104DF000862E912C48E050E0B7018F8D98A10E943B
:104E0000B52C642D606489EF94E00E94D004C50144
:104E10000197F1F70F8D18A1D8016D918D0189EFE0
:104E200094E00E94D804C4010197F1F7C016D1069E
:104E300099F7B8E0EB0EF11CE8E04E0EF8E24F12E5
:104E4000D9CF61E082E10E949C0761E08CE00E9482
:104E50009C0762E088E00E949C0762E089E00E9473
:104E60009C0762E08AE00E949C0762E08BE00E945F
:104E70009C072AEB32E0E091CA02F091CB0282E07B
:104E80008083E091C602F091C7021082E091C802CF
:104E9000F091C90287E680831092D202E091CE029F
:104EA000F091CF0286E08083E091CC02F091CD02B8
:104EB000808180618083E091CC02F091CD0280817D
:104EC00088608083E091CC02F091CD02808180687F
:104ED0008083E091CC02F091CD0280818F7D808330
:104EE0008DEC90E0909394028093930294E3E2E33C
:104EF000F4E0DF01492F1D924A95E9F741E852E0BD
:104F0000509331044093300487E08093340442E1AD
:104F100040933504EEE9F4E0DF011D929A95E9F73C
:104F200030939D0420939C048093A004E9E6F4E070
:104F300093E3DF011D929A95E9F73093670420937C
:104F4000660498E09093680480936A04AE01435F1E
:104F50005F4F60E080E00E94050F811509F457C0A3
:104F60001C821B821E821D821A82198260E072E0FE
:104F70008F8D98A10E94071409811A8161E08F8D9D
:104F800098A10E947514C8010E942F101D851093CE
:104F9000A0048E8580939E048F8580939F048889CA
:104FA00080936A048989809368048A89809369045C
:104FB0004F8D58A161E080E00E94050F811509F432
:104FC00058C1412F50E06F8D78A185E391E00E9498
:104FD000CF2F65E371E08FE695E00E9417104F8DAB
:104FE00058A162E080E00E94050F811509F458C1C4
:104FF0004091A00450E06F8D78A185E291E00E947D
:10500000CF2F65E271E08FE695E00E94171082E0F5
:105010008093960280E00E94A41501E092E9E92EB7
:1050200096E0F92E20E3222E22E0322E10922E045A
:105030001092AB0210922F0480913F06811521F04F
:1050400010923F0600932E0480913D06811561F079
:1050500010923D0680913C068F5F80933C06823023
:1050600009F035C10093AB0280916805811551F0BC
:105070001092680549E655E06BE675E085E491E03D
:105080000E94E31480916105811551F01092610531
:1050900042E655E064E675E082E791E00E94E314A1
:1050A00080915A05811551F010925A054BE555E053
:1050B0006DE575E08CE191E00E94E3148091530569
:1050C000811551F01092530544E555E066E575E011
:1050D00083E191E00E94E314B0907201B11409F4ED
:1050E00049C080914A0690914B06892B09F042C035
:1050F00064EB70E080E090E00E94B80689E00E94D6
:10510000D408892BB9F510912B04F0927101E0922B
:105110007001C0906303D090520580E10E94FF0CA3
:10512000F0926F01E0926E0180E20E94FF0CF0921B
:105130006D01E0926C0180E40E94FF0CF0926B0123
:10514000E0926A018C2D8F70809363038D2D8F7098
:105150008093520580E80E94FF0CD12C89E00E94C8
:10516000D408892B09F4BDC0D11409F425C1812FBD
:105170000E94A415E0912C04F0912D0409958091D2
:10518000A7029091A802A091A902B091AA0201964B
:10519000A11DB11D8093A7029093A802A093A9021C
:1051A000B093AA0280912E04811529F10E94E30494
:1051B00010912F04111531F080919702E1E08E27B4
:1051C0008093970260E080E394E00E94360860914B
:1051D0009702111101C060E08CE994E00E9436084A
:1051E000111521F010919702F1E01F27612F86E63B
:1051F00094E00E94360810913B06111509F4F3C0A3
:105200000E94F2024B015C018091310690913206BE
:10521000A0913306B0913406A5019401281B390BE7
:105220004A0B5B0BDA01C90120913006211156C2ED
:10523000209135063091360682179307A105B105F6
:1052400008F4D1C0C0903906D0903A068091000190
:105250008C3009F0B4C0F101149117FDBAC032C10D
:105260000E94F202603D77408105910508F456CD19
:1052700060CD1C8E1B8E1E8E1D8E1A8E198E60EFB9
:1052800071E0CE0149960E940714098D1A8D61E0E4
:10529000CE0149960E947514C8010E942F109FCE1E
:1052A0001C8E1B8E1E8E1D8E1A8E198E60EE71E066
:1052B000CE0149960E940714098D1A8D61E0CE0136
:1052C00049960E947514C8010E942F10A0CE843008
:1052D00009F0CACE0093AB0200932F0410923C0653
:1052E000C3CE8BE00E94D408892B81F464EB70E07C
:1052F00080E090E00E94B806809196028150990B60
:105300001817190609F451C01F5FDB2C8AE00E94B0
:10531000D408892B09F04CC064EB70E080E090E089
:105320000E94B806111102C01091960211500E94FD
:10533000EF0C1C821B821E821D821A82198260E27F
:1053400072E08F8D98A10E940714C980DA804F8D7A
:1053500058A160E080E00E945604C6010E942F1010
:105360001C821B821E821D821A8219826CE172E0ED
:105370008F8D98A10E940714C980DA804F8D58A1A3
:1053800061E080E00E945604C6010E942F10B0E147
:105390001B9FA001112442515E4F61E084E00E94F6
:1053A0003F040E94E304DB2CD9CEDB2C10E0AECF0F
:1053B000D11409F4D3CEBBCF0E941D0DDBCE8F3F9D
:1053C00041F48CE080930001F1018491182F8F3F0C
:1053D000B9F4009330068092310690923206A09282
:1053E0003306B092340680E090E0892B09F41ECE9B
:1053F0000E946209811509F419CE0E94000016CEA0
:10540000833009F4B7C030F5811509F444C012E0C7
:10541000813009F057C01092800010928100809175
:1054200081008860809381008091810081608093F9
:105430008100EBEFF2E0E491F0E0EE0FFF1FED52A0
:10544000FD4F85919591EAE1F3E0E491E0939902B3
:1054500011E038C0843009F000CF1092C0001092E3
:10546000C1008091C10088608093C1008091C1001B
:1054700081608093C100EBEFF2E0E491F0E0EE0F89
:10548000FF1FED52FD4F85919591EAE1F3E0E49124
:10549000E093980217C014BC15BC84B5826084BD2B
:1054A00085B5816085BDEBEFF2E0E491F0E0EE0FB1
:1054B000FF1FED52FD4F85919591EAE1F3E0E491F4
:1054C000E0939A0261E08CE00E949C07960140E024
:1054D00050E060E074E284EF90E00E94902C29019B
:1054E0003A017594679457944794F1E04F1A510824
:1054F00061087108D301C201612F6D7F611183C002
:10550000411461E05606610471040CF478C0DA01BC
:10551000C90164E0B595A795979587956A95D1F7E8
:105520000197A109B109123009F007C18115914015
:10553000A105B1050CF44DCF2034F0E43F0741053F
:10554000510508F446CFDA01C901F7E0B595A795F2
:1055500097958795FA95D1F70197A109B10911118E
:1055600038CF8115F1E09F07A105B1050CF0D0C03F
:1055700023E02FC010929000109291008091910032
:105580008860809391008091910081608093910068
:10559000EBEFF2E0E491F0E0EE0FFF1FED52FD4F74
:1055A000859195919093B4028093B302EAE1F3E080
:1055B000E491E093B50286CFDA01C901EBE0B5953D
:1055C000A79597958795EA95D1F70197A109B10914
:1055D00025E035B5387F232B25BD87BD8FEF9FEFA5
:1055E000DC018093A3029093A402A093A502B09340
:1055F000A60280916E00826080936E00EACE111147
:10560000E8CE29A1E6CF4114510461E06606710499
:1056100054F1DA01C90177E0B595A795979587957B
:105620007A95D1F70197A109B10933E01130E9F476
:1056300020918100287F232B209381009093890063
:10564000809388008FEF9FEFDC0180939F029093FF
:10565000A002A093A102B093A20280916F00826089
:1056600080936F00B6CE39A1E1CF1330D9F42091E9
:105670009100287F232B2093910090939900809391
:1056800098008FEF9FEFDC018093B6029093B702F2
:10569000A093B802B093B9028091710082608093A8
:1056A000710097CE143009F094CE2091C100287F6C
:1056B000232B2093C1008093CF008FEF9FEFDC015D
:1056C00080939B0290939C02A0939D02B0939E02B4
:1056D000809172008064809372007BCE20913706A7
:1056E0003091380682179307A105B10508F47BCEE7
:1056F0000E94480D10923006809231069092320638
:10570000A0923306B0923406115010933B066BCE34
:10571000DA01C90169E0B595A795979587956A95CE
:10572000D1F70197A109B1098115E1E09E07A10513
:10573000B1050CF041CF24E04CCF811561E0960714
:10574000A105B1050CF0FFCE22E043CFCF92DF924E
:10575000EF92FF92CF93DF93EAEBF2E01382128293
:1057600088EEC82E83E0D82EE12CF12CC482D5829D
:10577000E682F7828EE891E0918380838DEC90E061
:10578000958784878CEC90E09787868788EC90E0FB
:10579000918B808B89EC90E0938B828B8AEC90E0EC
:1057A000958B848B8EEC90E0978B868B118E128E6E
:1057B000138E148EEFE6F5E013821282C482D58236
:1057C000E682F78280EA91E0918380838FEF9FEFFA
:1057D00095878487EFE1F4E013821282C482D58238
:1057E000E682F78282EB91E091838083E9EFF4E037
:1057F0001382128284EC91E091838083108A8FEF70
:1058000087871686118A80E283871486158612861A
:10581000118690E1928B838B80E4848B81E0858B71
:1058200082E0868B84E0878B88E0808F41E050E0C7
:1058300067E0CF010E947905C1E8D2E01B821A829D
:10584000CC82DD82EE82FF8288ED91E099838883AD
:105850001B8A1A8AE5E9F2E080818D7F808361E00E
:1058600086E00E94070861E086E00E949C07E4E170
:10587000F3E0E491EC87E5EFF2E0E491F0E0EE0F85
:10588000FF1FED52FD4F859195919E878D87DF918A
:10589000CF91FF90EF90DF90CF900895992778E017
:1058A000880F991F961708F0961B881F7A95C9F7DD
:1058B00080950895AA1BBB1B51E107C0AA1FBB1FFF
:1058C000A617B70710F0A61BB70B881F991F5A958C
:1058D000A9F780959095BC01CD010895A1E21A2EFB
:1058E000AA1BBB1BFD010DC0AA1FBB1FEE1FFF1F84
:1058F000A217B307E407F50720F0A21BB30BE40BD4
:10590000F50B661F771F881F991F1A9469F760951A
:105910007095809590959B01AC01BD01CF010895D4
:10592000052E97FB1EF400940E94A72C57FD07D06C
:105930000E946E2C07FC03D04EF40C94A72C5095BB
:105940004095309521953F4F4F4F5F4F089590956B
:105950008095709561957F4F8F4F9F4F0895EE0F03
:10596000FF1F0590F491E02D0994FB01DC0102C0BA
:1059700005900D9241505040D8F70895FB01DC018D
:1059800005900D920020E1F70895FC01059000209C
:10599000E9F7809590958E0F9F1F08950E94102D16
:1059A00008F481E00895E89409C097FB3EF49095CF
:1059B0008095709561957F4F8F4F9F4F9923A9F0E8
:1059C000F92F96E9BB279395F69587957795679577
:1059D000B795F111F8CFFAF4BB0F11F460FF1BC0BB
:1059E0006F5F7F4F8F4F9F4F16C0882311F096E94E
:1059F00011C0772321F09EE8872F762F05C06623FC
:105A000071F096E8862F70E060E02AF09A95660FB4
:105A1000771F881FDAF7880F9695879597F908956D
:105A2000990F0008550FAA0BE0E8FEEF16161706AF
:105A3000E807F907C0F012161306E407F50798F017
:105A4000621B730B840B950B39F40A2661F0232B30
:105A5000242B252B21F408950A2609F4A140A695AC
:105A60008FEF811D811D08950E94472D0C94B82D44
:105A70000E94AA2D38F00E94B12D20F0952311F03C
:105A80000C94A12D0C94A72D11240C94EC2D0E94A4
:105A9000C92D70F3959FC1F3950F50E0551F629F7C
:105AA000F001729FBB27F00DB11D639FAA27F00D77
:105AB000B11DAA1F649F6627B00DA11D661F829F9E
:105AC0002227B00DA11D621F739FB00DA11D621F83
:105AD000839FA00D611D221F749F3327A00D611DA0
